{
  "contractName": "UserManagement",
  "abi": [
    {
      "anonymous": false,
      "inputs": [
        {
          "indexed": false,
          "internalType": "uint256",
          "name": "userId",
          "type": "uint256"
        },
        {
          "indexed": false,
          "internalType": "address",
          "name": "wallet",
          "type": "address"
        }
      ],
      "name": "UserApproved",
      "type": "event"
    },
    {
      "anonymous": false,
      "inputs": [
        {
          "indexed": false,
          "internalType": "uint256",
          "name": "userId",
          "type": "uint256"
        },
        {
          "indexed": false,
          "internalType": "string",
          "name": "email",
          "type": "string"
        },
        {
          "indexed": false,
          "internalType": "address",
          "name": "wallet",
          "type": "address"
        }
      ],
      "name": "UserRegistered",
      "type": "event"
    },
    {
      "inputs": [],
      "name": "government",
      "outputs": [
        {
          "internalType": "address",
          "name": "",
          "type": "address"
        }
      ],
      "stateMutability": "view",
      "type": "function"
    },
    {
      "inputs": [
        {
          "internalType": "address",
          "name": "",
          "type": "address"
        }
      ],
      "name": "registeredAddresses",
      "outputs": [
        {
          "internalType": "bool",
          "name": "",
          "type": "bool"
        }
      ],
      "stateMutability": "view",
      "type": "function"
    },
    {
      "inputs": [],
      "name": "userCount",
      "outputs": [
        {
          "internalType": "uint256",
          "name": "",
          "type": "uint256"
        }
      ],
      "stateMutability": "view",
      "type": "function"
    },
    {
      "inputs": [
        {
          "internalType": "address",
          "name": "",
          "type": "address"
        }
      ],
      "name": "userIdByAddress",
      "outputs": [
        {
          "internalType": "uint256",
          "name": "",
          "type": "uint256"
        }
      ],
      "stateMutability": "view",
      "type": "function"
    },
    {
      "inputs": [
        {
          "internalType": "uint256",
          "name": "",
          "type": "uint256"
        }
      ],
      "name": "users",
      "outputs": [
        {
          "internalType": "uint256",
          "name": "id",
          "type": "uint256"
        },
        {
          "internalType": "string",
          "name": "email",
          "type": "string"
        },
        {
          "internalType": "string",
          "name": "name",
          "type": "string"
        },
        {
          "internalType": "string",
          "name": "cnic",
          "type": "string"
        },
        {
          "internalType": "bytes32",
          "name": "passwordHash",
          "type": "bytes32"
        },
        {
          "internalType": "address",
          "name": "wallet",
          "type": "address"
        },
        {
          "internalType": "bool",
          "name": "approvedByGovt",
          "type": "bool"
        }
      ],
      "stateMutability": "view",
      "type": "function"
    },
    {
      "inputs": [
        {
          "internalType": "string",
          "name": "_email",
          "type": "string"
        },
        {
          "internalType": "string",
          "name": "_name",
          "type": "string"
        },
        {
          "internalType": "string",
          "name": "_cnic",
          "type": "string"
        },
        {
          "internalType": "string",
          "name": "_password",
          "type": "string"
        }
      ],
      "name": "registerUser",
      "outputs": [],
      "stateMutability": "nonpayable",
      "type": "function"
    },
    {
      "inputs": [
        {
          "internalType": "address",
          "name": "_userAddress",
          "type": "address"
        }
      ],
      "name": "approveUser",
      "outputs": [],
      "stateMutability": "nonpayable",
      "type": "function"
    },
    {
      "inputs": [
        {
          "internalType": "string",
          "name": "_email",
          "type": "string"
        },
        {
          "internalType": "string",
          "name": "_password",
          "type": "string"
        }
      ],
      "name": "verifyLogin",
      "outputs": [
        {
          "internalType": "bool",
          "name": "",
          "type": "bool"
        }
      ],
      "stateMutability": "view",
      "type": "function"
    },
    {
      "inputs": [
        {
          "internalType": "address",
          "name": "_userAddress",
          "type": "address"
        }
      ],
      "name": "isRegistered",
      "outputs": [
        {
          "internalType": "bool",
          "name": "",
          "type": "bool"
        }
      ],
      "stateMutability": "view",
      "type": "function"
    },
    {
      "inputs": [
        {
          "internalType": "string",
          "name": "_email",
          "type": "string"
        }
      ],
      "name": "getUserWallet",
      "outputs": [
        {
          "internalType": "address",
          "name": "",
          "type": "address"
        }
      ],
      "stateMutability": "view",
      "type": "function"
    },
    {
      "inputs": [
        {
          "internalType": "string",
          "name": "_email",
          "type": "string"
        }
      ],
      "name": "getUserId",
      "outputs": [
        {
          "internalType": "uint256",
          "name": "",
          "type": "uint256"
        }
      ],
      "stateMutability": "view",
      "type": "function"
    },
    {
      "inputs": [
        {
          "internalType": "address",
          "name": "_wallet",
          "type": "address"
        }
      ],
      "name": "getUserIdByAddress",
      "outputs": [
        {
          "internalType": "uint256",
          "name": "",
          "type": "uint256"
        }
      ],
      "stateMutability": "view",
      "type": "function"
    }
  ],
  "bytecode": "0x6080604052738de289a68cd9f1ddb6eda5684cf9aac6c6311f606000806101000a81548173ffffffffffffffffffffffffffffffffffffffff021916908373ffffffffffffffffffffffffffffffffffffffff160217905550600060045534801561006957600080fd5b5061179e806100796000396000f3fe608060405234801561001057600080fd5b50600436106100b45760003560e01c806393e54a561161007157806393e54a56146101bb578063be90947a146101d7578063c3c5a54714610207578063d624fdb614610237578063db1ef71f14610253578063e577551514610283576100b4565b806307973ccf146100b95780632672f526146100d7578063365b98b2146100f5578063385399f91461012b5780634b7590881461015b57806376b22eac1461018b575b600080fd5b6100c16102b3565b6040516100ce9190610be8565b60405180910390f35b6100df6102b9565b6040516100ec9190610c44565b60405180910390f35b61010f600480360381019061010a9190610c9f565b6102dd565b6040516101229796959493929190610d90565b60405180910390f35b61014560048036038101906101409190610e40565b6104e4565b6040516101529190610be8565b60405180910390f35b61017560048036038101906101709190610e40565b61052d565b6040516101829190610be8565b60405180910390f35b6101a560048036038101906101a09190610e40565b610545565b6040516101b29190610e6d565b60405180910390f35b6101d560048036038101906101d09190610fbd565b610565565b005b6101f160048036038101906101ec9190611094565b610833565b6040516101fe9190610e6d565b60405180910390f35b610221600480360381019061021c9190610e40565b6108c8565b60405161022e9190610e6d565b60405180910390f35b610251600480360381019061024c9190610e40565b61091e565b005b61026d6004803603810190610268919061110c565b610a9f565b60405161027a9190610be8565b60405180910390f35b61029d6004803603810190610298919061110c565b610b3f565b6040516102aa9190610c44565b60405180910390f35b60045481565b60008054906101000a900473ffffffffffffffffffffffffffffffffffffffff1681565b600260205280600052604060002060009150905080600001549080600101805461030690611184565b80601f016020809104026020016040519081016040528092919081815260200182805461033290611184565b801561037f5780601f106103545761010080835404028352916020019161037f565b820191906000526020600020905b81548152906001019060200180831161036257829003601f168201915b50505050509080600201805461039490611184565b80601f01602080910402602001604051908101604052809291908181526020018280546103c090611184565b801561040d5780601f106103e25761010080835404028352916020019161040d565b820191906000526020600020905b8154815290600101906020018083116103f057829003601f168201915b50505050509080600301805461042290611184565b80601f016020809104026020016040519081016040528092919081815260200182805461044e90611184565b801561049b5780601f106104705761010080835404028352916020019161049b565b820191906000526020600020905b81548152906001019060200180831161047e57829003601f168201915b5050505050908060040154908060050160009054906101000a900473ffffffffffffffffffffffffffffffffffffffff16908060050160149054906101000a900460ff16905087565b6000600360008373ffffffffffffffffffffffffffffffffffffffff1673ffffffffffffffffffffffffffffffffffffffff168152602001908152602001600020549050919050565b60036020528060005260406000206000915090505481565b60016020528060005260406000206000915054906101000a900460ff1681565b600160003373ffffffffffffffffffffffffffffffffffffffff1673ffffffffffffffffffffffffffffffffffffffff16815260200190815260200160002060009054906101000a900460ff16156105f2576040517f08c379a00000000000000000000000000000000000000000000000000000000081526004016105e990611201565b60405180910390fd5b6004600081548092919061060590611250565b91905055506040518060e0016040528060045481526020018581526020018481526020018381526020018260405160200161064091906112d4565b6040516020818303038152906040528051906020012081526020013373ffffffffffffffffffffffffffffffffffffffff168152602001600015158152506002600060045481526020019081526020016000206000820151816000015560208201518160010190816106b29190611497565b5060408201518160020190816106c89190611497565b5060608201518160030190816106de9190611497565b506080820151816004015560a08201518160050160006101000a81548173ffffffffffffffffffffffffffffffffffffffff021916908373ffffffffffffffffffffffffffffffffffffffff16021790555060c08201518160050160146101000a81548160ff02191690831515021790555090505060018060003373ffffffffffffffffffffffffffffffffffffffff1673ffffffffffffffffffffffffffffffffffffffff16815260200190815260200160002060006101000a81548160ff021916908315150217905550600454600360003373ffffffffffffffffffffffffffffffffffffffff1673ffffffffffffffffffffffffffffffffffffffff168152602001908152602001600020819055507ff9f470b753810725157b794665955ed6428420a93ae28c045cc736ff3306848f600454853360405161082593929190611569565b60405180910390a150505050565b60008061083f84610a9f565b9050600081036108535760009150506108c2565b8260405160200161086491906112d4565b6040516020818303038152906040528051906020012060026000838152602001908152602001600020600401541480156108be57506002600082815260200190815260200160002060050160149054906101000a900460ff165b9150505b92915050565b6000600160008373ffffffffffffffffffffffffffffffffffffffff1673ffffffffffffffffffffffffffffffffffffffff16815260200190815260200160002060009054906101000a900460ff169050919050565b60008054906101000a900473ffffffffffffffffffffffffffffffffffffffff1673ffffffffffffffffffffffffffffffffffffffff163373ffffffffffffffffffffffffffffffffffffffff16146109ac576040517f08c379a00000000000000000000000000000000000000000000000000000000081526004016109a390611619565b60405180910390fd5b6000600360008373ffffffffffffffffffffffffffffffffffffffff1673ffffffffffffffffffffffffffffffffffffffff16815260200190815260200160002054905060008103610a33576040517f08c379a0000000000000000000000000000000000000000000000000000000008152600401610a2a90611685565b60405180910390fd5b60016002600083815260200190815260200160002060050160146101000a81548160ff0219169083151502179055507fb435ccfdf94417a9bbf268346b63899f30e15fc0532649688f86a389041b2bf38183604051610a939291906116a5565b60405180910390a15050565b600080600190505b6004548111610b345782604051602001610ac191906112d4565b6040516020818303038152906040528051906020012060026000838152602001908152602001600020600101604051602001610afd9190611751565b6040516020818303038152906040528051906020012003610b215780915050610b3a565b8080610b2c90611250565b915050610aa7565b50600090505b919050565b600080610b4b83610a9f565b905060008103610b90576040517f08c379a0000000000000000000000000000000000000000000000000000000008152600401610b8790611685565b60405180910390fd5b6002600082815260200190815260200160002060050160009054906101000a900473ffffffffffffffffffffffffffffffffffffffff16915050919050565b6000819050919050565b610be281610bcf565b82525050565b6000602082019050610bfd6000830184610bd9565b92915050565b600073ffffffffffffffffffffffffffffffffffffffff82169050919050565b6000610c2e82610c03565b9050919050565b610c3e81610c23565b82525050565b6000602082019050610c596000830184610c35565b92915050565b6000604051905090565b600080fd5b600080fd5b610c7c81610bcf565b8114610c8757600080fd5b50565b600081359050610c9981610c73565b92915050565b600060208284031215610cb557610cb4610c69565b5b6000610cc384828501610c8a565b91505092915050565b600081519050919050565b600082825260208201905092915050565b60005b83811015610d06578082015181840152602081019050610ceb565b60008484015250505050565b6000601f19601f8301169050919050565b6000610d2e82610ccc565b610d388185610cd7565b9350610d48818560208601610ce8565b610d5181610d12565b840191505092915050565b6000819050919050565b610d6f81610d5c565b82525050565b60008115159050919050565b610d8a81610d75565b82525050565b600060e082019050610da5600083018a610bd9565b8181036020830152610db78189610d23565b90508181036040830152610dcb8188610d23565b90508181036060830152610ddf8187610d23565b9050610dee6080830186610d66565b610dfb60a0830185610c35565b610e0860c0830184610d81565b98975050505050505050565b610e1d81610c23565b8114610e2857600080fd5b50565b600081359050610e3a81610e14565b92915050565b600060208284031215610e5657610e55610c69565b5b6000610e6484828501610e2b565b91505092915050565b6000602082019050610e826000830184610d81565b92915050565b600080fd5b600080fd5b7f4e487b7100000000000000000000000000000000000000000000000000000000600052604160045260246000fd5b610eca82610d12565b810181811067ffffffffffffffff82111715610ee957610ee8610e92565b5b80604052505050565b6000610efc610c5f565b9050610f088282610ec1565b919050565b600067ffffffffffffffff821115610f2857610f27610e92565b5b610f3182610d12565b9050602081019050919050565b82818337600083830152505050565b6000610f60610f5b84610f0d565b610ef2565b905082815260208101848484011115610f7c57610f7b610e8d565b5b610f87848285610f3e565b509392505050565b600082601f830112610fa457610fa3610e88565b5b8135610fb4848260208601610f4d565b91505092915050565b60008060008060808587031215610fd757610fd6610c69565b5b600085013567ffffffffffffffff811115610ff557610ff4610c6e565b5b61100187828801610f8f565b945050602085013567ffffffffffffffff81111561102257611021610c6e565b5b61102e87828801610f8f565b935050604085013567ffffffffffffffff81111561104f5761104e610c6e565b5b61105b87828801610f8f565b925050606085013567ffffffffffffffff81111561107c5761107b610c6e565b5b61108887828801610f8f565b91505092959194509250565b600080604083850312156110ab576110aa610c69565b5b600083013567ffffffffffffffff8111156110c9576110c8610c6e565b5b6110d585828601610f8f565b925050602083013567ffffffffffffffff8111156110f6576110f5610c6e565b5b61110285828601610f8f565b9150509250929050565b60006020828403121561112257611121610c69565b5b600082013567ffffffffffffffff8111156111405761113f610c6e565b5b61114c84828501610f8f565b91505092915050565b7f4e487b7100000000000000000000000000000000000000000000000000000000600052602260045260246000fd5b6000600282049050600182168061119c57607f821691505b6020821081036111af576111ae611155565b5b50919050565b7f4164647265737320616c72656164792072656769737465726564210000000000600082015250565b60006111eb601b83610cd7565b91506111f6826111b5565b602082019050919050565b6000602082019050818103600083015261121a816111de565b9050919050565b7f4e487b7100000000000000000000000000000000000000000000000000000000600052601160045260246000fd5b600061125b82610bcf565b91507fffffffffffffffffffffffffffffffffffffffffffffffffffffffffffffffff820361128d5761128c611221565b5b600182019050919050565b600081905092915050565b60006112ae82610ccc565b6112b88185611298565b93506112c8818560208601610ce8565b80840191505092915050565b60006112e082846112a3565b915081905092915050565b60008190508160005260206000209050919050565b60006020601f8301049050919050565b600082821b905092915050565b60006008830261134d7fffffffffffffffffffffffffffffffffffffffffffffffffffffffffffffffff82611310565b6113578683611310565b95508019841693508086168417925050509392505050565b6000819050919050565b600061139461138f61138a84610bcf565b61136f565b610bcf565b9050919050565b6000819050919050565b6113ae83611379565b6113c26113ba8261139b565b84845461131d565b825550505050565b600090565b6113d76113ca565b6113e28184846113a5565b505050565b5b81811015611406576113fb6000826113cf565b6001810190506113e8565b5050565b601f82111561144b5761141c816112eb565b61142584611300565b81016020851015611434578190505b61144861144085611300565b8301826113e7565b50505b505050565b600082821c905092915050565b600061146e60001984600802611450565b1980831691505092915050565b6000611487838361145d565b9150826002028217905092915050565b6114a082610ccc565b67ffffffffffffffff8111156114b9576114b8610e92565b5b6114c38254611184565b6114ce82828561140a565b600060209050601f83116001811461150157600084156114ef578287015190505b6114f9858261147b565b865550611561565b601f19841661150f866112eb565b60005b8281101561153757848901518255600182019150602085019450602081019050611512565b868310156115545784890151611550601f89168261145d565b8355505b6001600288020188555050505b505050505050565b600060608201905061157e6000830186610bd9565b81810360208301526115908185610d23565b905061159f6040830184610c35565b949350505050565b7f4f6e6c7920676f7665726e6d656e742063616e20706572666f726d207468697360008201527f20616374696f6e00000000000000000000000000000000000000000000000000602082015250565b6000611603602783610cd7565b915061160e826115a7565b604082019050919050565b60006020820190508181036000830152611632816115f6565b9050919050565b7f55736572206e6f7420666f756e64000000000000000000000000000000000000600082015250565b600061166f600e83610cd7565b915061167a82611639565b602082019050919050565b6000602082019050818103600083015261169e81611662565b9050919050565b60006040820190506116ba6000830185610bd9565b6116c76020830184610c35565b9392505050565b600081546116db81611184565b6116e58186611298565b94506001821660008114611700576001811461171557611748565b60ff1983168652811515820286019350611748565b61171e856112eb565b60005b8381101561174057815481890152600182019150602081019050611721565b838801955050505b50505092915050565b600061175d82846116ce565b91508190509291505056fea2646970667358221220592c6439543b947efd350480e4a981c0bb38357866c0ccd60a5f485ef126e0c564736f6c63430008130033",
  "immutableReferences": {},
  "source": "// SPDX-License-Identifier: MIT\r\npragma solidity ^0.8.0;\r\n\r\ncontract UserManagement {\r\n    address public government = 0x8De289A68cd9f1DdB6edA5684cF9aac6C6311F60;\r\n\r\n    struct User {\r\n        uint id;\r\n        string email;\r\n        string name;\r\n        string cnic;\r\n        bytes32 passwordHash;\r\n        address wallet;\r\n        bool approvedByGovt;\r\n    }\r\n\r\n    mapping(address => bool) public registeredAddresses;\r\n    mapping(uint => User) public users;\r\n    mapping(address => uint) public userIdByAddress;\r\n    uint public userCount = 0;\r\n\r\n    event UserRegistered(uint userId, string email, address wallet);\r\n    event UserApproved(uint userId, address wallet);\r\n\r\n    modifier onlyGovernment() {\r\n        require(msg.sender == government, \"Only government can perform this action\");\r\n        _;\r\n    }\r\n\r\n    function registerUser(\r\n        string memory _email,\r\n        string memory _name,\r\n        string memory _cnic,\r\n        string memory _password\r\n    ) public {\r\n        require(!registeredAddresses[msg.sender], \"Address already registered!\");\r\n\r\n        userCount++;\r\n        users[userCount] = User(\r\n            userCount,\r\n            _email,\r\n            _name,\r\n            _cnic,\r\n            keccak256(abi.encodePacked(_password)),\r\n            msg.sender,\r\n            false\r\n        );\r\n\r\n        registeredAddresses[msg.sender] = true;\r\n        userIdByAddress[msg.sender] = userCount;\r\n\r\n        emit UserRegistered(userCount, _email, msg.sender);\r\n    }\r\n\r\n    function approveUser(address _userAddress) public onlyGovernment {\r\n        uint userId = userIdByAddress[_userAddress];\r\n        require(userId != 0, \"User not found\");\r\n\r\n        users[userId].approvedByGovt = true;\r\n        emit UserApproved(userId, _userAddress);\r\n    }\r\n\r\n    function verifyLogin(string memory _email, string memory _password) public view returns (bool) {\r\n        uint userId = getUserId(_email);\r\n        if (userId == 0) return false;\r\n\r\n        return users[userId].passwordHash == keccak256(abi.encodePacked(_password)) &&\r\n               users[userId].approvedByGovt;\r\n    }\r\n\r\n    function isRegistered(address _userAddress) public view returns (bool) {\r\n        return registeredAddresses[_userAddress];\r\n    }\r\n\r\n    function getUserWallet(string memory _email) public view returns (address) {\r\n        uint userId = getUserId(_email);\r\n        require(userId != 0, \"User not found\");\r\n        return users[userId].wallet;\r\n    }\r\n\r\n    function getUserId(string memory _email) public view returns (uint) {\r\n        for (uint i = 1; i <= userCount; i++) {\r\n            if (keccak256(abi.encodePacked(users[i].email)) == keccak256(abi.encodePacked(_email))) {\r\n                return i;\r\n            }\r\n        }\r\n        return 0;\r\n    }\r\n\r\n    function getUserIdByAddress(address _wallet) public view returns (uint) {\r\n        return userIdByAddress[_wallet];\r\n    }\r\n\r\n    // Internal helper function for other contracts to check user approval\r\n    function _isUserApproved(address _userAddress) internal view returns (bool) {\r\n        uint userId = userIdByAddress[_userAddress];\r\n        if (userId == 0) return false;\r\n        return users[userId].approvedByGovt;\r\n    }\r\n}",
  "sourcePath": "C:\\Users\\smume\\OneDrive\\Desktop\\New folder\\Vehicle-Registration-Blockchain-main\\Vehicle-Registration-Blockchain-main\\contracts\\UserManagement.sol",
  "compiler": {
    "name": "solc",
    "version": "0.8.19+commit.7dd6d404.Emscripten.clang"
  },
  "schemaVersion": "3.4.16",
  "updatedAt": "2025-05-23T06:39:44.036Z",
  "devdoc": {
    "kind": "dev",
    "methods": {},
    "version": 1
  },
  "userdoc": {
    "kind": "user",
    "methods": {},
    "version": 1
  }
}