{
  "contractName": "User",
  "abi": [
    {
      "anonymous": false,
      "inputs": [
        {
          "indexed": false,
          "internalType": "uint256",
          "name": "userId",
          "type": "uint256"
        },
        {
          "indexed": false,
          "internalType": "address",
          "name": "wallet",
          "type": "address"
        }
      ],
      "name": "UserApproved",
      "type": "event"
    },
    {
      "anonymous": false,
      "inputs": [
        {
          "indexed": false,
          "internalType": "uint256",
          "name": "userId",
          "type": "uint256"
        },
        {
          "indexed": false,
          "internalType": "string",
          "name": "email",
          "type": "string"
        },
        {
          "indexed": false,
          "internalType": "address",
          "name": "wallet",
          "type": "address"
        }
      ],
      "name": "UserRegistered",
      "type": "event"
    },
    {
      "inputs": [],
      "name": "government",
      "outputs": [
        {
          "internalType": "address",
          "name": "",
          "type": "address"
        }
      ],
      "stateMutability": "view",
      "type": "function"
    },
    {
      "inputs": [
        {
          "internalType": "address",
          "name": "",
          "type": "address"
        }
      ],
      "name": "registeredAddresses",
      "outputs": [
        {
          "internalType": "bool",
          "name": "",
          "type": "bool"
        }
      ],
      "stateMutability": "view",
      "type": "function"
    },
    {
      "inputs": [],
      "name": "userCount",
      "outputs": [
        {
          "internalType": "uint256",
          "name": "",
          "type": "uint256"
        }
      ],
      "stateMutability": "view",
      "type": "function"
    },
    {
      "inputs": [
        {
          "internalType": "address",
          "name": "",
          "type": "address"
        }
      ],
      "name": "userIdByAddress",
      "outputs": [
        {
          "internalType": "uint256",
          "name": "",
          "type": "uint256"
        }
      ],
      "stateMutability": "view",
      "type": "function"
    },
    {
      "inputs": [
        {
          "internalType": "uint256",
          "name": "",
          "type": "uint256"
        }
      ],
      "name": "users",
      "outputs": [
        {
          "internalType": "uint256",
          "name": "id",
          "type": "uint256"
        },
        {
          "internalType": "string",
          "name": "email",
          "type": "string"
        },
        {
          "internalType": "string",
          "name": "name",
          "type": "string"
        },
        {
          "internalType": "string",
          "name": "cnic",
          "type": "string"
        },
        {
          "internalType": "bytes32",
          "name": "passwordHash",
          "type": "bytes32"
        },
        {
          "internalType": "address",
          "name": "wallet",
          "type": "address"
        },
        {
          "internalType": "bool",
          "name": "approvedByGovt",
          "type": "bool"
        }
      ],
      "stateMutability": "view",
      "type": "function"
    },
    {
      "inputs": [
        {
          "internalType": "string",
          "name": "_email",
          "type": "string"
        },
        {
          "internalType": "string",
          "name": "_name",
          "type": "string"
        },
        {
          "internalType": "string",
          "name": "_cnic",
          "type": "string"
        },
        {
          "internalType": "string",
          "name": "_password",
          "type": "string"
        }
      ],
      "name": "registerUser",
      "outputs": [],
      "stateMutability": "nonpayable",
      "type": "function"
    },
    {
      "inputs": [
        {
          "internalType": "address",
          "name": "_userAddress",
          "type": "address"
        }
      ],
      "name": "approveUser",
      "outputs": [],
      "stateMutability": "nonpayable",
      "type": "function"
    },
    {
      "inputs": [
        {
          "internalType": "string",
          "name": "_email",
          "type": "string"
        },
        {
          "internalType": "string",
          "name": "_password",
          "type": "string"
        }
      ],
      "name": "verifyLogin",
      "outputs": [
        {
          "internalType": "bool",
          "name": "",
          "type": "bool"
        }
      ],
      "stateMutability": "view",
      "type": "function"
    },
    {
      "inputs": [
        {
          "internalType": "address",
          "name": "_userAddress",
          "type": "address"
        }
      ],
      "name": "isRegistered",
      "outputs": [
        {
          "internalType": "bool",
          "name": "",
          "type": "bool"
        }
      ],
      "stateMutability": "view",
      "type": "function"
    },
    {
      "inputs": [
        {
          "internalType": "string",
          "name": "_email",
          "type": "string"
        }
      ],
      "name": "getUserWallet",
      "outputs": [
        {
          "internalType": "address",
          "name": "",
          "type": "address"
        }
      ],
      "stateMutability": "view",
      "type": "function"
    },
    {
      "inputs": [
        {
          "internalType": "string",
          "name": "_email",
          "type": "string"
        }
      ],
      "name": "getUserId",
      "outputs": [
        {
          "internalType": "uint256",
          "name": "",
          "type": "uint256"
        }
      ],
      "stateMutability": "view",
      "type": "function"
    },
    {
      "inputs": [
        {
          "internalType": "address",
          "name": "_wallet",
          "type": "address"
        }
      ],
      "name": "getUserIdByAddress",
      "outputs": [
        {
          "internalType": "uint256",
          "name": "",
          "type": "uint256"
        }
      ],
      "stateMutability": "view",
      "type": "function"
    },
    {
      "inputs": [
        {
          "internalType": "address",
          "name": "_userAddress",
          "type": "address"
        }
      ],
      "name": "isUserApproved",
      "outputs": [
        {
          "internalType": "bool",
          "name": "",
          "type": "bool"
        }
      ],
      "stateMutability": "view",
      "type": "function"
    }
  ],
  "bytecode": "0x6080604052738de289a68cd9f1ddb6eda5684cf9aac6c6311f606000806101000a81548173ffffffffffffffffffffffffffffffffffffffff021916908373ffffffffffffffffffffffffffffffffffffffff160217905550600060045534801561006957600080fd5b5061186d806100796000396000f3fe608060405234801561001057600080fd5b50600436106100cf5760003560e01c806376b22eac1161008c578063c3c5a54711610066578063c3c5a54714610252578063d624fdb614610282578063db1ef71f1461029e578063e5775515146102ce576100cf565b806376b22eac146101d657806393e54a5614610206578063be90947a14610222576100cf565b806307973ccf146100d45780632672f526146100f2578063365b98b214610110578063385399f9146101465780634b75908814610176578063529d6ccf146101a6575b600080fd5b6100dc6102fe565b6040516100e99190610cb7565b60405180910390f35b6100fa610304565b6040516101079190610d13565b60405180910390f35b61012a60048036038101906101259190610d6e565b610328565b60405161013d9796959493929190610e5f565b60405180910390f35b610160600480360381019061015b9190610f0f565b61052f565b60405161016d9190610cb7565b60405180910390f35b610190600480360381019061018b9190610f0f565b610578565b60405161019d9190610cb7565b60405180910390f35b6101c060048036038101906101bb9190610f0f565b610590565b6040516101cd9190610f3c565b60405180910390f35b6101f060048036038101906101eb9190610f0f565b610614565b6040516101fd9190610f3c565b60405180910390f35b610220600480360381019061021b919061108c565b610634565b005b61023c60048036038101906102379190611163565b610902565b6040516102499190610f3c565b60405180910390f35b61026c60048036038101906102679190610f0f565b610997565b6040516102799190610f3c565b60405180910390f35b61029c60048036038101906102979190610f0f565b6109ed565b005b6102b860048036038101906102b391906111db565b610b6e565b6040516102c59190610cb7565b60405180910390f35b6102e860048036038101906102e391906111db565b610c0e565b6040516102f59190610d13565b60405180910390f35b60045481565b60008054906101000a900473ffffffffffffffffffffffffffffffffffffffff1681565b600260205280600052604060002060009150905080600001549080600101805461035190611253565b80601f016020809104026020016040519081016040528092919081815260200182805461037d90611253565b80156103ca5780601f1061039f576101008083540402835291602001916103ca565b820191906000526020600020905b8154815290600101906020018083116103ad57829003601f168201915b5050505050908060020180546103df90611253565b80601f016020809104026020016040519081016040528092919081815260200182805461040b90611253565b80156104585780601f1061042d57610100808354040283529160200191610458565b820191906000526020600020905b81548152906001019060200180831161043b57829003601f168201915b50505050509080600301805461046d90611253565b80601f016020809104026020016040519081016040528092919081815260200182805461049990611253565b80156104e65780601f106104bb576101008083540402835291602001916104e6565b820191906000526020600020905b8154815290600101906020018083116104c957829003601f168201915b5050505050908060040154908060050160009054906101000a900473ffffffffffffffffffffffffffffffffffffffff16908060050160149054906101000a900460ff16905087565b6000600360008373ffffffffffffffffffffffffffffffffffffffff1673ffffffffffffffffffffffffffffffffffffffff168152602001908152602001600020549050919050565b60036020528060005260406000206000915090505481565b600080600360008473ffffffffffffffffffffffffffffffffffffffff1673ffffffffffffffffffffffffffffffffffffffff168152602001908152602001600020549050600081036105e757600091505061060f565b6002600082815260200190815260200160002060050160149054906101000a900460ff169150505b919050565b60016020528060005260406000206000915054906101000a900460ff1681565b600160003373ffffffffffffffffffffffffffffffffffffffff1673ffffffffffffffffffffffffffffffffffffffff16815260200190815260200160002060009054906101000a900460ff16156106c1576040517f08c379a00000000000000000000000000000000000000000000000000000000081526004016106b8906112d0565b60405180910390fd5b600460008154809291906106d49061131f565b91905055506040518060e0016040528060045481526020018581526020018481526020018381526020018260405160200161070f91906113a3565b6040516020818303038152906040528051906020012081526020013373ffffffffffffffffffffffffffffffffffffffff168152602001600015158152506002600060045481526020019081526020016000206000820151816000015560208201518160010190816107819190611566565b5060408201518160020190816107979190611566565b5060608201518160030190816107ad9190611566565b506080820151816004015560a08201518160050160006101000a81548173ffffffffffffffffffffffffffffffffffffffff021916908373ffffffffffffffffffffffffffffffffffffffff16021790555060c08201518160050160146101000a81548160ff02191690831515021790555090505060018060003373ffffffffffffffffffffffffffffffffffffffff1673ffffffffffffffffffffffffffffffffffffffff16815260200190815260200160002060006101000a81548160ff021916908315150217905550600454600360003373ffffffffffffffffffffffffffffffffffffffff1673ffffffffffffffffffffffffffffffffffffffff168152602001908152602001600020819055507ff9f470b753810725157b794665955ed6428420a93ae28c045cc736ff3306848f60045485336040516108f493929190611638565b60405180910390a150505050565b60008061090e84610b6e565b905060008103610922576000915050610991565b8260405160200161093391906113a3565b60405160208183030381529060405280519060200120600260008381526020019081526020016000206004015414801561098d57506002600082815260200190815260200160002060050160149054906101000a900460ff165b9150505b92915050565b6000600160008373ffffffffffffffffffffffffffffffffffffffff1673ffffffffffffffffffffffffffffffffffffffff16815260200190815260200160002060009054906101000a900460ff169050919050565b60008054906101000a900473ffffffffffffffffffffffffffffffffffffffff1673ffffffffffffffffffffffffffffffffffffffff163373ffffffffffffffffffffffffffffffffffffffff1614610a7b576040517f08c379a0000000000000000000000000000000000000000000000000000000008152600401610a72906116e8565b60405180910390fd5b6000600360008373ffffffffffffffffffffffffffffffffffffffff1673ffffffffffffffffffffffffffffffffffffffff16815260200190815260200160002054905060008103610b02576040517f08c379a0000000000000000000000000000000000000000000000000000000008152600401610af990611754565b60405180910390fd5b60016002600083815260200190815260200160002060050160146101000a81548160ff0219169083151502179055507fb435ccfdf94417a9bbf268346b63899f30e15fc0532649688f86a389041b2bf38183604051610b62929190611774565b60405180910390a15050565b600080600190505b6004548111610c035782604051602001610b9091906113a3565b6040516020818303038152906040528051906020012060026000838152602001908152602001600020600101604051602001610bcc9190611820565b6040516020818303038152906040528051906020012003610bf05780915050610c09565b8080610bfb9061131f565b915050610b76565b50600090505b919050565b600080610c1a83610b6e565b905060008103610c5f576040517f08c379a0000000000000000000000000000000000000000000000000000000008152600401610c5690611754565b60405180910390fd5b6002600082815260200190815260200160002060050160009054906101000a900473ffffffffffffffffffffffffffffffffffffffff16915050919050565b6000819050919050565b610cb181610c9e565b82525050565b6000602082019050610ccc6000830184610ca8565b92915050565b600073ffffffffffffffffffffffffffffffffffffffff82169050919050565b6000610cfd82610cd2565b9050919050565b610d0d81610cf2565b82525050565b6000602082019050610d286000830184610d04565b92915050565b6000604051905090565b600080fd5b600080fd5b610d4b81610c9e565b8114610d5657600080fd5b50565b600081359050610d6881610d42565b92915050565b600060208284031215610d8457610d83610d38565b5b6000610d9284828501610d59565b91505092915050565b600081519050919050565b600082825260208201905092915050565b60005b83811015610dd5578082015181840152602081019050610dba565b60008484015250505050565b6000601f19601f8301169050919050565b6000610dfd82610d9b565b610e078185610da6565b9350610e17818560208601610db7565b610e2081610de1565b840191505092915050565b6000819050919050565b610e3e81610e2b565b82525050565b60008115159050919050565b610e5981610e44565b82525050565b600060e082019050610e74600083018a610ca8565b8181036020830152610e868189610df2565b90508181036040830152610e9a8188610df2565b90508181036060830152610eae8187610df2565b9050610ebd6080830186610e35565b610eca60a0830185610d04565b610ed760c0830184610e50565b98975050505050505050565b610eec81610cf2565b8114610ef757600080fd5b50565b600081359050610f0981610ee3565b92915050565b600060208284031215610f2557610f24610d38565b5b6000610f3384828501610efa565b91505092915050565b6000602082019050610f516000830184610e50565b92915050565b600080fd5b600080fd5b7f4e487b7100000000000000000000000000000000000000000000000000000000600052604160045260246000fd5b610f9982610de1565b810181811067ffffffffffffffff82111715610fb857610fb7610f61565b5b80604052505050565b6000610fcb610d2e565b9050610fd78282610f90565b919050565b600067ffffffffffffffff821115610ff757610ff6610f61565b5b61100082610de1565b9050602081019050919050565b82818337600083830152505050565b600061102f61102a84610fdc565b610fc1565b90508281526020810184848401111561104b5761104a610f5c565b5b61105684828561100d565b509392505050565b600082601f83011261107357611072610f57565b5b813561108384826020860161101c565b91505092915050565b600080600080608085870312156110a6576110a5610d38565b5b600085013567ffffffffffffffff8111156110c4576110c3610d3d565b5b6110d08782880161105e565b945050602085013567ffffffffffffffff8111156110f1576110f0610d3d565b5b6110fd8782880161105e565b935050604085013567ffffffffffffffff81111561111e5761111d610d3d565b5b61112a8782880161105e565b925050606085013567ffffffffffffffff81111561114b5761114a610d3d565b5b6111578782880161105e565b91505092959194509250565b6000806040838503121561117a57611179610d38565b5b600083013567ffffffffffffffff81111561119857611197610d3d565b5b6111a48582860161105e565b925050602083013567ffffffffffffffff8111156111c5576111c4610d3d565b5b6111d18582860161105e565b9150509250929050565b6000602082840312156111f1576111f0610d38565b5b600082013567ffffffffffffffff81111561120f5761120e610d3d565b5b61121b8482850161105e565b91505092915050565b7f4e487b7100000000000000000000000000000000000000000000000000000000600052602260045260246000fd5b6000600282049050600182168061126b57607f821691505b60208210810361127e5761127d611224565b5b50919050565b7f4164647265737320616c72656164792072656769737465726564210000000000600082015250565b60006112ba601b83610da6565b91506112c582611284565b602082019050919050565b600060208201905081810360008301526112e9816112ad565b9050919050565b7f4e487b7100000000000000000000000000000000000000000000000000000000600052601160045260246000fd5b600061132a82610c9e565b91507fffffffffffffffffffffffffffffffffffffffffffffffffffffffffffffffff820361135c5761135b6112f0565b5b600182019050919050565b600081905092915050565b600061137d82610d9b565b6113878185611367565b9350611397818560208601610db7565b80840191505092915050565b60006113af8284611372565b915081905092915050565b60008190508160005260206000209050919050565b60006020601f8301049050919050565b600082821b905092915050565b60006008830261141c7fffffffffffffffffffffffffffffffffffffffffffffffffffffffffffffffff826113df565b61142686836113df565b95508019841693508086168417925050509392505050565b6000819050919050565b600061146361145e61145984610c9e565b61143e565b610c9e565b9050919050565b6000819050919050565b61147d83611448565b6114916114898261146a565b8484546113ec565b825550505050565b600090565b6114a6611499565b6114b1818484611474565b505050565b5b818110156114d5576114ca60008261149e565b6001810190506114b7565b5050565b601f82111561151a576114eb816113ba565b6114f4846113cf565b81016020851015611503578190505b61151761150f856113cf565b8301826114b6565b50505b505050565b600082821c905092915050565b600061153d6000198460080261151f565b1980831691505092915050565b6000611556838361152c565b9150826002028217905092915050565b61156f82610d9b565b67ffffffffffffffff81111561158857611587610f61565b5b6115928254611253565b61159d8282856114d9565b600060209050601f8311600181146115d057600084156115be578287015190505b6115c8858261154a565b865550611630565b601f1984166115de866113ba565b60005b82811015611606578489015182556001820191506020850194506020810190506115e1565b86831015611623578489015161161f601f89168261152c565b8355505b6001600288020188555050505b505050505050565b600060608201905061164d6000830186610ca8565b818103602083015261165f8185610df2565b905061166e6040830184610d04565b949350505050565b7f4f6e6c7920676f7665726e6d656e742063616e20706572666f726d207468697360008201527f20616374696f6e00000000000000000000000000000000000000000000000000602082015250565b60006116d2602783610da6565b91506116dd82611676565b604082019050919050565b60006020820190508181036000830152611701816116c5565b9050919050565b7f55736572206e6f7420666f756e64000000000000000000000000000000000000600082015250565b600061173e600e83610da6565b915061174982611708565b602082019050919050565b6000602082019050818103600083015261176d81611731565b9050919050565b60006040820190506117896000830185610ca8565b6117966020830184610d04565b9392505050565b600081546117aa81611253565b6117b48186611367565b945060018216600081146117cf57600181146117e457611817565b60ff1983168652811515820286019350611817565b6117ed856113ba565b60005b8381101561180f578154818901526001820191506020810190506117f0565b838801955050505b50505092915050565b600061182c828461179d565b91508190509291505056fea264697066735822122034d00c994593ece9c701b64dbfddc2927c5dcfe2a63eb1a61fcc06cedec74ecb64736f6c63430008130033",
  "immutableReferences": {},
  "source": "// SPDX-License-Identifier: MIT\r\npragma solidity ^0.8.0;\r\n\r\ncontract User {\r\n    address public government = 0x8De289A68cd9f1DdB6edA5684cF9aac6C6311F60;\r\n\r\n    struct UserStruct {\r\n        uint id;\r\n        string email;\r\n        string name;\r\n        string cnic;\r\n        bytes32 passwordHash;\r\n        address wallet;\r\n        bool approvedByGovt;\r\n    }\r\n\r\n    mapping(address => bool) public registeredAddresses;\r\n    mapping(uint => UserStruct) public users;\r\n    mapping(address => uint) public userIdByAddress;\r\n    uint public userCount = 0;\r\n\r\n    event UserRegistered(uint userId, string email, address wallet);\r\n    event UserApproved(uint userId, address wallet);\r\n\r\n    modifier onlyGovernment() {\r\n        require(msg.sender == government, \"Only government can perform this action\");\r\n        _;\r\n    }\r\n\r\n    function registerUser(\r\n        string memory _email,\r\n        string memory _name,\r\n        string memory _cnic,\r\n        string memory _password\r\n    ) public {\r\n        require(!registeredAddresses[msg.sender], \"Address already registered!\");\r\n\r\n        userCount++;\r\n        users[userCount] = UserStruct(\r\n            userCount,\r\n            _email,\r\n            _name,\r\n            _cnic,\r\n            keccak256(abi.encodePacked(_password)),\r\n            msg.sender,\r\n            false\r\n        );\r\n\r\n        registeredAddresses[msg.sender] = true;\r\n        userIdByAddress[msg.sender] = userCount;\r\n\r\n        emit UserRegistered(userCount, _email, msg.sender);\r\n    }\r\n\r\n    function approveUser(address _userAddress) public onlyGovernment {\r\n        uint userId = userIdByAddress[_userAddress];\r\n        require(userId != 0, \"User not found\");\r\n\r\n        users[userId].approvedByGovt = true;\r\n        emit UserApproved(userId, _userAddress);\r\n    }\r\n\r\n    function verifyLogin(string memory _email, string memory _password) public view returns (bool) {\r\n        uint userId = getUserId(_email);\r\n        if (userId == 0) return false;\r\n\r\n        return users[userId].passwordHash == keccak256(abi.encodePacked(_password)) &&\r\n               users[userId].approvedByGovt;\r\n    }\r\n\r\n    function isRegistered(address _userAddress) public view returns (bool) {\r\n        return registeredAddresses[_userAddress];\r\n    }\r\n\r\n    function getUserWallet(string memory _email) public view returns (address) {\r\n        uint userId = getUserId(_email);\r\n        require(userId != 0, \"User not found\");\r\n        return users[userId].wallet;\r\n    }\r\n\r\n    function getUserId(string memory _email) public view returns (uint) {\r\n        for (uint i = 1; i <= userCount; i++) {\r\n            if (keccak256(abi.encodePacked(users[i].email)) == keccak256(abi.encodePacked(_email))) {\r\n                return i;\r\n            }\r\n        }\r\n        return 0;\r\n    }\r\n\r\n    function getUserIdByAddress(address _wallet) public view returns (uint) {\r\n        return userIdByAddress[_wallet];\r\n    }\r\n\r\n    function isUserApproved(address _userAddress) public view returns (bool) {\r\n        uint userId = userIdByAddress[_userAddress];\r\n        if (userId == 0) return false;\r\n        return users[userId].approvedByGovt;\r\n    }\r\n}",
  "sourcePath": "C:\\Users\\smume\\OneDrive\\Desktop\\New folder\\Vehicle-Registration-Blockchain-main\\Vehicle-Registration-Blockchain-main\\contracts\\User.sol",
  "compiler": {
    "name": "solc",
    "version": "0.8.19+commit.7dd6d404.Emscripten.clang"
  },
  "schemaVersion": "3.4.16",
  "updatedAt": "2025-05-23T06:25:32.611Z",
  "devdoc": {
    "kind": "dev",
    "methods": {},
    "version": 1
  },
  "userdoc": {
    "kind": "user",
    "methods": {},
    "version": 1
  }
}