{
  "contractName": "Vehicle",
  "abi": [
    {
      "inputs": [
        {
          "internalType": "address",
          "name": "_userContractAddress",
          "type": "address"
        }
      ],
      "stateMutability": "nonpayable",
      "type": "constructor"
    },
    {
      "anonymous": false,
      "inputs": [
        {
          "indexed": false,
          "internalType": "uint256",
          "name": "requestId",
          "type": "uint256"
        },
        {
          "indexed": false,
          "internalType": "string",
          "name": "vehicleNo",
          "type": "string"
        },
        {
          "indexed": false,
          "internalType": "address",
          "name": "oldOwner",
          "type": "address"
        },
        {
          "indexed": false,
          "internalType": "address",
          "name": "newOwner",
          "type": "address"
        }
      ],
      "name": "OwnershipTransferApproved",
      "type": "event"
    },
    {
      "anonymous": false,
      "inputs": [
        {
          "indexed": false,
          "internalType": "uint256",
          "name": "requestId",
          "type": "uint256"
        },
        {
          "indexed": false,
          "internalType": "string",
          "name": "vehicleNo",
          "type": "string"
        },
        {
          "indexed": false,
          "internalType": "string",
          "name": "vin",
          "type": "string"
        },
        {
          "indexed": false,
          "internalType": "uint256",
          "name": "registrationId",
          "type": "uint256"
        },
        {
          "indexed": false,
          "internalType": "address",
          "name": "currentOwner",
          "type": "address"
        },
        {
          "indexed": false,
          "internalType": "address",
          "name": "newOwner",
          "type": "address"
        }
      ],
      "name": "OwnershipTransferRequested",
      "type": "event"
    },
    {
      "anonymous": false,
      "inputs": [
        {
          "indexed": false,
          "internalType": "uint256",
          "name": "registerId",
          "type": "uint256"
        },
        {
          "indexed": false,
          "internalType": "address",
          "name": "oldOwner",
          "type": "address"
        },
        {
          "indexed": false,
          "internalType": "address",
          "name": "newOwner",
          "type": "address"
        }
      ],
      "name": "OwnershipTransferred",
      "type": "event"
    },
    {
      "anonymous": false,
      "inputs": [
        {
          "indexed": false,
          "internalType": "uint256",
          "name": "registerId",
          "type": "uint256"
        },
        {
          "indexed": false,
          "internalType": "string",
          "name": "vehicleNo",
          "type": "string"
        },
        {
          "indexed": false,
          "internalType": "string",
          "name": "vin",
          "type": "string"
        },
        {
          "indexed": false,
          "internalType": "address",
          "name": "ownerWallet",
          "type": "address"
        }
      ],
      "name": "VehicleApproved",
      "type": "event"
    },
    {
      "anonymous": false,
      "inputs": [
        {
          "indexed": false,
          "internalType": "uint256",
          "name": "vehicleId",
          "type": "uint256"
        },
        {
          "indexed": false,
          "internalType": "string",
          "name": "vehicleNo",
          "type": "string"
        },
        {
          "indexed": false,
          "internalType": "address",
          "name": "recoveredBy",
          "type": "address"
        }
      ],
      "name": "VehicleRecovered",
      "type": "event"
    },
    {
      "anonymous": false,
      "inputs": [
        {
          "indexed": false,
          "internalType": "uint256",
          "name": "registerId",
          "type": "uint256"
        },
        {
          "indexed": false,
          "internalType": "string",
          "name": "vehicleNo",
          "type": "string"
        },
        {
          "indexed": false,
          "internalType": "string",
          "name": "vin",
          "type": "string"
        },
        {
          "indexed": false,
          "internalType": "address",
          "name": "ownerWallet",
          "type": "address"
        }
      ],
      "name": "VehicleRegistered",
      "type": "event"
    },
    {
      "anonymous": false,
      "inputs": [
        {
          "indexed": false,
          "internalType": "uint256",
          "name": "vehicleId",
          "type": "uint256"
        },
        {
          "indexed": false,
          "internalType": "string",
          "name": "vehicleNo",
          "type": "string"
        },
        {
          "indexed": false,
          "internalType": "address",
          "name": "reportedBy",
          "type": "address"
        }
      ],
      "name": "VehicleReportedStolen",
      "type": "event"
    },
    {
      "inputs": [],
      "name": "government",
      "outputs": [
        {
          "internalType": "address",
          "name": "",
          "type": "address"
        }
      ],
      "stateMutability": "view",
      "type": "function"
    },
    {
      "inputs": [
        {
          "internalType": "string",
          "name": "",
          "type": "string"
        }
      ],
      "name": "registeredVehicles",
      "outputs": [
        {
          "internalType": "bool",
          "name": "",
          "type": "bool"
        }
      ],
      "stateMutability": "view",
      "type": "function"
    },
    {
      "inputs": [
        {
          "internalType": "string",
          "name": "",
          "type": "string"
        }
      ],
      "name": "registeredVehiclesvin",
      "outputs": [
        {
          "internalType": "bool",
          "name": "",
          "type": "bool"
        }
      ],
      "stateMutability": "view",
      "type": "function"
    },
    {
      "inputs": [],
      "name": "registrationCount",
      "outputs": [
        {
          "internalType": "uint256",
          "name": "",
          "type": "uint256"
        }
      ],
      "stateMutability": "view",
      "type": "function"
    },
    {
      "inputs": [],
      "name": "transferRequestCount",
      "outputs": [
        {
          "internalType": "uint256",
          "name": "",
          "type": "uint256"
        }
      ],
      "stateMutability": "view",
      "type": "function"
    },
    {
      "inputs": [
        {
          "internalType": "uint256",
          "name": "",
          "type": "uint256"
        }
      ],
      "name": "transferRequests",
      "outputs": [
        {
          "internalType": "uint256",
          "name": "registrationId",
          "type": "uint256"
        },
        {
          "internalType": "address",
          "name": "currentOwner",
          "type": "address"
        },
        {
          "internalType": "address",
          "name": "newOwner",
          "type": "address"
        },
        {
          "internalType": "bool",
          "name": "approved",
          "type": "bool"
        },
        {
          "internalType": "bool",
          "name": "completed",
          "type": "bool"
        }
      ],
      "stateMutability": "view",
      "type": "function"
    },
    {
      "inputs": [],
      "name": "userContract",
      "outputs": [
        {
          "internalType": "contract User",
          "name": "",
          "type": "address"
        }
      ],
      "stateMutability": "view",
      "type": "function"
    },
    {
      "inputs": [
        {
          "internalType": "uint256",
          "name": "",
          "type": "uint256"
        }
      ],
      "name": "vehicleRegistrations",
      "outputs": [
        {
          "internalType": "uint256",
          "name": "id",
          "type": "uint256"
        },
        {
          "internalType": "address",
          "name": "ownerWallet",
          "type": "address"
        },
        {
          "internalType": "string",
          "name": "vehicleNo",
          "type": "string"
        },
        {
          "internalType": "string",
          "name": "vin",
          "type": "string"
        },
        {
          "internalType": "string",
          "name": "vehicleMake",
          "type": "string"
        },
        {
          "internalType": "string",
          "name": "vehicleModel",
          "type": "string"
        },
        {
          "internalType": "string",
          "name": "vehicleModelYear",
          "type": "string"
        },
        {
          "internalType": "string",
          "name": "vehicleRegistrationYear",
          "type": "string"
        },
        {
          "internalType": "bool",
          "name": "approved",
          "type": "bool"
        },
        {
          "internalType": "string",
          "name": "documentHash",
          "type": "string"
        },
        {
          "internalType": "string",
          "name": "imageHash",
          "type": "string"
        },
        {
          "internalType": "bool",
          "name": "isStolen",
          "type": "bool"
        }
      ],
      "stateMutability": "view",
      "type": "function"
    },
    {
      "inputs": [
        {
          "internalType": "address",
          "name": "_ownerWallet",
          "type": "address"
        },
        {
          "internalType": "string",
          "name": "_vehicleNo",
          "type": "string"
        },
        {
          "internalType": "string",
          "name": "_vin",
          "type": "string"
        },
        {
          "internalType": "string",
          "name": "_vehicleMake",
          "type": "string"
        },
        {
          "internalType": "string",
          "name": "_vehicleModel",
          "type": "string"
        },
        {
          "internalType": "string",
          "name": "_vehicleModelYear",
          "type": "string"
        },
        {
          "internalType": "string",
          "name": "_vehicleRegistrationYear",
          "type": "string"
        },
        {
          "internalType": "string",
          "name": "_documentHash",
          "type": "string"
        },
        {
          "internalType": "string",
          "name": "_imageHash",
          "type": "string"
        }
      ],
      "name": "registerVehicle",
      "outputs": [],
      "stateMutability": "nonpayable",
      "type": "function"
    },
    {
      "inputs": [
        {
          "internalType": "uint256",
          "name": "_registerId",
          "type": "uint256"
        }
      ],
      "name": "approveVehicle",
      "outputs": [],
      "stateMutability": "nonpayable",
      "type": "function"
    },
    {
      "inputs": [
        {
          "internalType": "string",
          "name": "_vehicleNo",
          "type": "string"
        }
      ],
      "name": "vehicleExists",
      "outputs": [
        {
          "internalType": "bool",
          "name": "",
          "type": "bool"
        }
      ],
      "stateMutability": "view",
      "type": "function"
    },
    {
      "inputs": [
        {
          "internalType": "string",
          "name": "_vin",
          "type": "string"
        }
      ],
      "name": "vinExist",
      "outputs": [
        {
          "internalType": "bool",
          "name": "",
          "type": "bool"
        }
      ],
      "stateMutability": "view",
      "type": "function"
    },
    {
      "inputs": [
        {
          "internalType": "string",
          "name": "_vehicleNo",
          "type": "string"
        },
        {
          "internalType": "address",
          "name": "_newOwnerWallet",
          "type": "address"
        }
      ],
      "name": "requestOwnershipTransfer",
      "outputs": [],
      "stateMutability": "nonpayable",
      "type": "function"
    },
    {
      "inputs": [
        {
          "internalType": "uint256",
          "name": "_requestId",
          "type": "uint256"
        }
      ],
      "name": "approveOwnershipTransfer",
      "outputs": [],
      "stateMutability": "nonpayable",
      "type": "function"
    },
    {
      "inputs": [
        {
          "internalType": "uint256",
          "name": "_vehicleId",
          "type": "uint256"
        }
      ],
      "name": "reportVehicleStolen",
      "outputs": [],
      "stateMutability": "nonpayable",
      "type": "function"
    },
    {
      "inputs": [
        {
          "internalType": "uint256",
          "name": "_vehicleId",
          "type": "uint256"
        }
      ],
      "name": "markVehicleRecovered",
      "outputs": [],
      "stateMutability": "nonpayable",
      "type": "function"
    },
    {
      "inputs": [
        {
          "internalType": "uint256",
          "name": "_vehicleId",
          "type": "uint256"
        }
      ],
      "name": "isVehicleStolen",
      "outputs": [
        {
          "internalType": "bool",
          "name": "",
          "type": "bool"
        }
      ],
      "stateMutability": "view",
      "type": "function"
    },
    {
      "inputs": [],
      "name": "getStolenVehicles",
      "outputs": [
        {
          "internalType": "uint256[]",
          "name": "",
          "type": "uint256[]"
        }
      ],
      "stateMutability": "view",
      "type": "function"
    },
    {
      "inputs": [
        {
          "internalType": "string",
          "name": "_vehicleNo",
          "type": "string"
        }
      ],
      "name": "getVehicleId",
      "outputs": [
        {
          "internalType": "uint256",
          "name": "",
          "type": "uint256"
        }
      ],
      "stateMutability": "view",
      "type": "function"
    },
    {
      "inputs": [
        {
          "internalType": "address",
          "name": "_ownerWallet",
          "type": "address"
        }
      ],
      "name": "getVehicleByWallet",
      "outputs": [
        {
          "internalType": "uint256",
          "name": "id",
          "type": "uint256"
        },
        {
          "internalType": "string",
          "name": "vehicleNo",
          "type": "string"
        },
        {
          "internalType": "string",
          "name": "vin",
          "type": "string"
        },
        {
          "internalType": "string",
          "name": "vehicleMake",
          "type": "string"
        },
        {
          "internalType": "string",
          "name": "vehicleModel",
          "type": "string"
        },
        {
          "internalType": "string",
          "name": "vehicleModelYear",
          "type": "string"
        },
        {
          "internalType": "string",
          "name": "vehicleRegistrationYear",
          "type": "string"
        },
        {
          "internalType": "bool",
          "name": "approved",
          "type": "bool"
        },
        {
          "internalType": "string",
          "name": "documentHash",
          "type": "string"
        },
        {
          "internalType": "string",
          "name": "imageHash",
          "type": "string"
        },
        {
          "internalType": "bool",
          "name": "isStolen",
          "type": "bool"
        }
      ],
      "stateMutability": "view",
      "type": "function"
    },
    {
      "inputs": [
        {
          "internalType": "uint256",
          "name": "_requestId",
          "type": "uint256"
        }
      ],
      "name": "getTransferRequest",
      "outputs": [
        {
          "internalType": "uint256",
          "name": "registrationId",
          "type": "uint256"
        },
        {
          "internalType": "address",
          "name": "currentOwner",
          "type": "address"
        },
        {
          "internalType": "address",
          "name": "newOwner",
          "type": "address"
        },
        {
          "internalType": "bool",
          "name": "approved",
          "type": "bool"
        },
        {
          "internalType": "bool",
          "name": "completed",
          "type": "bool"
        }
      ],
      "stateMutability": "view",
      "type": "function"
    },
    {
      "inputs": [
        {
          "internalType": "uint256",
          "name": "_vehicleId",
          "type": "uint256"
        }
      ],
      "name": "getVehicleOwnershipHistory",
      "outputs": [
        {
          "internalType": "address[]",
          "name": "owners",
          "type": "address[]"
        },
        {
          "internalType": "uint256[]",
          "name": "dates",
          "type": "uint256[]"
        }
      ],
      "stateMutability": "view",
      "type": "function"
    }
  ],
  "bytecode": "0x6080604052738de289a68cd9f1ddb6eda5684cf9aac6c6311f606000806101000a81548173ffffffffffffffffffffffffffffffffffffffff021916908373ffffffffffffffffffffffffffffffffffffffff160217905550600060035560006007553480156200006f57600080fd5b506040516200514f3803806200514f833981810160405281019062000095919062000147565b80600160006101000a81548173ffffffffffffffffffffffffffffffffffffffff021916908373ffffffffffffffffffffffffffffffffffffffff1602179055505062000179565b600080fd5b600073ffffffffffffffffffffffffffffffffffffffff82169050919050565b60006200010f82620000e2565b9050919050565b620001218162000102565b81146200012d57600080fd5b50565b600081519050620001418162000116565b92915050565b60006020828403121562000160576200015f620000dd565b5b6000620001708482850162000130565b91505092915050565b614fc680620001896000396000f3fe608060405234801561001057600080fd5b50600436106101425760003560e01c8063708fdb96116100b8578063b2dd18f41161007c578063b2dd18f4146103c2578063c3214f07146103f2578063d2d50eab1461040e578063e41b9cf51461042c578063ee2c29b014610448578063fe5f8d121461048357610142565b8063708fdb96146102e25780637a5625d9146102fe57806388401aba1461032e57806397f0f8501461035e57806399807e4c1461038e57610142565b80632b18724a1161010a5780632b18724a146101ef578063309520ff1461020d578063321918a71461023d5780635000596b1461027757806357b871dc146102955780635d26c72e146102b157610142565b806303486c40146101475780630d3eafd61461017b5780632577233e146101995780632672f526146101b55780632977f01c146101d3575b600080fd5b610161600480360381019061015c91906132eb565b6104b3565b604051610172959493929190613383565b60405180910390f35b610183610543565b60405161019091906133d6565b60405180910390f35b6101b360048036038101906101ae91906132eb565b610549565b005b6101bd610a83565b6040516101ca91906133f1565b60405180910390f35b6101ed60048036038101906101e891906132eb565b610aa7565b005b6101f7610c6b565b60405161020491906134ca565b60405180910390f35b61022760048036038101906102229190613632565b610e14565b604051610234919061367b565b60405180910390f35b610257600480360381019061025291906136c2565b610e49565b60405161026e9b9a9998979695949392919061376e565b60405180910390f35b61027f6115b8565b60405161028c91906138b0565b60405180910390f35b6102af60048036038101906102aa91906138cb565b6115de565b005b6102cb60048036038101906102c691906132eb565b611bf1565b6040516102d99291906139e5565b60405180910390f35b6102fc60048036038101906102f79190613a1c565b611d48565b005b61031860048036038101906103139190613632565b6124a4565b60405161032591906133d6565b60405180910390f35b61034860048036038101906103439190613632565b612544565b604051610355919061367b565b60405180910390f35b61037860048036038101906103739190613632565b61257a565b604051610385919061367b565b60405180910390f35b6103a860048036038101906103a391906132eb565b6125b0565b6040516103b9959493929190613383565b60405180910390f35b6103dc60048036038101906103d79190613632565b612743565b6040516103e9919061367b565b60405180910390f35b61040c600480360381019061040791906132eb565b612778565b005b610416612a10565b60405161042391906133d6565b60405180910390f35b610446600480360381019061044191906132eb565b612a16565b005b610462600480360381019061045d91906132eb565b612c56565b60405161047a9c9b9a99989796959493929190613bc6565b60405180910390f35b61049d600480360381019061049891906132eb565b613130565b6040516104aa919061367b565b60405180910390f35b60066020528060005260406000206000915090508060000154908060010160009054906101000a900473ffffffffffffffffffffffffffffffffffffffff16908060020160009054906101000a900473ffffffffffffffffffffffffffffffffffffffff16908060020160149054906101000a900460ff16908060020160159054906101000a900460ff16905085565b60035481565b60008054906101000a900473ffffffffffffffffffffffffffffffffffffffff1673ffffffffffffffffffffffffffffffffffffffff163373ffffffffffffffffffffffffffffffffffffffff16146105d7576040517f08c379a00000000000000000000000000000000000000000000000000000000081526004016105ce90613d2a565b60405180910390fd5b6000811180156105e957506007548111155b610628576040517f08c379a000000000000000000000000000000000000000000000000000000000815260040161061f90613d96565b60405180910390fd5b6006600082815260200190815260200160002060020160149054906101000a900460ff161561068c576040517f08c379a000000000000000000000000000000000000000000000000000000000815260040161068390613e02565b60405180910390fd5b6006600082815260200190815260200160002060020160159054906101000a900460ff16156106f0576040517f08c379a00000000000000000000000000000000000000000000000000000000081526004016106e790613e6e565b60405180910390fd5b60006006600083815260200190815260200160002060000154905060026000828152602001908152602001600020600d0160009054906101000a900460ff161561076f576040517f08c379a000000000000000000000000000000000000000000000000000000000815260040161076690613f00565b60405180910390fd5b60016006600084815260200190815260200160002060020160146101000a81548160ff02191690831515021790555060006006600084815260200190815260200160002060010160009054906101000a900473ffffffffffffffffffffffffffffffffffffffff16905060006006600085815260200190815260200160002060020160009054906101000a900473ffffffffffffffffffffffffffffffffffffffff1690507ff73d69570eccd6f2339743c4bee60201dff8cd4f3da346d3b96c1a30258244948460026000868152602001908152602001600020600201848460405161085e9493929190614019565b60405180910390a16002600084815260200190815260200160002060010160009054906101000a900473ffffffffffffffffffffffffffffffffffffffff1673ffffffffffffffffffffffffffffffffffffffff168273ffffffffffffffffffffffffffffffffffffffff161461090a576040517f08c379a0000000000000000000000000000000000000000000000000000000008152600401610901906140b1565b60405180910390fd5b60026000848152602001908152602001600020600b01819080600181540180825580915050600190039060005260206000200160009091909190916101000a81548173ffffffffffffffffffffffffffffffffffffffff021916908373ffffffffffffffffffffffffffffffffffffffff16021790555060026000848152602001908152602001600020600c01429080600181540180825580915050600190039060005260206000200160009091909190915055806002600085815260200190815260200160002060010160006101000a81548173ffffffffffffffffffffffffffffffffffffffff021916908373ffffffffffffffffffffffffffffffffffffffff16021790555060016006600086815260200190815260200160002060020160156101000a81548160ff0219169083151502179055507f16b85f49bf01212961345d3016c9a531894accf62eb7680f2045d79185cc0ec0838383604051610a75939291906140d1565b60405180910390a150505050565b60008054906101000a900473ffffffffffffffffffffffffffffffffffffffff1681565b60008054906101000a900473ffffffffffffffffffffffffffffffffffffffff1673ffffffffffffffffffffffffffffffffffffffff163373ffffffffffffffffffffffffffffffffffffffff1614610b35576040517f08c379a0000000000000000000000000000000000000000000000000000000008152600401610b2c90613d2a565b60405180910390fd5b600081118015610b4757506003548111155b610b86576040517f08c379a0000000000000000000000000000000000000000000000000000000008152600401610b7d90614154565b60405180910390fd5b60026000828152602001908152602001600020600d0160009054906101000a900460ff16610be9576040517f08c379a0000000000000000000000000000000000000000000000000000000008152600401610be0906141e6565b60405180910390fd5b600060026000838152602001908152602001600020600d0160006101000a81548160ff0219169083151502179055507f7fec80007712112ed135d87f7da7c3024b66a4f3a14baf0a44cfc17c9b8d8c76816002600084815260200190815260200160002060020133604051610c6093929190614206565b60405180910390a150565b6060600060035467ffffffffffffffff811115610c8b57610c8a613507565b5b604051908082528060200260200182016040528015610cb95781602001602082028036833780820191505090505b509050600080600190505b6003548111610d645760026000828152602001908152602001600020600d0160009054906101000a900460ff168015610d1d57506002600082815260200190815260200160002060080160009054906101000a900460ff165b15610d515780838381518110610d3657610d35614244565b5b6020026020010181815250508180610d4d906142a2565b9250505b8080610d5c906142a2565b915050610cc4565b5060008167ffffffffffffffff811115610d8157610d80613507565b5b604051908082528060200260200182016040528015610daf5781602001602082028036833780820191505090505b50905060005b82811015610e0a57838181518110610dd057610dcf614244565b5b6020026020010151828281518110610deb57610dea614244565b5b6020026020010181815250508080610e02906142a2565b915050610db5565b5080935050505090565b6000600582604051610e269190614326565b908152602001604051809103902060009054906101000a900460ff169050919050565b60006060806060806060806000606080600080600190505b600354811161156d578c73ffffffffffffffffffffffffffffffffffffffff166002600083815260200190815260200160002060010160009054906101000a900473ffffffffffffffffffffffffffffffffffffffff1673ffffffffffffffffffffffffffffffffffffffff160361155a57600060026000838152602001908152602001600020604051806101c0016040529081600082015481526020016001820160009054906101000a900473ffffffffffffffffffffffffffffffffffffffff1673ffffffffffffffffffffffffffffffffffffffff1673ffffffffffffffffffffffffffffffffffffffff168152602001600282018054610f6490613f4f565b80601f0160208091040260200160405190810160405280929190818152602001828054610f9090613f4f565b8015610fdd5780601f10610fb257610100808354040283529160200191610fdd565b820191906000526020600020905b815481529060010190602001808311610fc057829003601f168201915b50505050508152602001600382018054610ff690613f4f565b80601f016020809104026020016040519081016040528092919081815260200182805461102290613f4f565b801561106f5780601f106110445761010080835404028352916020019161106f565b820191906000526020600020905b81548152906001019060200180831161105257829003601f168201915b5050505050815260200160048201805461108890613f4f565b80601f01602080910402602001604051908101604052809291908181526020018280546110b490613f4f565b80156111015780601f106110d657610100808354040283529160200191611101565b820191906000526020600020905b8154815290600101906020018083116110e457829003601f168201915b5050505050815260200160058201805461111a90613f4f565b80601f016020809104026020016040519081016040528092919081815260200182805461114690613f4f565b80156111935780601f1061116857610100808354040283529160200191611193565b820191906000526020600020905b81548152906001019060200180831161117657829003601f168201915b505050505081526020016006820180546111ac90613f4f565b80601f01602080910402602001604051908101604052809291908181526020018280546111d890613f4f565b80156112255780601f106111fa57610100808354040283529160200191611225565b820191906000526020600020905b81548152906001019060200180831161120857829003601f168201915b5050505050815260200160078201805461123e90613f4f565b80601f016020809104026020016040519081016040528092919081815260200182805461126a90613f4f565b80156112b75780601f1061128c576101008083540402835291602001916112b7565b820191906000526020600020905b81548152906001019060200180831161129a57829003601f168201915b505050505081526020016008820160009054906101000a900460ff161515151581526020016009820180546112eb90613f4f565b80601f016020809104026020016040519081016040528092919081815260200182805461131790613f4f565b80156113645780601f1061133957610100808354040283529160200191611364565b820191906000526020600020905b81548152906001019060200180831161134757829003601f168201915b50505050508152602001600a8201805461137d90613f4f565b80601f01602080910402602001604051908101604052809291908181526020018280546113a990613f4f565b80156113f65780601f106113cb576101008083540402835291602001916113f6565b820191906000526020600020905b8154815290600101906020018083116113d957829003601f168201915b50505050508152602001600b820180548060200260200160405190810160405280929190818152602001828054801561148457602002820191906000526020600020905b8160009054906101000a900473ffffffffffffffffffffffffffffffffffffffff1673ffffffffffffffffffffffffffffffffffffffff168152602001906001019080831161143a575b50505050508152602001600c82018054806020026020016040519081016040528092919081815260200182805480156114dc57602002820191906000526020600020905b8154815260200190600101908083116114c8575b50505050508152602001600d820160009054906101000a900460ff161515151581525050905080600001518160400151826060015183608001518460a001518560c001518660e001518761010001518861012001518961014001518a6101a001519c509c509c509c509c509c509c509c509c509c509c5050506115a9565b8080611565906142a2565b915050610e61565b506040517f08c379a00000000000000000000000000000000000000000000000000000000081526004016115a0906143af565b60405180910390fd5b91939597999b90929496989a50565b600160009054906101000a900473ffffffffffffffffffffffffffffffffffffffff1681565b60006115e9836124a4565b90506000810361162e576040517f08c379a00000000000000000000000000000000000000000000000000000000081526004016116259061441b565b60405180910390fd5b6002600082815260200190815260200160002060080160009054906101000a900460ff16611691576040517f08c379a0000000000000000000000000000000000000000000000000000000008152600401611688906144ad565b60405180910390fd5b6002600082815260200190815260200160002060010160009054906101000a900473ffffffffffffffffffffffffffffffffffffffff1673ffffffffffffffffffffffffffffffffffffffff163373ffffffffffffffffffffffffffffffffffffffff1614611735576040517f08c379a000000000000000000000000000000000000000000000000000000000815260040161172c9061453f565b60405180910390fd5b600160009054906101000a900473ffffffffffffffffffffffffffffffffffffffff1673ffffffffffffffffffffffffffffffffffffffff166376b22eac836040518263ffffffff1660e01b815260040161179091906133f1565b602060405180830381865afa1580156117ad573d6000803e3d6000fd5b505050506040513d601f19601f820116820180604052508101906117d1919061458b565b611810576040517f08c379a00000000000000000000000000000000000000000000000000000000081526004016118079061462a565b60405180910390fd5b60026000828152602001908152602001600020600d0160009054906101000a900460ff1615611874576040517f08c379a000000000000000000000000000000000000000000000000000000000815260040161186b90614696565b60405180910390fd5b6000600160009054906101000a900473ffffffffffffffffffffffffffffffffffffffff1673ffffffffffffffffffffffffffffffffffffffff1663385399f9846040518263ffffffff1660e01b81526004016118d191906133f1565b602060405180830381865afa1580156118ee573d6000803e3d6000fd5b505050506040513d601f19601f8201168201806040525081019061191291906146cb565b905060008103611957576040517f08c379a000000000000000000000000000000000000000000000000000000000815260040161194e9061462a565b60405180910390fd5b600160009054906101000a900473ffffffffffffffffffffffffffffffffffffffff1673ffffffffffffffffffffffffffffffffffffffff1663529d6ccf846040518263ffffffff1660e01b81526004016119b291906133f1565b602060405180830381865afa1580156119cf573d6000803e3d6000fd5b505050506040513d601f19601f820116820180604052508101906119f3919061458b565b611a32576040517f08c379a0000000000000000000000000000000000000000000000000000000008152600401611a299061476a565b60405180910390fd5b60076000815480929190611a45906142a2565b91905055506040518060a001604052808381526020013373ffffffffffffffffffffffffffffffffffffffff1681526020018473ffffffffffffffffffffffffffffffffffffffff168152602001600015158152602001600015158152506006600060075481526020019081526020016000206000820151816000015560208201518160010160006101000a81548173ffffffffffffffffffffffffffffffffffffffff021916908373ffffffffffffffffffffffffffffffffffffffff16021790555060408201518160020160006101000a81548173ffffffffffffffffffffffffffffffffffffffff021916908373ffffffffffffffffffffffffffffffffffffffff16021790555060608201518160020160146101000a81548160ff02191690831515021790555060808201518160020160156101000a81548160ff0219169083151502179055509050507f109589349efc5ecfb7cd96007f9c72945c6277f3fb107d0e4a2b37263a03dfc36007548560026000868152602001908152602001600020600301853388604051611be39695949392919061478a565b60405180910390a150505050565b606080600083118015611c0657506003548311155b611c45576040517f08c379a0000000000000000000000000000000000000000000000000000000008152600401611c3c90614154565b60405180910390fd5b600060026000858152602001908152602001600020905080600b0181600c0181805480602002602001604051908101604052809291908181526020018280548015611ce557602002820191906000526020600020905b8160009054906101000a900473ffffffffffffffffffffffffffffffffffffffff1673ffffffffffffffffffffffffffffffffffffffff1681526020019060010190808311611c9b575b5050505050915080805480602002602001604051908101604052809291908181526020018280548015611d3757602002820191906000526020600020905b815481526020019060010190808311611d23575b505050505090509250925050915091565b600488604051611d589190614326565b908152602001604051809103902060009054906101000a900460ff1615611db4576040517f08c379a0000000000000000000000000000000000000000000000000000000008152600401611dab90614845565b60405180910390fd5b600160009054906101000a900473ffffffffffffffffffffffffffffffffffffffff1673ffffffffffffffffffffffffffffffffffffffff166376b22eac8a6040518263ffffffff1660e01b8152600401611e0f91906133f1565b602060405180830381865afa158015611e2c573d6000803e3d6000fd5b505050506040513d601f19601f82011682018060405250810190611e50919061458b565b611e8f576040517f08c379a0000000000000000000000000000000000000000000000000000000008152600401611e86906148b1565b60405180910390fd5b600160009054906101000a900473ffffffffffffffffffffffffffffffffffffffff1673ffffffffffffffffffffffffffffffffffffffff166376b22eac336040518263ffffffff1660e01b8152600401611eea91906133f1565b602060405180830381865afa158015611f07573d6000803e3d6000fd5b505050506040513d601f19601f82011682018060405250810190611f2b919061458b565b611f6a576040517f08c379a0000000000000000000000000000000000000000000000000000000008152600401611f6190614943565b60405180910390fd5b6000600160009054906101000a900473ffffffffffffffffffffffffffffffffffffffff1673ffffffffffffffffffffffffffffffffffffffff1663385399f9336040518263ffffffff1660e01b8152600401611fc791906133f1565b602060405180830381865afa158015611fe4573d6000803e3d6000fd5b505050506040513d601f19601f8201168201806040525081019061200891906146cb565b03612048576040517f08c379a000000000000000000000000000000000000000000000000000000000815260040161203f90614943565b60405180910390fd5b600160009054906101000a900473ffffffffffffffffffffffffffffffffffffffff1673ffffffffffffffffffffffffffffffffffffffff1663529d6ccf336040518263ffffffff1660e01b81526004016120a391906133f1565b602060405180830381865afa1580156120c0573d6000803e3d6000fd5b505050506040513d601f19601f820116820180604052508101906120e4919061458b565b612123576040517f08c379a000000000000000000000000000000000000000000000000000000000815260040161211a906149d5565b60405180910390fd5b60008067ffffffffffffffff81111561213f5761213e613507565b5b60405190808252806020026020018201604052801561216d5781602001602082028036833780820191505090505b50905060008067ffffffffffffffff81111561218c5761218b613507565b5b6040519080825280602002602001820160405280156121ba5781602001602082028036833780820191505090505b509050600360008154809291906121d0906142a2565b9190505550604051806101c0016040528060035481526020018c73ffffffffffffffffffffffffffffffffffffffff1681526020018b81526020018a8152602001898152602001888152602001878152602001868152602001600015158152602001858152602001848152602001838152602001828152602001600015158152506002600060035481526020019081526020016000206000820151816000015560208201518160010160006101000a81548173ffffffffffffffffffffffffffffffffffffffff021916908373ffffffffffffffffffffffffffffffffffffffff16021790555060408201518160020190816122cc9190614b82565b5060608201518160030190816122e29190614b82565b5060808201518160040190816122f89190614b82565b5060a082015181600501908161230e9190614b82565b5060c08201518160060190816123249190614b82565b5060e082015181600701908161233a9190614b82565b506101008201518160080160006101000a81548160ff0219169083151502179055506101208201518160090190816123729190614b82565b5061014082015181600a0190816123899190614b82565b5061016082015181600b0190805190602001906123a79291906131ad565b5061018082015181600c0190805190602001906123c5929190613237565b506101a082015181600d0160006101000a81548160ff021916908315150217905550905050600160048b6040516123fc9190614326565b908152602001604051809103902060006101000a81548160ff021916908315150217905550600160058a6040516124339190614326565b908152602001604051809103902060006101000a81548160ff0219169083151502179055507f2555481e3ee9e0c2905a28990acf26709fa5ce23bb982f74815f87aeea62b69e6003548b8b8e60405161248f9493929190614c54565b60405180910390a15050505050505050505050565b600080600190505b600354811161253957826040516020016124c69190614326565b60405160208183030381529060405280519060200120600260008381526020019081526020016000206002016040516020016125029190614d2a565b6040516020818303038152906040528051906020012003612526578091505061253f565b8080612531906142a2565b9150506124ac565b50600090505b919050565b6004818051602081018201805184825260208301602085012081835280955050505050506000915054906101000a900460ff1681565b6005818051602081018201805184825260208301602085012081835280955050505050506000915054906101000a900460ff1681565b600080600080600080861180156125c957506007548611155b612608576040517f08c379a00000000000000000000000000000000000000000000000000000000081526004016125ff90613d96565b60405180910390fd5b6000600660008881526020019081526020016000206040518060a0016040529081600082015481526020016001820160009054906101000a900473ffffffffffffffffffffffffffffffffffffffff1673ffffffffffffffffffffffffffffffffffffffff1673ffffffffffffffffffffffffffffffffffffffff1681526020016002820160009054906101000a900473ffffffffffffffffffffffffffffffffffffffff1673ffffffffffffffffffffffffffffffffffffffff1673ffffffffffffffffffffffffffffffffffffffff1681526020016002820160149054906101000a900460ff161515151581526020016002820160159054906101000a900460ff161515151581525050905080600001518160200151826040015183606001518460800151955095509550955095505091939590929450565b60006004826040516127559190614326565b908152602001604051809103902060009054906101000a900460ff169050919050565b60008054906101000a900473ffffffffffffffffffffffffffffffffffffffff1673ffffffffffffffffffffffffffffffffffffffff163373ffffffffffffffffffffffffffffffffffffffff1614612806576040517f08c379a00000000000000000000000000000000000000000000000000000000081526004016127fd90613d2a565b60405180910390fd5b60008111801561281857506003548111155b612857576040517f08c379a000000000000000000000000000000000000000000000000000000000815260040161284e90614d8d565b60405180910390fd5b60016002600083815260200190815260200160002060080160006101000a81548160ff02191690831515021790555060026000828152602001908152602001600020600b016002600083815260200190815260200160002060010160009054906101000a900473ffffffffffffffffffffffffffffffffffffffff169080600181540180825580915050600190039060005260206000200160009091909190916101000a81548173ffffffffffffffffffffffffffffffffffffffff021916908373ffffffffffffffffffffffffffffffffffffffff16021790555060026000828152602001908152602001600020600c014290806001815401808255809150506001900390600052602060002001600090919091909150557fb5f82b604d3af72e04aec8f752d8d1123410639c9a9a60219d32f4b853dbbb288160026000848152602001908152602001600020600201600260008581526020019081526020016000206003016002600086815260200190815260200160002060010160009054906101000a900473ffffffffffffffffffffffffffffffffffffffff16604051612a059493929190614dad565b60405180910390a150565b60075481565b80600081118015612a2957506003548111155b612a68576040517f08c379a0000000000000000000000000000000000000000000000000000000008152600401612a5f90614154565b60405180910390fd5b3373ffffffffffffffffffffffffffffffffffffffff166002600083815260200190815260200160002060010160009054906101000a900473ffffffffffffffffffffffffffffffffffffffff1673ffffffffffffffffffffffffffffffffffffffff1614612b0c576040517f08c379a0000000000000000000000000000000000000000000000000000000008152600401612b0390614e72565b60405180910390fd5b6002600083815260200190815260200160002060080160009054906101000a900460ff16612b6f576040517f08c379a0000000000000000000000000000000000000000000000000000000008152600401612b6690614ede565b60405180910390fd5b60026000838152602001908152602001600020600d0160009054906101000a900460ff1615612bd3576040517f08c379a0000000000000000000000000000000000000000000000000000000008152600401612bca90614f70565b60405180910390fd5b600160026000848152602001908152602001600020600d0160006101000a81548160ff0219169083151502179055507fb8893480aa3666e42cae806ddd1fd3919c10abc78d32c411eff8bfe22bbe6ed4826002600085815260200190815260200160002060020133604051612c4a93929190614206565b60405180910390a15050565b60026020528060005260406000206000915090508060000154908060010160009054906101000a900473ffffffffffffffffffffffffffffffffffffffff1690806002018054612ca590613f4f565b80601f0160208091040260200160405190810160405280929190818152602001828054612cd190613f4f565b8015612d1e5780601f10612cf357610100808354040283529160200191612d1e565b820191906000526020600020905b815481529060010190602001808311612d0157829003601f168201915b505050505090806003018054612d3390613f4f565b80601f0160208091040260200160405190810160405280929190818152602001828054612d5f90613f4f565b8015612dac5780601f10612d8157610100808354040283529160200191612dac565b820191906000526020600020905b815481529060010190602001808311612d8f57829003601f168201915b505050505090806004018054612dc190613f4f565b80601f0160208091040260200160405190810160405280929190818152602001828054612ded90613f4f565b8015612e3a5780601f10612e0f57610100808354040283529160200191612e3a565b820191906000526020600020905b815481529060010190602001808311612e1d57829003601f168201915b505050505090806005018054612e4f90613f4f565b80601f0160208091040260200160405190810160405280929190818152602001828054612e7b90613f4f565b8015612ec85780601f10612e9d57610100808354040283529160200191612ec8565b820191906000526020600020905b815481529060010190602001808311612eab57829003601f168201915b505050505090806006018054612edd90613f4f565b80601f0160208091040260200160405190810160405280929190818152602001828054612f0990613f4f565b8015612f565780601f10612f2b57610100808354040283529160200191612f56565b820191906000526020600020905b815481529060010190602001808311612f3957829003601f168201915b505050505090806007018054612f6b90613f4f565b80601f0160208091040260200160405190810160405280929190818152602001828054612f9790613f4f565b8015612fe45780601f10612fb957610100808354040283529160200191612fe4565b820191906000526020600020905b815481529060010190602001808311612fc757829003601f168201915b5050505050908060080160009054906101000a900460ff169080600901805461300c90613f4f565b80601f016020809104026020016040519081016040528092919081815260200182805461303890613f4f565b80156130855780601f1061305a57610100808354040283529160200191613085565b820191906000526020600020905b81548152906001019060200180831161306857829003601f168201915b50505050509080600a01805461309a90613f4f565b80601f01602080910402602001604051908101604052809291908181526020018280546130c690613f4f565b80156131135780601f106130e857610100808354040283529160200191613113565b820191906000526020600020905b8154815290600101906020018083116130f657829003601f168201915b50505050509080600d0160009054906101000a900460ff1690508c565b6000808211801561314357506003548211155b613182576040517f08c379a000000000000000000000000000000000000000000000000000000000815260040161317990614154565b60405180910390fd5b60026000838152602001908152602001600020600d0160009054906101000a900460ff169050919050565b828054828255906000526020600020908101928215613226579160200282015b828111156132255782518260006101000a81548173ffffffffffffffffffffffffffffffffffffffff021916908373ffffffffffffffffffffffffffffffffffffffff160217905550916020019190600101906131cd565b5b5090506132339190613284565b5090565b828054828255906000526020600020908101928215613273579160200282015b82811115613272578251825591602001919060010190613257565b5b5090506132809190613284565b5090565b5b8082111561329d576000816000905550600101613285565b5090565b6000604051905090565b600080fd5b600080fd5b6000819050919050565b6132c8816132b5565b81146132d357600080fd5b50565b6000813590506132e5816132bf565b92915050565b600060208284031215613301576133006132ab565b5b600061330f848285016132d6565b91505092915050565b613321816132b5565b82525050565b600073ffffffffffffffffffffffffffffffffffffffff82169050919050565b600061335282613327565b9050919050565b61336281613347565b82525050565b60008115159050919050565b61337d81613368565b82525050565b600060a0820190506133986000830188613318565b6133a56020830187613359565b6133b26040830186613359565b6133bf6060830185613374565b6133cc6080830184613374565b9695505050505050565b60006020820190506133eb6000830184613318565b92915050565b60006020820190506134066000830184613359565b92915050565b600081519050919050565b600082825260208201905092915050565b6000819050602082019050919050565b613441816132b5565b82525050565b60006134538383613438565b60208301905092915050565b6000602082019050919050565b60006134778261340c565b6134818185613417565b935061348c83613428565b8060005b838110156134bd5781516134a48882613447565b97506134af8361345f565b925050600181019050613490565b5085935050505092915050565b600060208201905081810360008301526134e4818461346c565b905092915050565b600080fd5b600080fd5b6000601f19601f8301169050919050565b7f4e487b7100000000000000000000000000000000000000000000000000000000600052604160045260246000fd5b61353f826134f6565b810181811067ffffffffffffffff8211171561355e5761355d613507565b5b80604052505050565b60006135716132a1565b905061357d8282613536565b919050565b600067ffffffffffffffff82111561359d5761359c613507565b5b6135a6826134f6565b9050602081019050919050565b82818337600083830152505050565b60006135d56135d084613582565b613567565b9050828152602081018484840111156135f1576135f06134f1565b5b6135fc8482856135b3565b509392505050565b600082601f830112613619576136186134ec565b5b81356136298482602086016135c2565b91505092915050565b600060208284031215613648576136476132ab565b5b600082013567ffffffffffffffff811115613666576136656132b0565b5b61367284828501613604565b91505092915050565b60006020820190506136906000830184613374565b92915050565b61369f81613347565b81146136aa57600080fd5b50565b6000813590506136bc81613696565b92915050565b6000602082840312156136d8576136d76132ab565b5b60006136e6848285016136ad565b91505092915050565b600081519050919050565b600082825260208201905092915050565b60005b8381101561372957808201518184015260208101905061370e565b60008484015250505050565b6000613740826136ef565b61374a81856136fa565b935061375a81856020860161370b565b613763816134f6565b840191505092915050565b600061016082019050613784600083018e613318565b8181036020830152613796818d613735565b905081810360408301526137aa818c613735565b905081810360608301526137be818b613735565b905081810360808301526137d2818a613735565b905081810360a08301526137e68189613735565b905081810360c08301526137fa8188613735565b905061380960e0830187613374565b81810361010083015261381c8186613735565b90508181036101208301526138318185613735565b9050613841610140830184613374565b9c9b505050505050505050505050565b6000819050919050565b600061387661387161386c84613327565b613851565b613327565b9050919050565b60006138888261385b565b9050919050565b600061389a8261387d565b9050919050565b6138aa8161388f565b82525050565b60006020820190506138c560008301846138a1565b92915050565b600080604083850312156138e2576138e16132ab565b5b600083013567ffffffffffffffff811115613900576138ff6132b0565b5b61390c85828601613604565b925050602061391d858286016136ad565b9150509250929050565b600081519050919050565b600082825260208201905092915050565b6000819050602082019050919050565b61395c81613347565b82525050565b600061396e8383613953565b60208301905092915050565b6000602082019050919050565b600061399282613927565b61399c8185613932565b93506139a783613943565b8060005b838110156139d85781516139bf8882613962565b97506139ca8361397a565b9250506001810190506139ab565b5085935050505092915050565b600060408201905081810360008301526139ff8185613987565b90508181036020830152613a13818461346c565b90509392505050565b60008060008060008060008060006101208a8c031215613a3f57613a3e6132ab565b5b6000613a4d8c828d016136ad565b99505060208a013567ffffffffffffffff811115613a6e57613a6d6132b0565b5b613a7a8c828d01613604565b98505060408a013567ffffffffffffffff811115613a9b57613a9a6132b0565b5b613aa78c828d01613604565b97505060608a013567ffffffffffffffff811115613ac857613ac76132b0565b5b613ad48c828d01613604565b96505060808a013567ffffffffffffffff811115613af557613af46132b0565b5b613b018c828d01613604565b95505060a08a013567ffffffffffffffff811115613b2257613b216132b0565b5b613b2e8c828d01613604565b94505060c08a013567ffffffffffffffff811115613b4f57613b4e6132b0565b5b613b5b8c828d01613604565b93505060e08a013567ffffffffffffffff811115613b7c57613b7b6132b0565b5b613b888c828d01613604565b9250506101008a013567ffffffffffffffff811115613baa57613ba96132b0565b5b613bb68c828d01613604565b9150509295985092959850929598565b600061018082019050613bdc600083018f613318565b613be9602083018e613359565b8181036040830152613bfb818d613735565b90508181036060830152613c0f818c613735565b90508181036080830152613c23818b613735565b905081810360a0830152613c37818a613735565b905081810360c0830152613c4b8189613735565b905081810360e0830152613c5f8188613735565b9050613c6f610100830187613374565b818103610120830152613c828186613735565b9050818103610140830152613c978185613735565b9050613ca7610160830184613374565b9d9c50505050505050505050505050565b7f4f6e6c7920676f7665726e6d656e742063616e20706572666f726d207468697360008201527f20616374696f6e00000000000000000000000000000000000000000000000000602082015250565b6000613d146027836136fa565b9150613d1f82613cb8565b604082019050919050565b60006020820190508181036000830152613d4381613d07565b9050919050565b7f496e76616c696420726571756573742049440000000000000000000000000000600082015250565b6000613d806012836136fa565b9150613d8b82613d4a565b602082019050919050565b60006020820190508181036000830152613daf81613d73565b9050919050565b7f5472616e7366657220616c726561647920617070726f76656400000000000000600082015250565b6000613dec6019836136fa565b9150613df782613db6565b602082019050919050565b60006020820190508181036000830152613e1b81613ddf565b9050919050565b7f5472616e7366657220616c726561647920636f6d706c65746564000000000000600082015250565b6000613e58601a836136fa565b9150613e6382613e22565b602082019050919050565b60006020820190508181036000830152613e8781613e4b565b9050919050565b7f43616e6e6f7420617070726f7665207472616e7366657220666f722073746f6c60008201527f656e2076656869636c6500000000000000000000000000000000000000000000602082015250565b6000613eea602a836136fa565b9150613ef582613e8e565b604082019050919050565b60006020820190508181036000830152613f1981613edd565b9050919050565b7f4e487b7100000000000000000000000000000000000000000000000000000000600052602260045260246000fd5b60006002820490506001821680613f6757607f821691505b602082108103613f7a57613f79613f20565b5b50919050565b60008190508160005260206000209050919050565b60008154613fa281613f4f565b613fac81866136fa565b94506001821660008114613fc75760018114613fdd57614010565b60ff198316865281151560200286019350614010565b613fe685613f80565b60005b8381101561400857815481890152600182019150602081019050613fe9565b808801955050505b50505092915050565b600060808201905061402e6000830187613318565b81810360208301526140408186613f95565b905061404f6040830185613359565b61405c6060830184613359565b95945050505050565b7f43757272656e74206f776e6572206d69736d6174636800000000000000000000600082015250565b600061409b6016836136fa565b91506140a682614065565b602082019050919050565b600060208201905081810360008301526140ca8161408e565b9050919050565b60006060820190506140e66000830186613318565b6140f36020830185613359565b6141006040830184613359565b949350505050565b7f496e76616c69642076656869636c652049440000000000000000000000000000600082015250565b600061413e6012836136fa565b915061414982614108565b602082019050919050565b6000602082019050818103600083015261416d81614131565b9050919050565b7f56656869636c65206973206e6f74207265706f727465642061732073746f6c6560008201527f6e00000000000000000000000000000000000000000000000000000000000000602082015250565b60006141d06021836136fa565b91506141db82614174565b604082019050919050565b600060208201905081810360008301526141ff816141c3565b9050919050565b600060608201905061421b6000830186613318565b818103602083015261422d8185613f95565b905061423c6040830184613359565b949350505050565b7f4e487b7100000000000000000000000000000000000000000000000000000000600052603260045260246000fd5b7f4e487b7100000000000000000000000000000000000000000000000000000000600052601160045260246000fd5b60006142ad826132b5565b91507fffffffffffffffffffffffffffffffffffffffffffffffffffffffffffffffff82036142df576142de614273565b5b600182019050919050565b600081905092915050565b6000614300826136ef565b61430a81856142ea565b935061431a81856020860161370b565b80840191505092915050565b600061433282846142f5565b915081905092915050565b7f4e6f2076656869636c6520666f756e6420666f7220746869732077616c6c657460008201527f2061646472657373000000000000000000000000000000000000000000000000602082015250565b60006143996028836136fa565b91506143a48261433d565b604082019050919050565b600060208201905081810360008301526143c88161438c565b9050919050565b7f56656869636c65206e6f7420666f756e64000000000000000000000000000000600082015250565b60006144056011836136fa565b9150614410826143cf565b602082019050919050565b60006020820190508181036000830152614434816143f8565b9050919050565b7f56656869636c6520726567697374726174696f6e206d7573742062652061707060008201527f726f766564000000000000000000000000000000000000000000000000000000602082015250565b60006144976025836136fa565b91506144a28261443b565b604082019050919050565b600060208201905081810360008301526144c68161448a565b9050919050565b7f4f6e6c79207468652076656869636c65206f776e65722063616e20726571756560008201527f7374207472616e73666572000000000000000000000000000000000000000000602082015250565b6000614529602b836136fa565b9150614534826144cd565b604082019050919050565b600060208201905081810360008301526145588161451c565b9050919050565b61456881613368565b811461457357600080fd5b50565b6000815190506145858161455f565b92915050565b6000602082840312156145a1576145a06132ab565b5b60006145af84828501614576565b91505092915050565b7f4e6577206f776e6572206d75737420626520612072656769737465726564207560008201527f7365720000000000000000000000000000000000000000000000000000000000602082015250565b60006146146023836136fa565b915061461f826145b8565b604082019050919050565b6000602082019050818103600083015261464381614607565b9050919050565b7f43616e6e6f74207472616e736665722073746f6c656e2076656869636c650000600082015250565b6000614680601e836136fa565b915061468b8261464a565b602082019050919050565b600060208201905081810360008301526146af81614673565b9050919050565b6000815190506146c5816132bf565b92915050565b6000602082840312156146e1576146e06132ab565b5b60006146ef848285016146b6565b91505092915050565b7f4e6577206f776e6572206d75737420626520617070726f76656420627920676f60008201527f7665726e6d656e74000000000000000000000000000000000000000000000000602082015250565b60006147546028836136fa565b915061475f826146f8565b604082019050919050565b6000602082019050818103600083015261478381614747565b9050919050565b600060c08201905061479f6000830189613318565b81810360208301526147b18188613735565b905081810360408301526147c58187613f95565b90506147d46060830186613318565b6147e16080830185613359565b6147ee60a0830184613359565b979650505050505050565b7f56656869636c6520616c72656164792072656769737465726564000000000000600082015250565b600061482f601a836136fa565b915061483a826147f9565b602082019050919050565b6000602082019050818103600083015261485e81614822565b9050919050565b7f4f776e6572206d75737420626520612072656769737465726564207573657200600082015250565b600061489b601f836136fa565b91506148a682614865565b602082019050919050565b600060208201905081810360008301526148ca8161488e565b9050919050565b7f526571756573746572206d75737420626520612072656769737465726564207560008201527f7365720000000000000000000000000000000000000000000000000000000000602082015250565b600061492d6023836136fa565b9150614938826148d1565b604082019050919050565b6000602082019050818103600083015261495c81614920565b9050919050565b7f55736572206d75737420626520617070726f76656420627920676f7665726e6d60008201527f656e740000000000000000000000000000000000000000000000000000000000602082015250565b60006149bf6023836136fa565b91506149ca82614963565b604082019050919050565b600060208201905081810360008301526149ee816149b2565b9050919050565b60006020601f8301049050919050565b600082821b905092915050565b600060088302614a427fffffffffffffffffffffffffffffffffffffffffffffffffffffffffffffffff82614a05565b614a4c8683614a05565b95508019841693508086168417925050509392505050565b6000614a7f614a7a614a75846132b5565b613851565b6132b5565b9050919050565b6000819050919050565b614a9983614a64565b614aad614aa582614a86565b848454614a12565b825550505050565b600090565b614ac2614ab5565b614acd818484614a90565b505050565b5b81811015614af157614ae6600082614aba565b600181019050614ad3565b5050565b601f821115614b3657614b0781613f80565b614b10846149f5565b81016020851015614b1f578190505b614b33614b2b856149f5565b830182614ad2565b50505b505050565b600082821c905092915050565b6000614b5960001984600802614b3b565b1980831691505092915050565b6000614b728383614b48565b9150826002028217905092915050565b614b8b826136ef565b67ffffffffffffffff811115614ba457614ba3613507565b5b614bae8254613f4f565b614bb9828285614af5565b600060209050601f831160018114614bec5760008415614bda578287015190505b614be48582614b66565b865550614c4c565b601f198416614bfa86613f80565b60005b82811015614c2257848901518255600182019150602085019450602081019050614bfd565b86831015614c3f5784890151614c3b601f891682614b48565b8355505b6001600288020188555050505b505050505050565b6000608082019050614c696000830187613318565b8181036020830152614c7b8186613735565b90508181036040830152614c8f8185613735565b9050614c9e6060830184613359565b95945050505050565b60008154614cb481613f4f565b614cbe81866142ea565b94506001821660008114614cd95760018114614cee57614d21565b60ff1983168652811515820286019350614d21565b614cf785613f80565b60005b83811015614d1957815481890152600182019150602081019050614cfa565b838801955050505b50505092915050565b6000614d368284614ca7565b915081905092915050565b7f496e76616c696420726567697374726174696f6e204944000000000000000000600082015250565b6000614d776017836136fa565b9150614d8282614d41565b602082019050919050565b60006020820190508181036000830152614da681614d6a565b9050919050565b6000608082019050614dc26000830187613318565b8181036020830152614dd48186613f95565b90508181036040830152614de88185613f95565b9050614df76060830184613359565b95945050505050565b7f4f6e6c792076656869636c65206f776e65722063616e20706572666f726d207460008201527f68697320616374696f6e00000000000000000000000000000000000000000000602082015250565b6000614e5c602a836136fa565b9150614e6782614e00565b604082019050919050565b60006020820190508181036000830152614e8b81614e4f565b9050919050565b7f56656869636c65206d75737420626520617070726f7665640000000000000000600082015250565b6000614ec86018836136fa565b9150614ed382614e92565b602082019050919050565b60006020820190508181036000830152614ef781614ebb565b9050919050565b7f56656869636c6520616c7265616479207265706f727465642061732073746f6c60008201527f656e000000000000000000000000000000000000000000000000000000000000602082015250565b6000614f5a6022836136fa565b9150614f6582614efe565b604082019050919050565b60006020820190508181036000830152614f8981614f4d565b905091905056fea264697066735822122017ac6398529f414fa79cf2d4f19fc133abed6cb299ce248637730de823c3d1a164736f6c63430008130033",
  "immutableReferences": {},
  "source": "// SPDX-License-Identifier: MIT\r\npragma solidity ^0.8.0;\r\n\r\nimport \"./User.sol\";\r\n\r\ncontract Vehicle {\r\n    address public government = 0x8De289A68cd9f1DdB6edA5684cF9aac6C6311F60;\r\n    User public userContract;\r\n\r\n    struct VehicleRegistration {\r\n        uint id;\r\n        address ownerWallet;\r\n        string vehicleNo;\r\n        string vin;\r\n        string vehicleMake;\r\n        string vehicleModel;\r\n        string vehicleModelYear;\r\n        string vehicleRegistrationYear;\r\n        bool approved;\r\n        string documentHash;\r\n        string imageHash;\r\n        address[] ownershipHistory; // Array to store ALL owners in chronological order\r\n        uint[] ownershipDates;      // Array to store timestamps when each owner got the vehicle\r\n        bool isStolen;              // New field to track if vehicle is stolen\r\n    }\r\n\r\n    struct OwnershipTransferRequest {\r\n        uint registrationId;\r\n        address currentOwner;\r\n        address newOwner;\r\n        bool approved;\r\n        bool completed;\r\n    }\r\n\r\n    mapping(uint => VehicleRegistration) public vehicleRegistrations;\r\n    uint public registrationCount = 0;\r\n    mapping(string => bool) public registeredVehicles;\r\n    mapping(string => bool) public registeredVehiclesvin;\r\n\r\n    mapping(uint => OwnershipTransferRequest) public transferRequests;\r\n    uint public transferRequestCount = 0;\r\n\r\n    event VehicleRegistered(uint registerId, string vehicleNo, string vin, address ownerWallet);\r\n    event VehicleApproved(uint registerId, string vehicleNo, string vin, address ownerWallet);\r\n    event OwnershipTransferRequested(uint requestId, string vehicleNo, string vin, uint registrationId, address currentOwner, address newOwner);\r\n    event OwnershipTransferApproved(uint requestId, string vehicleNo, address oldOwner, address newOwner);\r\n    event OwnershipTransferred(uint registerId, address oldOwner, address newOwner);\r\n    event VehicleReportedStolen(uint vehicleId, string vehicleNo, address reportedBy);\r\n    event VehicleRecovered(uint vehicleId, string vehicleNo, address recoveredBy);\r\n\r\n    constructor(address _userContractAddress) {\r\n        userContract = User(_userContractAddress);\r\n    }\r\n\r\n    modifier onlyGovernment() {\r\n        require(msg.sender == government, \"Only government can perform this action\");\r\n        _;\r\n    }\r\n\r\n    modifier onlyVehicleOwner(uint _vehicleId) {\r\n        require(_vehicleId > 0 && _vehicleId <= registrationCount, \"Invalid vehicle ID\");\r\n        require(vehicleRegistrations[_vehicleId].ownerWallet == msg.sender, \"Only vehicle owner can perform this action\");\r\n        _;\r\n    }\r\n\r\n    function registerVehicle(\r\n        address _ownerWallet,\r\n        string memory _vehicleNo,\r\n        string memory _vin,\r\n        string memory _vehicleMake,\r\n        string memory _vehicleModel,\r\n        string memory _vehicleModelYear,\r\n        string memory _vehicleRegistrationYear,\r\n        string memory _documentHash,\r\n        string memory _imageHash\r\n    ) public {\r\n        require(!registeredVehicles[_vehicleNo], \"Vehicle already registered\");\r\n        require(userContract.registeredAddresses(_ownerWallet), \"Owner must be a registered user\");\r\n        require(userContract.registeredAddresses(msg.sender), \"Requester must be a registered user\");\r\n        require(userContract.getUserIdByAddress(msg.sender) != 0, \"Requester must be a registered user\");\r\n        require(userContract.isUserApproved(msg.sender), \"User must be approved by government\");\r\n\r\n        // Initialize empty arrays for tracking ownership history\r\n        address[] memory ownershipHistory = new address[](0);\r\n        uint[] memory ownershipDates = new uint[](0);\r\n\r\n        registrationCount++;\r\n        vehicleRegistrations[registrationCount] = VehicleRegistration(\r\n            registrationCount,\r\n            _ownerWallet,\r\n            _vehicleNo,\r\n            _vin,\r\n            _vehicleMake,\r\n            _vehicleModel,\r\n            _vehicleModelYear,\r\n            _vehicleRegistrationYear,\r\n            false,\r\n            _documentHash,\r\n            _imageHash,\r\n            ownershipHistory,  // Empty array for ownership history\r\n            ownershipDates,    // Empty array for ownership dates\r\n            false              // Initially not stolen\r\n        ); \r\n        registeredVehicles[_vehicleNo] = true;\r\n        registeredVehiclesvin[_vin] = true;\r\n        emit VehicleRegistered(registrationCount, _vehicleNo, _vin, _ownerWallet);\r\n    }\r\n\r\n    function approveVehicle(uint _registerId) public onlyGovernment {\r\n        require(_registerId > 0 && _registerId <= registrationCount, \"Invalid registration ID\");\r\n        vehicleRegistrations[_registerId].approved = true;\r\n      \r\n        // Add the initial owner to the ownership history when vehicle is approved\r\n        vehicleRegistrations[_registerId].ownershipHistory.push(vehicleRegistrations[_registerId].ownerWallet);\r\n        vehicleRegistrations[_registerId].ownershipDates.push(block.timestamp);\r\n\r\n        emit VehicleApproved(_registerId, vehicleRegistrations[_registerId].vehicleNo, vehicleRegistrations[_registerId].vin, vehicleRegistrations[_registerId].ownerWallet);\r\n    }\r\n\r\n    function vehicleExists(string memory _vehicleNo) public view returns (bool) {\r\n        return registeredVehicles[_vehicleNo];\r\n    }\r\n    \r\n    function vinExist(string memory _vin) public view returns (bool) {\r\n        return registeredVehiclesvin[_vin];\r\n    }\r\n\r\n    function requestOwnershipTransfer(string memory _vehicleNo, address _newOwnerWallet) public {\r\n        uint registerId = getVehicleId(_vehicleNo);\r\n        require(registerId != 0, \"Vehicle not found\");\r\n        require(vehicleRegistrations[registerId].approved, \"Vehicle registration must be approved\");\r\n        require(msg.sender == vehicleRegistrations[registerId].ownerWallet, \"Only the vehicle owner can request transfer\");\r\n        require(userContract.registeredAddresses(_newOwnerWallet), \"New owner must be a registered user\");\r\n        require(!vehicleRegistrations[registerId].isStolen, \"Cannot transfer stolen vehicle\");\r\n        \r\n        uint newOwnerId = userContract.getUserIdByAddress(_newOwnerWallet);\r\n        require(newOwnerId != 0, \"New owner must be a registered user\");\r\n        require(userContract.isUserApproved(_newOwnerWallet), \"New owner must be approved by government\");\r\n        \r\n        transferRequestCount++;\r\n        transferRequests[transferRequestCount] = OwnershipTransferRequest(\r\n            registerId,\r\n            msg.sender,\r\n            _newOwnerWallet,\r\n            false,\r\n            false\r\n        );\r\n        \r\n        emit OwnershipTransferRequested(transferRequestCount, _vehicleNo, vehicleRegistrations[registerId].vin, registerId, msg.sender, _newOwnerWallet);\r\n    }\r\n    \r\n    function approveOwnershipTransfer(uint _requestId) public onlyGovernment {\r\n        require(_requestId > 0 && _requestId <= transferRequestCount, \"Invalid request ID\");\r\n        require(!transferRequests[_requestId].approved, \"Transfer already approved\");\r\n        require(!transferRequests[_requestId].completed, \"Transfer already completed\");\r\n        \r\n        uint registerId = transferRequests[_requestId].registrationId;\r\n        require(!vehicleRegistrations[registerId].isStolen, \"Cannot approve transfer for stolen vehicle\");\r\n        \r\n        transferRequests[_requestId].approved = true;\r\n        \r\n        // Complete the transfer\r\n        address oldOwner = transferRequests[_requestId].currentOwner;\r\n        address newOwner = transferRequests[_requestId].newOwner;\r\n\r\n        emit OwnershipTransferApproved(_requestId, vehicleRegistrations[registerId].vehicleNo, oldOwner, newOwner);\r\n        \r\n        require(oldOwner == vehicleRegistrations[registerId].ownerWallet, \"Current owner mismatch\");\r\n        \r\n        // Add the new owner to ownership history with transfer timestamp\r\n        vehicleRegistrations[registerId].ownershipHistory.push(newOwner);\r\n        vehicleRegistrations[registerId].ownershipDates.push(block.timestamp);\r\n        \r\n        // Update current owner\r\n        vehicleRegistrations[registerId].ownerWallet = newOwner;\r\n        transferRequests[_requestId].completed = true;\r\n        \r\n        emit OwnershipTransferred(registerId, oldOwner, newOwner);\r\n    }\r\n\r\n    // Function to report vehicle as stolen - only owner can report\r\n    function reportVehicleStolen(uint _vehicleId) public onlyVehicleOwner(_vehicleId) {\r\n        require(vehicleRegistrations[_vehicleId].approved, \"Vehicle must be approved\");\r\n        require(!vehicleRegistrations[_vehicleId].isStolen, \"Vehicle already reported as stolen\");\r\n        \r\n        vehicleRegistrations[_vehicleId].isStolen = true;\r\n        emit VehicleReportedStolen(_vehicleId, vehicleRegistrations[_vehicleId].vehicleNo, msg.sender);\r\n    }\r\n\r\n    // Function to mark vehicle as recovered - only government can recover\r\n    function markVehicleRecovered(uint _vehicleId) public onlyGovernment {\r\n        require(_vehicleId > 0 && _vehicleId <= registrationCount, \"Invalid vehicle ID\");\r\n        require(vehicleRegistrations[_vehicleId].isStolen, \"Vehicle is not reported as stolen\");\r\n        \r\n        vehicleRegistrations[_vehicleId].isStolen = false;\r\n        emit VehicleRecovered(_vehicleId, vehicleRegistrations[_vehicleId].vehicleNo, msg.sender);\r\n    }\r\n\r\n    // Function to check if vehicle is stolen\r\n    function isVehicleStolen(uint _vehicleId) public view returns (bool) {\r\n        require(_vehicleId > 0 && _vehicleId <= registrationCount, \"Invalid vehicle ID\");\r\n        return vehicleRegistrations[_vehicleId].isStolen;\r\n    }\r\n\r\n    // Function to get stolen vehicles (for government use)\r\n    function getStolenVehicles() public view returns (uint[] memory) {\r\n        uint[] memory stolenVehicleIds = new uint[](registrationCount);\r\n        uint count = 0;\r\n        \r\n        for (uint i = 1; i <= registrationCount; i++) {\r\n            if (vehicleRegistrations[i].isStolen && vehicleRegistrations[i].approved) {\r\n                stolenVehicleIds[count] = i;\r\n                count++;\r\n            }\r\n        }\r\n        \r\n        // Create a new array with the exact size\r\n        uint[] memory result = new uint[](count);\r\n        for (uint i = 0; i < count; i++) {\r\n            result[i] = stolenVehicleIds[i];\r\n        }\r\n        \r\n        return result;\r\n    }\r\n\r\n    function getVehicleId(string memory _vehicleNo) public view returns (uint) {\r\n        for (uint i = 1; i <= registrationCount; i++) {\r\n            if (keccak256(abi.encodePacked(vehicleRegistrations[i].vehicleNo)) == keccak256(abi.encodePacked(_vehicleNo))) {\r\n                return i;\r\n            }\r\n        }\r\n        return 0;\r\n    }\r\n\r\n    function getVehicleByWallet(address _ownerWallet) public view returns (\r\n        uint id, string memory vehicleNo, string memory vin, string memory vehicleMake,\r\n        string memory vehicleModel, string memory vehicleModelYear, string memory vehicleRegistrationYear,\r\n        bool approved, string memory documentHash, string memory imageHash, bool isStolen\r\n    ) {\r\n        for (uint i = 1; i <= registrationCount; i++) {\r\n            if (vehicleRegistrations[i].ownerWallet == _ownerWallet) {\r\n                VehicleRegistration memory reg = vehicleRegistrations[i];\r\n                return (\r\n                    reg.id, reg.vehicleNo, reg.vin, reg.vehicleMake,\r\n                    reg.vehicleModel, reg.vehicleModelYear, reg.vehicleRegistrationYear,\r\n                    reg.approved, reg.documentHash, reg.imageHash, reg.isStolen\r\n                );\r\n            }\r\n        }\r\n        revert(\"No vehicle found for this wallet address\");\r\n    }\r\n    \r\n    function getTransferRequest(uint _requestId) public view returns (\r\n        uint registrationId,\r\n        address currentOwner,\r\n        address newOwner,\r\n        bool approved,\r\n        bool completed\r\n    ) {\r\n        require(_requestId > 0 && _requestId <= transferRequestCount, \"Invalid request ID\");\r\n        OwnershipTransferRequest memory req = transferRequests[_requestId];\r\n        return (\r\n            req.registrationId,\r\n            req.currentOwner,\r\n            req.newOwner,\r\n            req.approved,\r\n            req.completed\r\n        );\r\n    }\r\n    \r\n    // Updated function to get ownership history of a vehicle\r\n    function getVehicleOwnershipHistory(uint _vehicleId) public view returns (\r\n        address[] memory owners,\r\n        uint[] memory dates\r\n    ) {\r\n        require(_vehicleId > 0 && _vehicleId <= registrationCount, \"Invalid vehicle ID\");\r\n        VehicleRegistration storage vehicle = vehicleRegistrations[_vehicleId];\r\n        \r\n        // Return the complete ownership history in chronological order\r\n        return (vehicle.ownershipHistory, vehicle.ownershipDates);\r\n    }\r\n}",
  "sourcePath": "C:\\Users\\smume\\OneDrive\\Desktop\\New folder\\Vehicle-Registration-Blockchain-main\\Vehicle-Registration-Blockchain-main\\contracts\\Vehicle.sol",
  "compiler": {
    "name": "solc",
    "version": "0.8.19+commit.7dd6d404.Emscripten.clang"
  },
  "schemaVersion": "3.4.16",
  "updatedAt": "2025-05-23T06:25:32.617Z",
  "devdoc": {
    "kind": "dev",
    "methods": {},
    "version": 1
  },
  "userdoc": {
    "kind": "user",
    "methods": {},
    "version": 1
  }
}