{
  "contractName": "VehicleManagement",
  "abi": [
    {
      "anonymous": false,
      "inputs": [
        {
          "indexed": false,
          "internalType": "uint256",
          "name": "requestId",
          "type": "uint256"
        },
        {
          "indexed": false,
          "internalType": "string",
          "name": "vehicleNo",
          "type": "string"
        },
        {
          "indexed": false,
          "internalType": "address",
          "name": "oldOwner",
          "type": "address"
        },
        {
          "indexed": false,
          "internalType": "address",
          "name": "newOwner",
          "type": "address"
        }
      ],
      "name": "OwnershipTransferApproved",
      "type": "event"
    },
    {
      "anonymous": false,
      "inputs": [
        {
          "indexed": false,
          "internalType": "uint256",
          "name": "requestId",
          "type": "uint256"
        },
        {
          "indexed": false,
          "internalType": "string",
          "name": "vehicleNo",
          "type": "string"
        },
        {
          "indexed": false,
          "internalType": "string",
          "name": "vin",
          "type": "string"
        },
        {
          "indexed": false,
          "internalType": "uint256",
          "name": "registrationId",
          "type": "uint256"
        },
        {
          "indexed": false,
          "internalType": "address",
          "name": "currentOwner",
          "type": "address"
        },
        {
          "indexed": false,
          "internalType": "address",
          "name": "newOwner",
          "type": "address"
        }
      ],
      "name": "OwnershipTransferRequested",
      "type": "event"
    },
    {
      "anonymous": false,
      "inputs": [
        {
          "indexed": false,
          "internalType": "uint256",
          "name": "registerId",
          "type": "uint256"
        },
        {
          "indexed": false,
          "internalType": "address",
          "name": "oldOwner",
          "type": "address"
        },
        {
          "indexed": false,
          "internalType": "address",
          "name": "newOwner",
          "type": "address"
        }
      ],
      "name": "OwnershipTransferred",
      "type": "event"
    },
    {
      "anonymous": false,
      "inputs": [
        {
          "indexed": false,
          "internalType": "uint256",
          "name": "userId",
          "type": "uint256"
        },
        {
          "indexed": false,
          "internalType": "address",
          "name": "wallet",
          "type": "address"
        }
      ],
      "name": "UserApproved",
      "type": "event"
    },
    {
      "anonymous": false,
      "inputs": [
        {
          "indexed": false,
          "internalType": "uint256",
          "name": "userId",
          "type": "uint256"
        },
        {
          "indexed": false,
          "internalType": "string",
          "name": "email",
          "type": "string"
        },
        {
          "indexed": false,
          "internalType": "address",
          "name": "wallet",
          "type": "address"
        }
      ],
      "name": "UserRegistered",
      "type": "event"
    },
    {
      "anonymous": false,
      "inputs": [
        {
          "indexed": false,
          "internalType": "uint256",
          "name": "registerId",
          "type": "uint256"
        },
        {
          "indexed": false,
          "internalType": "string",
          "name": "vehicleNo",
          "type": "string"
        },
        {
          "indexed": false,
          "internalType": "string",
          "name": "vin",
          "type": "string"
        },
        {
          "indexed": false,
          "internalType": "address",
          "name": "ownerWallet",
          "type": "address"
        }
      ],
      "name": "VehicleApproved",
      "type": "event"
    },
    {
      "anonymous": false,
      "inputs": [
        {
          "indexed": false,
          "internalType": "uint256",
          "name": "vehicleId",
          "type": "uint256"
        },
        {
          "indexed": false,
          "internalType": "string",
          "name": "vehicleNo",
          "type": "string"
        },
        {
          "indexed": false,
          "internalType": "address",
          "name": "recoveredBy",
          "type": "address"
        }
      ],
      "name": "VehicleRecovered",
      "type": "event"
    },
    {
      "anonymous": false,
      "inputs": [
        {
          "indexed": false,
          "internalType": "uint256",
          "name": "registerId",
          "type": "uint256"
        },
        {
          "indexed": false,
          "internalType": "string",
          "name": "vehicleNo",
          "type": "string"
        },
        {
          "indexed": false,
          "internalType": "string",
          "name": "vin",
          "type": "string"
        },
        {
          "indexed": false,
          "internalType": "address",
          "name": "ownerWallet",
          "type": "address"
        }
      ],
      "name": "VehicleRegistered",
      "type": "event"
    },
    {
      "anonymous": false,
      "inputs": [
        {
          "indexed": false,
          "internalType": "uint256",
          "name": "vehicleId",
          "type": "uint256"
        },
        {
          "indexed": false,
          "internalType": "string",
          "name": "vehicleNo",
          "type": "string"
        },
        {
          "indexed": false,
          "internalType": "address",
          "name": "reportedBy",
          "type": "address"
        }
      ],
      "name": "VehicleReportedStolen",
      "type": "event"
    },
    {
      "inputs": [
        {
          "internalType": "address",
          "name": "_userAddress",
          "type": "address"
        }
      ],
      "name": "approveUser",
      "outputs": [],
      "stateMutability": "nonpayable",
      "type": "function"
    },
    {
      "inputs": [
        {
          "internalType": "string",
          "name": "_email",
          "type": "string"
        }
      ],
      "name": "getUserId",
      "outputs": [
        {
          "internalType": "uint256",
          "name": "",
          "type": "uint256"
        }
      ],
      "stateMutability": "view",
      "type": "function"
    },
    {
      "inputs": [
        {
          "internalType": "address",
          "name": "_wallet",
          "type": "address"
        }
      ],
      "name": "getUserIdByAddress",
      "outputs": [
        {
          "internalType": "uint256",
          "name": "",
          "type": "uint256"
        }
      ],
      "stateMutability": "view",
      "type": "function"
    },
    {
      "inputs": [
        {
          "internalType": "string",
          "name": "_email",
          "type": "string"
        }
      ],
      "name": "getUserWallet",
      "outputs": [
        {
          "internalType": "address",
          "name": "",
          "type": "address"
        }
      ],
      "stateMutability": "view",
      "type": "function"
    },
    {
      "inputs": [],
      "name": "government",
      "outputs": [
        {
          "internalType": "address",
          "name": "",
          "type": "address"
        }
      ],
      "stateMutability": "view",
      "type": "function"
    },
    {
      "inputs": [
        {
          "internalType": "address",
          "name": "_userAddress",
          "type": "address"
        }
      ],
      "name": "isRegistered",
      "outputs": [
        {
          "internalType": "bool",
          "name": "",
          "type": "bool"
        }
      ],
      "stateMutability": "view",
      "type": "function"
    },
    {
      "inputs": [
        {
          "internalType": "string",
          "name": "_email",
          "type": "string"
        },
        {
          "internalType": "string",
          "name": "_name",
          "type": "string"
        },
        {
          "internalType": "string",
          "name": "_cnic",
          "type": "string"
        },
        {
          "internalType": "string",
          "name": "_password",
          "type": "string"
        }
      ],
      "name": "registerUser",
      "outputs": [],
      "stateMutability": "nonpayable",
      "type": "function"
    },
    {
      "inputs": [
        {
          "internalType": "address",
          "name": "",
          "type": "address"
        }
      ],
      "name": "registeredAddresses",
      "outputs": [
        {
          "internalType": "bool",
          "name": "",
          "type": "bool"
        }
      ],
      "stateMutability": "view",
      "type": "function"
    },
    {
      "inputs": [
        {
          "internalType": "string",
          "name": "",
          "type": "string"
        }
      ],
      "name": "registeredVehicles",
      "outputs": [
        {
          "internalType": "bool",
          "name": "",
          "type": "bool"
        }
      ],
      "stateMutability": "view",
      "type": "function"
    },
    {
      "inputs": [
        {
          "internalType": "string",
          "name": "",
          "type": "string"
        }
      ],
      "name": "registeredVehiclesvin",
      "outputs": [
        {
          "internalType": "bool",
          "name": "",
          "type": "bool"
        }
      ],
      "stateMutability": "view",
      "type": "function"
    },
    {
      "inputs": [],
      "name": "registrationCount",
      "outputs": [
        {
          "internalType": "uint256",
          "name": "",
          "type": "uint256"
        }
      ],
      "stateMutability": "view",
      "type": "function"
    },
    {
      "inputs": [],
      "name": "transferRequestCount",
      "outputs": [
        {
          "internalType": "uint256",
          "name": "",
          "type": "uint256"
        }
      ],
      "stateMutability": "view",
      "type": "function"
    },
    {
      "inputs": [
        {
          "internalType": "uint256",
          "name": "",
          "type": "uint256"
        }
      ],
      "name": "transferRequests",
      "outputs": [
        {
          "internalType": "uint256",
          "name": "registrationId",
          "type": "uint256"
        },
        {
          "internalType": "address",
          "name": "currentOwner",
          "type": "address"
        },
        {
          "internalType": "address",
          "name": "newOwner",
          "type": "address"
        },
        {
          "internalType": "bool",
          "name": "approved",
          "type": "bool"
        },
        {
          "internalType": "bool",
          "name": "completed",
          "type": "bool"
        }
      ],
      "stateMutability": "view",
      "type": "function"
    },
    {
      "inputs": [],
      "name": "userCount",
      "outputs": [
        {
          "internalType": "uint256",
          "name": "",
          "type": "uint256"
        }
      ],
      "stateMutability": "view",
      "type": "function"
    },
    {
      "inputs": [
        {
          "internalType": "address",
          "name": "",
          "type": "address"
        }
      ],
      "name": "userIdByAddress",
      "outputs": [
        {
          "internalType": "uint256",
          "name": "",
          "type": "uint256"
        }
      ],
      "stateMutability": "view",
      "type": "function"
    },
    {
      "inputs": [
        {
          "internalType": "uint256",
          "name": "",
          "type": "uint256"
        }
      ],
      "name": "users",
      "outputs": [
        {
          "internalType": "uint256",
          "name": "id",
          "type": "uint256"
        },
        {
          "internalType": "string",
          "name": "email",
          "type": "string"
        },
        {
          "internalType": "string",
          "name": "name",
          "type": "string"
        },
        {
          "internalType": "string",
          "name": "cnic",
          "type": "string"
        },
        {
          "internalType": "bytes32",
          "name": "passwordHash",
          "type": "bytes32"
        },
        {
          "internalType": "address",
          "name": "wallet",
          "type": "address"
        },
        {
          "internalType": "bool",
          "name": "approvedByGovt",
          "type": "bool"
        }
      ],
      "stateMutability": "view",
      "type": "function"
    },
    {
      "inputs": [
        {
          "internalType": "uint256",
          "name": "",
          "type": "uint256"
        }
      ],
      "name": "vehicleRegistrations",
      "outputs": [
        {
          "internalType": "uint256",
          "name": "id",
          "type": "uint256"
        },
        {
          "internalType": "address",
          "name": "ownerWallet",
          "type": "address"
        },
        {
          "internalType": "string",
          "name": "vehicleNo",
          "type": "string"
        },
        {
          "internalType": "string",
          "name": "vin",
          "type": "string"
        },
        {
          "internalType": "string",
          "name": "vehicleMake",
          "type": "string"
        },
        {
          "internalType": "string",
          "name": "vehicleModel",
          "type": "string"
        },
        {
          "internalType": "string",
          "name": "vehicleModelYear",
          "type": "string"
        },
        {
          "internalType": "string",
          "name": "vehicleRegistrationYear",
          "type": "string"
        },
        {
          "internalType": "bool",
          "name": "approved",
          "type": "bool"
        },
        {
          "internalType": "string",
          "name": "documentHash",
          "type": "string"
        },
        {
          "internalType": "string",
          "name": "imageHash",
          "type": "string"
        },
        {
          "internalType": "bool",
          "name": "isStolen",
          "type": "bool"
        }
      ],
      "stateMutability": "view",
      "type": "function"
    },
    {
      "inputs": [
        {
          "internalType": "string",
          "name": "_email",
          "type": "string"
        },
        {
          "internalType": "string",
          "name": "_password",
          "type": "string"
        }
      ],
      "name": "verifyLogin",
      "outputs": [
        {
          "internalType": "bool",
          "name": "",
          "type": "bool"
        }
      ],
      "stateMutability": "view",
      "type": "function"
    },
    {
      "inputs": [
        {
          "internalType": "address",
          "name": "_ownerWallet",
          "type": "address"
        },
        {
          "internalType": "string",
          "name": "_vehicleNo",
          "type": "string"
        },
        {
          "internalType": "string",
          "name": "_vin",
          "type": "string"
        },
        {
          "internalType": "string",
          "name": "_vehicleMake",
          "type": "string"
        },
        {
          "internalType": "string",
          "name": "_vehicleModel",
          "type": "string"
        },
        {
          "internalType": "string",
          "name": "_vehicleModelYear",
          "type": "string"
        },
        {
          "internalType": "string",
          "name": "_vehicleRegistrationYear",
          "type": "string"
        },
        {
          "internalType": "string",
          "name": "_documentHash",
          "type": "string"
        },
        {
          "internalType": "string",
          "name": "_imageHash",
          "type": "string"
        }
      ],
      "name": "registerVehicle",
      "outputs": [],
      "stateMutability": "nonpayable",
      "type": "function"
    },
    {
      "inputs": [
        {
          "internalType": "uint256",
          "name": "_registerId",
          "type": "uint256"
        }
      ],
      "name": "approveVehicle",
      "outputs": [],
      "stateMutability": "nonpayable",
      "type": "function"
    },
    {
      "inputs": [
        {
          "internalType": "string",
          "name": "_vehicleNo",
          "type": "string"
        }
      ],
      "name": "vehicleExists",
      "outputs": [
        {
          "internalType": "bool",
          "name": "",
          "type": "bool"
        }
      ],
      "stateMutability": "view",
      "type": "function"
    },
    {
      "inputs": [
        {
          "internalType": "string",
          "name": "_vin",
          "type": "string"
        }
      ],
      "name": "vinExist",
      "outputs": [
        {
          "internalType": "bool",
          "name": "",
          "type": "bool"
        }
      ],
      "stateMutability": "view",
      "type": "function"
    },
    {
      "inputs": [
        {
          "internalType": "string",
          "name": "_vehicleNo",
          "type": "string"
        },
        {
          "internalType": "address",
          "name": "_newOwnerWallet",
          "type": "address"
        }
      ],
      "name": "requestOwnershipTransfer",
      "outputs": [],
      "stateMutability": "nonpayable",
      "type": "function"
    },
    {
      "inputs": [
        {
          "internalType": "uint256",
          "name": "_requestId",
          "type": "uint256"
        }
      ],
      "name": "approveOwnershipTransfer",
      "outputs": [],
      "stateMutability": "nonpayable",
      "type": "function"
    },
    {
      "inputs": [
        {
          "internalType": "uint256",
          "name": "_vehicleId",
          "type": "uint256"
        }
      ],
      "name": "reportVehicleStolen",
      "outputs": [],
      "stateMutability": "nonpayable",
      "type": "function"
    },
    {
      "inputs": [
        {
          "internalType": "uint256",
          "name": "_vehicleId",
          "type": "uint256"
        }
      ],
      "name": "markVehicleRecovered",
      "outputs": [],
      "stateMutability": "nonpayable",
      "type": "function"
    },
    {
      "inputs": [
        {
          "internalType": "uint256",
          "name": "_vehicleId",
          "type": "uint256"
        }
      ],
      "name": "isVehicleStolen",
      "outputs": [
        {
          "internalType": "bool",
          "name": "",
          "type": "bool"
        }
      ],
      "stateMutability": "view",
      "type": "function"
    },
    {
      "inputs": [],
      "name": "getStolenVehicles",
      "outputs": [
        {
          "internalType": "uint256[]",
          "name": "",
          "type": "uint256[]"
        }
      ],
      "stateMutability": "view",
      "type": "function"
    },
    {
      "inputs": [
        {
          "internalType": "string",
          "name": "_vehicleNo",
          "type": "string"
        }
      ],
      "name": "getVehicleId",
      "outputs": [
        {
          "internalType": "uint256",
          "name": "",
          "type": "uint256"
        }
      ],
      "stateMutability": "view",
      "type": "function"
    },
    {
      "inputs": [
        {
          "internalType": "address",
          "name": "_ownerWallet",
          "type": "address"
        }
      ],
      "name": "getVehicleByWallet",
      "outputs": [
        {
          "internalType": "uint256",
          "name": "id",
          "type": "uint256"
        },
        {
          "internalType": "string",
          "name": "vehicleNo",
          "type": "string"
        },
        {
          "internalType": "string",
          "name": "vin",
          "type": "string"
        },
        {
          "internalType": "string",
          "name": "vehicleMake",
          "type": "string"
        },
        {
          "internalType": "string",
          "name": "vehicleModel",
          "type": "string"
        },
        {
          "internalType": "string",
          "name": "vehicleModelYear",
          "type": "string"
        },
        {
          "internalType": "string",
          "name": "vehicleRegistrationYear",
          "type": "string"
        },
        {
          "internalType": "bool",
          "name": "approved",
          "type": "bool"
        },
        {
          "internalType": "string",
          "name": "documentHash",
          "type": "string"
        },
        {
          "internalType": "string",
          "name": "imageHash",
          "type": "string"
        },
        {
          "internalType": "bool",
          "name": "isStolen",
          "type": "bool"
        }
      ],
      "stateMutability": "view",
      "type": "function"
    },
    {
      "inputs": [
        {
          "internalType": "uint256",
          "name": "_requestId",
          "type": "uint256"
        }
      ],
      "name": "getTransferRequest",
      "outputs": [
        {
          "internalType": "uint256",
          "name": "registrationId",
          "type": "uint256"
        },
        {
          "internalType": "address",
          "name": "currentOwner",
          "type": "address"
        },
        {
          "internalType": "address",
          "name": "newOwner",
          "type": "address"
        },
        {
          "internalType": "bool",
          "name": "approved",
          "type": "bool"
        },
        {
          "internalType": "bool",
          "name": "completed",
          "type": "bool"
        }
      ],
      "stateMutability": "view",
      "type": "function"
    },
    {
      "inputs": [
        {
          "internalType": "uint256",
          "name": "_vehicleId",
          "type": "uint256"
        }
      ],
      "name": "getVehicleOwnershipHistory",
      "outputs": [
        {
          "internalType": "address[]",
          "name": "owners",
          "type": "address[]"
        },
        {
          "internalType": "uint256[]",
          "name": "dates",
          "type": "uint256[]"
        }
      ],
      "stateMutability": "view",
      "type": "function"
    }
  ],
  "bytecode": "0x6080604052738de289a68cd9f1ddb6eda5684cf9aac6c6311f606000806101000a81548173ffffffffffffffffffffffffffffffffffffffff021916908373ffffffffffffffffffffffffffffffffffffffff160217905550600060045560006006556000600a5534801561007357600080fd5b50615a6f80620000846000396000f3fe608060405234801561001057600080fd5b50600436106101f05760003560e01c80637a5625d91161010f578063c3c5a547116100a2578063e41b9cf511610071578063e41b9cf514610668578063e577551514610684578063ee2c29b0146106b4578063fe5f8d12146106ef576101f0565b8063c3c5a547146105ce578063d2d50eab146105fe578063d624fdb61461061c578063db1ef71f14610638576101f0565b806399807e4c116100de57806399807e4c1461051e578063b2dd18f414610552578063be90947a14610582578063c3214f07146105b2576101f0565b80637a5625d91461047257806388401aba146104a257806393e54a56146104d257806397f0f850146104ee576101f0565b8063321918a71161018757806357b871dc1161015657806357b871dc146103d95780635d26c72e146103f5578063708fdb961461042657806376b22eac14610442576101f0565b8063321918a714610309578063365b98b214610343578063385399f9146103795780634b759088146103a9576101f0565b80632672f526116101c35780632672f526146102815780632977f01c1461029f5780632b18724a146102bb578063309520ff146102d9576101f0565b806303486c40146101f557806307973ccf146102295780630d3eafd6146102475780632577233e14610265575b600080fd5b61020f600480360381019061020a9190613b74565b61071f565b604051610220959493929190613c0c565b60405180910390f35b6102316107af565b60405161023e9190613c5f565b60405180910390f35b61024f6107b5565b60405161025c9190613c5f565b60405180910390f35b61027f600480360381019061027a9190613b74565b6107bb565b005b610289610cf5565b6040516102969190613c7a565b60405180910390f35b6102b960048036038101906102b49190613b74565b610d19565b005b6102c3610edd565b6040516102d09190613d53565b60405180910390f35b6102f360048036038101906102ee9190613ebb565b611086565b6040516103009190613f04565b60405180910390f35b610323600480360381019061031e9190613f4b565b6110bb565b60405161033a9b9a99989796959493929190613ff7565b60405180910390f35b61035d60048036038101906103589190613b74565b61182a565b60405161037097969594939291906140f3565b60405180910390f35b610393600480360381019061038e9190613f4b565b611a31565b6040516103a09190613c5f565b60405180910390f35b6103c360048036038101906103be9190613f4b565b611a7a565b6040516103d09190613c5f565b60405180910390f35b6103f360048036038101906103ee9190614177565b611a92565b005b61040f600480360381019061040a9190613b74565b611f30565b60405161041d929190614291565b60405180910390f35b610440600480360381019061043b91906142c8565b612087565b005b61045c60048036038101906104579190613f4b565b61261f565b6040516104699190613f04565b60405180910390f35b61048c60048036038101906104879190613ebb565b61263f565b6040516104999190613c5f565b60405180910390f35b6104bc60048036038101906104b79190613ebb565b6126df565b6040516104c99190613f04565b60405180910390f35b6104ec60048036038101906104e79190614472565b612715565b005b61050860048036038101906105039190613ebb565b6129e3565b6040516105159190613f04565b60405180910390f35b61053860048036038101906105339190613b74565b612a19565b604051610549959493929190613c0c565b60405180910390f35b61056c60048036038101906105679190613ebb565b612bac565b6040516105799190613f04565b60405180910390f35b61059c60048036038101906105979190614549565b612be1565b6040516105a99190613f04565b60405180910390f35b6105cc60048036038101906105c79190613b74565b612c76565b005b6105e860048036038101906105e39190613f4b565b612f0e565b6040516105f59190613f04565b60405180910390f35b610606612f64565b6040516106139190613c5f565b60405180910390f35b61063660048036038101906106319190613f4b565b612f6a565b005b610652600480360381019061064d9190613ebb565b6130eb565b60405161065f9190613c5f565b60405180910390f35b610682600480360381019061067d9190613b74565b61318b565b005b61069e60048036038101906106999190613ebb565b6133cb565b6040516106ab9190613c7a565b60405180910390f35b6106ce60048036038101906106c99190613b74565b61345b565b6040516106e69c9b9a999897969594939291906145c1565b60405180910390f35b61070960048036038101906107049190613b74565b613935565b6040516107169190613f04565b60405180910390f35b60096020528060005260406000206000915090508060000154908060010160009054906101000a900473ffffffffffffffffffffffffffffffffffffffff16908060020160009054906101000a900473ffffffffffffffffffffffffffffffffffffffff16908060020160149054906101000a900460ff16908060020160159054906101000a900460ff16905085565b60045481565b60065481565b60008054906101000a900473ffffffffffffffffffffffffffffffffffffffff1673ffffffffffffffffffffffffffffffffffffffff163373ffffffffffffffffffffffffffffffffffffffff1614610849576040517f08c379a000000000000000000000000000000000000000000000000000000000815260040161084090614725565b60405180910390fd5b60008111801561085b5750600a548111155b61089a576040517f08c379a000000000000000000000000000000000000000000000000000000000815260040161089190614791565b60405180910390fd5b6009600082815260200190815260200160002060020160149054906101000a900460ff16156108fe576040517f08c379a00000000000000000000000000000000000000000000000000000000081526004016108f5906147fd565b60405180910390fd5b6009600082815260200190815260200160002060020160159054906101000a900460ff1615610962576040517f08c379a000000000000000000000000000000000000000000000000000000000815260040161095990614869565b60405180910390fd5b60006009600083815260200190815260200160002060000154905060056000828152602001908152602001600020600d0160009054906101000a900460ff16156109e1576040517f08c379a00000000000000000000000000000000000000000000000000000000081526004016109d8906148fb565b60405180910390fd5b60016009600084815260200190815260200160002060020160146101000a81548160ff02191690831515021790555060006009600084815260200190815260200160002060010160009054906101000a900473ffffffffffffffffffffffffffffffffffffffff16905060006009600085815260200190815260200160002060020160009054906101000a900473ffffffffffffffffffffffffffffffffffffffff1690507ff73d69570eccd6f2339743c4bee60201dff8cd4f3da346d3b96c1a302582449484600560008681526020019081526020016000206002018484604051610ad09493929190614a14565b60405180910390a16005600084815260200190815260200160002060010160009054906101000a900473ffffffffffffffffffffffffffffffffffffffff1673ffffffffffffffffffffffffffffffffffffffff168273ffffffffffffffffffffffffffffffffffffffff1614610b7c576040517f08c379a0000000000000000000000000000000000000000000000000000000008152600401610b7390614aac565b60405180910390fd5b60056000848152602001908152602001600020600b01819080600181540180825580915050600190039060005260206000200160009091909190916101000a81548173ffffffffffffffffffffffffffffffffffffffff021916908373ffffffffffffffffffffffffffffffffffffffff16021790555060056000848152602001908152602001600020600c01429080600181540180825580915050600190039060005260206000200160009091909190915055806005600085815260200190815260200160002060010160006101000a81548173ffffffffffffffffffffffffffffffffffffffff021916908373ffffffffffffffffffffffffffffffffffffffff16021790555060016009600086815260200190815260200160002060020160156101000a81548160ff0219169083151502179055507f16b85f49bf01212961345d3016c9a531894accf62eb7680f2045d79185cc0ec0838383604051610ce793929190614acc565b60405180910390a150505050565b60008054906101000a900473ffffffffffffffffffffffffffffffffffffffff1681565b60008054906101000a900473ffffffffffffffffffffffffffffffffffffffff1673ffffffffffffffffffffffffffffffffffffffff163373ffffffffffffffffffffffffffffffffffffffff1614610da7576040517f08c379a0000000000000000000000000000000000000000000000000000000008152600401610d9e90614725565b60405180910390fd5b600081118015610db957506006548111155b610df8576040517f08c379a0000000000000000000000000000000000000000000000000000000008152600401610def90614b4f565b60405180910390fd5b60056000828152602001908152602001600020600d0160009054906101000a900460ff16610e5b576040517f08c379a0000000000000000000000000000000000000000000000000000000008152600401610e5290614be1565b60405180910390fd5b600060056000838152602001908152602001600020600d0160006101000a81548160ff0219169083151502179055507f7fec80007712112ed135d87f7da7c3024b66a4f3a14baf0a44cfc17c9b8d8c76816005600084815260200190815260200160002060020133604051610ed293929190614c01565b60405180910390a150565b6060600060065467ffffffffffffffff811115610efd57610efc613d90565b5b604051908082528060200260200182016040528015610f2b5781602001602082028036833780820191505090505b509050600080600190505b6006548111610fd65760056000828152602001908152602001600020600d0160009054906101000a900460ff168015610f8f57506005600082815260200190815260200160002060080160009054906101000a900460ff165b15610fc35780838381518110610fa857610fa7614c3f565b5b6020026020010181815250508180610fbf90614c9d565b9250505b8080610fce90614c9d565b915050610f36565b5060008167ffffffffffffffff811115610ff357610ff2613d90565b5b6040519080825280602002602001820160405280156110215781602001602082028036833780820191505090505b50905060005b8281101561107c5783818151811061104257611041614c3f565b5b602002602001015182828151811061105d5761105c614c3f565b5b602002602001018181525050808061107490614c9d565b915050611027565b5080935050505090565b60006008826040516110989190614d21565b908152602001604051809103902060009054906101000a900460ff169050919050565b60006060806060806060806000606080600080600190505b60065481116117df578c73ffffffffffffffffffffffffffffffffffffffff166005600083815260200190815260200160002060010160009054906101000a900473ffffffffffffffffffffffffffffffffffffffff1673ffffffffffffffffffffffffffffffffffffffff16036117cc57600060056000838152602001908152602001600020604051806101c0016040529081600082015481526020016001820160009054906101000a900473ffffffffffffffffffffffffffffffffffffffff1673ffffffffffffffffffffffffffffffffffffffff1673ffffffffffffffffffffffffffffffffffffffff1681526020016002820180546111d69061494a565b80601f01602080910402602001604051908101604052809291908181526020018280546112029061494a565b801561124f5780601f106112245761010080835404028352916020019161124f565b820191906000526020600020905b81548152906001019060200180831161123257829003601f168201915b505050505081526020016003820180546112689061494a565b80601f01602080910402602001604051908101604052809291908181526020018280546112949061494a565b80156112e15780601f106112b6576101008083540402835291602001916112e1565b820191906000526020600020905b8154815290600101906020018083116112c457829003601f168201915b505050505081526020016004820180546112fa9061494a565b80601f01602080910402602001604051908101604052809291908181526020018280546113269061494a565b80156113735780601f1061134857610100808354040283529160200191611373565b820191906000526020600020905b81548152906001019060200180831161135657829003601f168201915b5050505050815260200160058201805461138c9061494a565b80601f01602080910402602001604051908101604052809291908181526020018280546113b89061494a565b80156114055780601f106113da57610100808354040283529160200191611405565b820191906000526020600020905b8154815290600101906020018083116113e857829003601f168201915b5050505050815260200160068201805461141e9061494a565b80601f016020809104026020016040519081016040528092919081815260200182805461144a9061494a565b80156114975780601f1061146c57610100808354040283529160200191611497565b820191906000526020600020905b81548152906001019060200180831161147a57829003601f168201915b505050505081526020016007820180546114b09061494a565b80601f01602080910402602001604051908101604052809291908181526020018280546114dc9061494a565b80156115295780601f106114fe57610100808354040283529160200191611529565b820191906000526020600020905b81548152906001019060200180831161150c57829003601f168201915b505050505081526020016008820160009054906101000a900460ff1615151515815260200160098201805461155d9061494a565b80601f01602080910402602001604051908101604052809291908181526020018280546115899061494a565b80156115d65780601f106115ab576101008083540402835291602001916115d6565b820191906000526020600020905b8154815290600101906020018083116115b957829003601f168201915b50505050508152602001600a820180546115ef9061494a565b80601f016020809104026020016040519081016040528092919081815260200182805461161b9061494a565b80156116685780601f1061163d57610100808354040283529160200191611668565b820191906000526020600020905b81548152906001019060200180831161164b57829003601f168201915b50505050508152602001600b82018054806020026020016040519081016040528092919081815260200182805480156116f657602002820191906000526020600020905b8160009054906101000a900473ffffffffffffffffffffffffffffffffffffffff1673ffffffffffffffffffffffffffffffffffffffff16815260200190600101908083116116ac575b50505050508152602001600c820180548060200260200160405190810160405280929190818152602001828054801561174e57602002820191906000526020600020905b81548152602001906001019080831161173a575b50505050508152602001600d820160009054906101000a900460ff161515151581525050905080600001518160400151826060015183608001518460a001518560c001518660e001518761010001518861012001518961014001518a6101a001519c509c509c509c509c509c509c509c509c509c509c50505061181b565b80806117d790614c9d565b9150506110d3565b506040517f08c379a000000000000000000000000000000000000000000000000000000000815260040161181290614daa565b60405180910390fd5b91939597999b90929496989a50565b60026020528060005260406000206000915090508060000154908060010180546118539061494a565b80601f016020809104026020016040519081016040528092919081815260200182805461187f9061494a565b80156118cc5780601f106118a1576101008083540402835291602001916118cc565b820191906000526020600020905b8154815290600101906020018083116118af57829003601f168201915b5050505050908060020180546118e19061494a565b80601f016020809104026020016040519081016040528092919081815260200182805461190d9061494a565b801561195a5780601f1061192f5761010080835404028352916020019161195a565b820191906000526020600020905b81548152906001019060200180831161193d57829003601f168201915b50505050509080600301805461196f9061494a565b80601f016020809104026020016040519081016040528092919081815260200182805461199b9061494a565b80156119e85780601f106119bd576101008083540402835291602001916119e8565b820191906000526020600020905b8154815290600101906020018083116119cb57829003601f168201915b5050505050908060040154908060050160009054906101000a900473ffffffffffffffffffffffffffffffffffffffff16908060050160149054906101000a900460ff16905087565b6000600360008373ffffffffffffffffffffffffffffffffffffffff1673ffffffffffffffffffffffffffffffffffffffff168152602001908152602001600020549050919050565b60036020528060005260406000206000915090505481565b6000611a9d8361263f565b905060008103611ae2576040517f08c379a0000000000000000000000000000000000000000000000000000000008152600401611ad990614e16565b60405180910390fd5b6005600082815260200190815260200160002060080160009054906101000a900460ff16611b45576040517f08c379a0000000000000000000000000000000000000000000000000000000008152600401611b3c90614ea8565b60405180910390fd5b6005600082815260200190815260200160002060010160009054906101000a900473ffffffffffffffffffffffffffffffffffffffff1673ffffffffffffffffffffffffffffffffffffffff163373ffffffffffffffffffffffffffffffffffffffff1614611be9576040517f08c379a0000000000000000000000000000000000000000000000000000000008152600401611be090614f3a565b60405180910390fd5b600160008373ffffffffffffffffffffffffffffffffffffffff1673ffffffffffffffffffffffffffffffffffffffff16815260200190815260200160002060009054906101000a900460ff16611c75576040517f08c379a0000000000000000000000000000000000000000000000000000000008152600401611c6c90614fcc565b60405180910390fd5b60056000828152602001908152602001600020600d0160009054906101000a900460ff1615611cd9576040517f08c379a0000000000000000000000000000000000000000000000000000000008152600401611cd090615038565b60405180910390fd5b6000611ce483611a31565b905060008103611d29576040517f08c379a0000000000000000000000000000000000000000000000000000000008152600401611d2090614fcc565b60405180910390fd5b611d32836139b2565b611d71576040517f08c379a0000000000000000000000000000000000000000000000000000000008152600401611d68906150ca565b60405180910390fd5b600a6000815480929190611d8490614c9d565b91905055506040518060a001604052808381526020013373ffffffffffffffffffffffffffffffffffffffff1681526020018473ffffffffffffffffffffffffffffffffffffffff1681526020016000151581526020016000151581525060096000600a5481526020019081526020016000206000820151816000015560208201518160010160006101000a81548173ffffffffffffffffffffffffffffffffffffffff021916908373ffffffffffffffffffffffffffffffffffffffff16021790555060408201518160020160006101000a81548173ffffffffffffffffffffffffffffffffffffffff021916908373ffffffffffffffffffffffffffffffffffffffff16021790555060608201518160020160146101000a81548160ff02191690831515021790555060808201518160020160156101000a81548160ff0219169083151502179055509050507f109589349efc5ecfb7cd96007f9c72945c6277f3fb107d0e4a2b37263a03dfc3600a548560056000868152602001908152602001600020600301853388604051611f22969594939291906150ea565b60405180910390a150505050565b606080600083118015611f4557506006548311155b611f84576040517f08c379a0000000000000000000000000000000000000000000000000000000008152600401611f7b90614b4f565b60405180910390fd5b600060056000858152602001908152602001600020905080600b0181600c018180548060200260200160405190810160405280929190818152602001828054801561202457602002820191906000526020600020905b8160009054906101000a900473ffffffffffffffffffffffffffffffffffffffff1673ffffffffffffffffffffffffffffffffffffffff1681526020019060010190808311611fda575b505050505091508080548060200260200160405190810160405280929190818152602001828054801561207657602002820191906000526020600020905b815481526020019060010190808311612062575b505050505090509250925050915091565b6007886040516120979190614d21565b908152602001604051809103902060009054906101000a900460ff16156120f3576040517f08c379a00000000000000000000000000000000000000000000000000000000081526004016120ea906151a5565b60405180910390fd5b600160008a73ffffffffffffffffffffffffffffffffffffffff1673ffffffffffffffffffffffffffffffffffffffff16815260200190815260200160002060009054906101000a900460ff1661217f576040517f08c379a000000000000000000000000000000000000000000000000000000000815260040161217690615211565b60405180910390fd5b600160003373ffffffffffffffffffffffffffffffffffffffff1673ffffffffffffffffffffffffffffffffffffffff16815260200190815260200160002060009054906101000a900460ff1661220b576040517f08c379a0000000000000000000000000000000000000000000000000000000008152600401612202906152a3565b60405180910390fd5b600061221633611a31565b03612256576040517f08c379a000000000000000000000000000000000000000000000000000000000815260040161224d906152a3565b60405180910390fd5b61225f336139b2565b61229e576040517f08c379a000000000000000000000000000000000000000000000000000000000815260040161229590615335565b60405180910390fd5b60008067ffffffffffffffff8111156122ba576122b9613d90565b5b6040519080825280602002602001820160405280156122e85781602001602082028036833780820191505090505b50905060008067ffffffffffffffff81111561230757612306613d90565b5b6040519080825280602002602001820160405280156123355781602001602082028036833780820191505090505b5090506006600081548092919061234b90614c9d565b9190505550604051806101c0016040528060065481526020018c73ffffffffffffffffffffffffffffffffffffffff1681526020018b81526020018a8152602001898152602001888152602001878152602001868152602001600015158152602001858152602001848152602001838152602001828152602001600015158152506005600060065481526020019081526020016000206000820151816000015560208201518160010160006101000a81548173ffffffffffffffffffffffffffffffffffffffff021916908373ffffffffffffffffffffffffffffffffffffffff160217905550604082015181600201908161244791906154ec565b50606082015181600301908161245d91906154ec565b50608082015181600401908161247391906154ec565b5060a082015181600501908161248991906154ec565b5060c082015181600601908161249f91906154ec565b5060e08201518160070190816124b591906154ec565b506101008201518160080160006101000a81548160ff0219169083151502179055506101208201518160090190816124ed91906154ec565b5061014082015181600a01908161250491906154ec565b5061016082015181600b019080519060200190612522929190613a36565b5061018082015181600c019080519060200190612540929190613ac0565b506101a082015181600d0160006101000a81548160ff021916908315150217905550905050600160078b6040516125779190614d21565b908152602001604051809103902060006101000a81548160ff021916908315150217905550600160088a6040516125ae9190614d21565b908152602001604051809103902060006101000a81548160ff0219169083151502179055507f2555481e3ee9e0c2905a28990acf26709fa5ce23bb982f74815f87aeea62b69e6006548b8b8e60405161260a94939291906155be565b60405180910390a15050505050505050505050565b60016020528060005260406000206000915054906101000a900460ff1681565b600080600190505b60065481116126d457826040516020016126619190614d21565b604051602081830303815290604052805190602001206005600083815260200190815260200160002060020160405160200161269d9190615694565b60405160208183030381529060405280519060200120036126c157809150506126da565b80806126cc90614c9d565b915050612647565b50600090505b919050565b6007818051602081018201805184825260208301602085012081835280955050505050506000915054906101000a900460ff1681565b600160003373ffffffffffffffffffffffffffffffffffffffff1673ffffffffffffffffffffffffffffffffffffffff16815260200190815260200160002060009054906101000a900460ff16156127a2576040517f08c379a0000000000000000000000000000000000000000000000000000000008152600401612799906156f7565b60405180910390fd5b600460008154809291906127b590614c9d565b91905055506040518060e001604052806004548152602001858152602001848152602001838152602001826040516020016127f09190614d21565b6040516020818303038152906040528051906020012081526020013373ffffffffffffffffffffffffffffffffffffffff1681526020016000151581525060026000600454815260200190815260200160002060008201518160000155602082015181600101908161286291906154ec565b50604082015181600201908161287891906154ec565b50606082015181600301908161288e91906154ec565b506080820151816004015560a08201518160050160006101000a81548173ffffffffffffffffffffffffffffffffffffffff021916908373ffffffffffffffffffffffffffffffffffffffff16021790555060c08201518160050160146101000a81548160ff02191690831515021790555090505060018060003373ffffffffffffffffffffffffffffffffffffffff1673ffffffffffffffffffffffffffffffffffffffff16815260200190815260200160002060006101000a81548160ff021916908315150217905550600454600360003373ffffffffffffffffffffffffffffffffffffffff1673ffffffffffffffffffffffffffffffffffffffff168152602001908152602001600020819055507ff9f470b753810725157b794665955ed6428420a93ae28c045cc736ff3306848f60045485336040516129d593929190615717565b60405180910390a150505050565b6008818051602081018201805184825260208301602085012081835280955050505050506000915054906101000a900460ff1681565b60008060008060008086118015612a325750600a548611155b612a71576040517f08c379a0000000000000000000000000000000000000000000000000000000008152600401612a6890614791565b60405180910390fd5b6000600960008881526020019081526020016000206040518060a0016040529081600082015481526020016001820160009054906101000a900473ffffffffffffffffffffffffffffffffffffffff1673ffffffffffffffffffffffffffffffffffffffff1673ffffffffffffffffffffffffffffffffffffffff1681526020016002820160009054906101000a900473ffffffffffffffffffffffffffffffffffffffff1673ffffffffffffffffffffffffffffffffffffffff1673ffffffffffffffffffffffffffffffffffffffff1681526020016002820160149054906101000a900460ff161515151581526020016002820160159054906101000a900460ff161515151581525050905080600001518160200151826040015183606001518460800151955095509550955095505091939590929450565b6000600782604051612bbe9190614d21565b908152602001604051809103902060009054906101000a900460ff169050919050565b600080612bed846130eb565b905060008103612c01576000915050612c70565b82604051602001612c129190614d21565b604051602081830303815290604052805190602001206002600083815260200190815260200160002060040154148015612c6c57506002600082815260200190815260200160002060050160149054906101000a900460ff165b9150505b92915050565b60008054906101000a900473ffffffffffffffffffffffffffffffffffffffff1673ffffffffffffffffffffffffffffffffffffffff163373ffffffffffffffffffffffffffffffffffffffff1614612d04576040517f08c379a0000000000000000000000000000000000000000000000000000000008152600401612cfb90614725565b60405180910390fd5b600081118015612d1657506006548111155b612d55576040517f08c379a0000000000000000000000000000000000000000000000000000000008152600401612d4c906157a1565b60405180910390fd5b60016005600083815260200190815260200160002060080160006101000a81548160ff02191690831515021790555060056000828152602001908152602001600020600b016005600083815260200190815260200160002060010160009054906101000a900473ffffffffffffffffffffffffffffffffffffffff169080600181540180825580915050600190039060005260206000200160009091909190916101000a81548173ffffffffffffffffffffffffffffffffffffffff021916908373ffffffffffffffffffffffffffffffffffffffff16021790555060056000828152602001908152602001600020600c014290806001815401808255809150506001900390600052602060002001600090919091909150557fb5f82b604d3af72e04aec8f752d8d1123410639c9a9a60219d32f4b853dbbb288160056000848152602001908152602001600020600201600560008581526020019081526020016000206003016005600086815260200190815260200160002060010160009054906101000a900473ffffffffffffffffffffffffffffffffffffffff16604051612f0394939291906157c1565b60405180910390a150565b6000600160008373ffffffffffffffffffffffffffffffffffffffff1673ffffffffffffffffffffffffffffffffffffffff16815260200190815260200160002060009054906101000a900460ff169050919050565b600a5481565b60008054906101000a900473ffffffffffffffffffffffffffffffffffffffff1673ffffffffffffffffffffffffffffffffffffffff163373ffffffffffffffffffffffffffffffffffffffff1614612ff8576040517f08c379a0000000000000000000000000000000000000000000000000000000008152600401612fef90614725565b60405180910390fd5b6000600360008373ffffffffffffffffffffffffffffffffffffffff1673ffffffffffffffffffffffffffffffffffffffff1681526020019081526020016000205490506000810361307f576040517f08c379a000000000000000000000000000000000000000000000000000000000815260040161307690615860565b60405180910390fd5b60016002600083815260200190815260200160002060050160146101000a81548160ff0219169083151502179055507fb435ccfdf94417a9bbf268346b63899f30e15fc0532649688f86a389041b2bf381836040516130df929190615880565b60405180910390a15050565b600080600190505b6004548111613180578260405160200161310d9190614d21565b60405160208183030381529060405280519060200120600260008381526020019081526020016000206001016040516020016131499190615694565b604051602081830303815290604052805190602001200361316d5780915050613186565b808061317890614c9d565b9150506130f3565b50600090505b919050565b8060008111801561319e57506006548111155b6131dd576040517f08c379a00000000000000000000000000000000000000000000000000000000081526004016131d490614b4f565b60405180910390fd5b3373ffffffffffffffffffffffffffffffffffffffff166005600083815260200190815260200160002060010160009054906101000a900473ffffffffffffffffffffffffffffffffffffffff1673ffffffffffffffffffffffffffffffffffffffff1614613281576040517f08c379a00000000000000000000000000000000000000000000000000000000081526004016132789061591b565b60405180910390fd5b6005600083815260200190815260200160002060080160009054906101000a900460ff166132e4576040517f08c379a00000000000000000000000000000000000000000000000000000000081526004016132db90615987565b60405180910390fd5b60056000838152602001908152602001600020600d0160009054906101000a900460ff1615613348576040517f08c379a000000000000000000000000000000000000000000000000000000000815260040161333f90615a19565b60405180910390fd5b600160056000848152602001908152602001600020600d0160006101000a81548160ff0219169083151502179055507fb8893480aa3666e42cae806ddd1fd3919c10abc78d32c411eff8bfe22bbe6ed48260056000858152602001908152602001600020600201336040516133bf93929190614c01565b60405180910390a15050565b6000806133d7836130eb565b90506000810361341c576040517f08c379a000000000000000000000000000000000000000000000000000000000815260040161341390615860565b60405180910390fd5b6002600082815260200190815260200160002060050160009054906101000a900473ffffffffffffffffffffffffffffffffffffffff16915050919050565b60056020528060005260406000206000915090508060000154908060010160009054906101000a900473ffffffffffffffffffffffffffffffffffffffff16908060020180546134aa9061494a565b80601f01602080910402602001604051908101604052809291908181526020018280546134d69061494a565b80156135235780601f106134f857610100808354040283529160200191613523565b820191906000526020600020905b81548152906001019060200180831161350657829003601f168201915b5050505050908060030180546135389061494a565b80601f01602080910402602001604051908101604052809291908181526020018280546135649061494a565b80156135b15780601f10613586576101008083540402835291602001916135b1565b820191906000526020600020905b81548152906001019060200180831161359457829003601f168201915b5050505050908060040180546135c69061494a565b80601f01602080910402602001604051908101604052809291908181526020018280546135f29061494a565b801561363f5780601f106136145761010080835404028352916020019161363f565b820191906000526020600020905b81548152906001019060200180831161362257829003601f168201915b5050505050908060050180546136549061494a565b80601f01602080910402602001604051908101604052809291908181526020018280546136809061494a565b80156136cd5780601f106136a2576101008083540402835291602001916136cd565b820191906000526020600020905b8154815290600101906020018083116136b057829003601f168201915b5050505050908060060180546136e29061494a565b80601f016020809104026020016040519081016040528092919081815260200182805461370e9061494a565b801561375b5780601f106137305761010080835404028352916020019161375b565b820191906000526020600020905b81548152906001019060200180831161373e57829003601f168201915b5050505050908060070180546137709061494a565b80601f016020809104026020016040519081016040528092919081815260200182805461379c9061494a565b80156137e95780601f106137be576101008083540402835291602001916137e9565b820191906000526020600020905b8154815290600101906020018083116137cc57829003601f168201915b5050505050908060080160009054906101000a900460ff16908060090180546138119061494a565b80601f016020809104026020016040519081016040528092919081815260200182805461383d9061494a565b801561388a5780601f1061385f5761010080835404028352916020019161388a565b820191906000526020600020905b81548152906001019060200180831161386d57829003601f168201915b50505050509080600a01805461389f9061494a565b80601f01602080910402602001604051908101604052809291908181526020018280546138cb9061494a565b80156139185780601f106138ed57610100808354040283529160200191613918565b820191906000526020600020905b8154815290600101906020018083116138fb57829003601f168201915b50505050509080600d0160009054906101000a900460ff1690508c565b6000808211801561394857506006548211155b613987576040517f08c379a000000000000000000000000000000000000000000000000000000000815260040161397e90614b4f565b60405180910390fd5b60056000838152602001908152602001600020600d0160009054906101000a900460ff169050919050565b600080600360008473ffffffffffffffffffffffffffffffffffffffff1673ffffffffffffffffffffffffffffffffffffffff16815260200190815260200160002054905060008103613a09576000915050613a31565b6002600082815260200190815260200160002060050160149054906101000a900460ff169150505b919050565b828054828255906000526020600020908101928215613aaf579160200282015b82811115613aae5782518260006101000a81548173ffffffffffffffffffffffffffffffffffffffff021916908373ffffffffffffffffffffffffffffffffffffffff16021790555091602001919060010190613a56565b5b509050613abc9190613b0d565b5090565b828054828255906000526020600020908101928215613afc579160200282015b82811115613afb578251825591602001919060010190613ae0565b5b509050613b099190613b0d565b5090565b5b80821115613b26576000816000905550600101613b0e565b5090565b6000604051905090565b600080fd5b600080fd5b6000819050919050565b613b5181613b3e565b8114613b5c57600080fd5b50565b600081359050613b6e81613b48565b92915050565b600060208284031215613b8a57613b89613b34565b5b6000613b9884828501613b5f565b91505092915050565b613baa81613b3e565b82525050565b600073ffffffffffffffffffffffffffffffffffffffff82169050919050565b6000613bdb82613bb0565b9050919050565b613beb81613bd0565b82525050565b60008115159050919050565b613c0681613bf1565b82525050565b600060a082019050613c216000830188613ba1565b613c2e6020830187613be2565b613c3b6040830186613be2565b613c486060830185613bfd565b613c556080830184613bfd565b9695505050505050565b6000602082019050613c746000830184613ba1565b92915050565b6000602082019050613c8f6000830184613be2565b92915050565b600081519050919050565b600082825260208201905092915050565b6000819050602082019050919050565b613cca81613b3e565b82525050565b6000613cdc8383613cc1565b60208301905092915050565b6000602082019050919050565b6000613d0082613c95565b613d0a8185613ca0565b9350613d1583613cb1565b8060005b83811015613d46578151613d2d8882613cd0565b9750613d3883613ce8565b925050600181019050613d19565b5085935050505092915050565b60006020820190508181036000830152613d6d8184613cf5565b905092915050565b600080fd5b600080fd5b6000601f19601f8301169050919050565b7f4e487b7100000000000000000000000000000000000000000000000000000000600052604160045260246000fd5b613dc882613d7f565b810181811067ffffffffffffffff82111715613de757613de6613d90565b5b80604052505050565b6000613dfa613b2a565b9050613e068282613dbf565b919050565b600067ffffffffffffffff821115613e2657613e25613d90565b5b613e2f82613d7f565b9050602081019050919050565b82818337600083830152505050565b6000613e5e613e5984613e0b565b613df0565b905082815260208101848484011115613e7a57613e79613d7a565b5b613e85848285613e3c565b509392505050565b600082601f830112613ea257613ea1613d75565b5b8135613eb2848260208601613e4b565b91505092915050565b600060208284031215613ed157613ed0613b34565b5b600082013567ffffffffffffffff811115613eef57613eee613b39565b5b613efb84828501613e8d565b91505092915050565b6000602082019050613f196000830184613bfd565b92915050565b613f2881613bd0565b8114613f3357600080fd5b50565b600081359050613f4581613f1f565b92915050565b600060208284031215613f6157613f60613b34565b5b6000613f6f84828501613f36565b91505092915050565b600081519050919050565b600082825260208201905092915050565b60005b83811015613fb2578082015181840152602081019050613f97565b60008484015250505050565b6000613fc982613f78565b613fd38185613f83565b9350613fe3818560208601613f94565b613fec81613d7f565b840191505092915050565b60006101608201905061400d600083018e613ba1565b818103602083015261401f818d613fbe565b90508181036040830152614033818c613fbe565b90508181036060830152614047818b613fbe565b9050818103608083015261405b818a613fbe565b905081810360a083015261406f8189613fbe565b905081810360c08301526140838188613fbe565b905061409260e0830187613bfd565b8181036101008301526140a58186613fbe565b90508181036101208301526140ba8185613fbe565b90506140ca610140830184613bfd565b9c9b505050505050505050505050565b6000819050919050565b6140ed816140da565b82525050565b600060e082019050614108600083018a613ba1565b818103602083015261411a8189613fbe565b9050818103604083015261412e8188613fbe565b905081810360608301526141428187613fbe565b905061415160808301866140e4565b61415e60a0830185613be2565b61416b60c0830184613bfd565b98975050505050505050565b6000806040838503121561418e5761418d613b34565b5b600083013567ffffffffffffffff8111156141ac576141ab613b39565b5b6141b885828601613e8d565b92505060206141c985828601613f36565b9150509250929050565b600081519050919050565b600082825260208201905092915050565b6000819050602082019050919050565b61420881613bd0565b82525050565b600061421a83836141ff565b60208301905092915050565b6000602082019050919050565b600061423e826141d3565b61424881856141de565b9350614253836141ef565b8060005b8381101561428457815161426b888261420e565b975061427683614226565b925050600181019050614257565b5085935050505092915050565b600060408201905081810360008301526142ab8185614233565b905081810360208301526142bf8184613cf5565b90509392505050565b60008060008060008060008060006101208a8c0312156142eb576142ea613b34565b5b60006142f98c828d01613f36565b99505060208a013567ffffffffffffffff81111561431a57614319613b39565b5b6143268c828d01613e8d565b98505060408a013567ffffffffffffffff81111561434757614346613b39565b5b6143538c828d01613e8d565b97505060608a013567ffffffffffffffff81111561437457614373613b39565b5b6143808c828d01613e8d565b96505060808a013567ffffffffffffffff8111156143a1576143a0613b39565b5b6143ad8c828d01613e8d565b95505060a08a013567ffffffffffffffff8111156143ce576143cd613b39565b5b6143da8c828d01613e8d565b94505060c08a013567ffffffffffffffff8111156143fb576143fa613b39565b5b6144078c828d01613e8d565b93505060e08a013567ffffffffffffffff81111561442857614427613b39565b5b6144348c828d01613e8d565b9250506101008a013567ffffffffffffffff81111561445657614455613b39565b5b6144628c828d01613e8d565b9150509295985092959850929598565b6000806000806080858703121561448c5761448b613b34565b5b600085013567ffffffffffffffff8111156144aa576144a9613b39565b5b6144b687828801613e8d565b945050602085013567ffffffffffffffff8111156144d7576144d6613b39565b5b6144e387828801613e8d565b935050604085013567ffffffffffffffff81111561450457614503613b39565b5b61451087828801613e8d565b925050606085013567ffffffffffffffff81111561453157614530613b39565b5b61453d87828801613e8d565b91505092959194509250565b600080604083850312156145605761455f613b34565b5b600083013567ffffffffffffffff81111561457e5761457d613b39565b5b61458a85828601613e8d565b925050602083013567ffffffffffffffff8111156145ab576145aa613b39565b5b6145b785828601613e8d565b9150509250929050565b6000610180820190506145d7600083018f613ba1565b6145e4602083018e613be2565b81810360408301526145f6818d613fbe565b9050818103606083015261460a818c613fbe565b9050818103608083015261461e818b613fbe565b905081810360a0830152614632818a613fbe565b905081810360c08301526146468189613fbe565b905081810360e083015261465a8188613fbe565b905061466a610100830187613bfd565b81810361012083015261467d8186613fbe565b90508181036101408301526146928185613fbe565b90506146a2610160830184613bfd565b9d9c50505050505050505050505050565b7f4f6e6c7920676f7665726e6d656e742063616e20706572666f726d207468697360008201527f20616374696f6e00000000000000000000000000000000000000000000000000602082015250565b600061470f602783613f83565b915061471a826146b3565b604082019050919050565b6000602082019050818103600083015261473e81614702565b9050919050565b7f496e76616c696420726571756573742049440000000000000000000000000000600082015250565b600061477b601283613f83565b915061478682614745565b602082019050919050565b600060208201905081810360008301526147aa8161476e565b9050919050565b7f5472616e7366657220616c726561647920617070726f76656400000000000000600082015250565b60006147e7601983613f83565b91506147f2826147b1565b602082019050919050565b60006020820190508181036000830152614816816147da565b9050919050565b7f5472616e7366657220616c726561647920636f6d706c65746564000000000000600082015250565b6000614853601a83613f83565b915061485e8261481d565b602082019050919050565b6000602082019050818103600083015261488281614846565b9050919050565b7f43616e6e6f7420617070726f7665207472616e7366657220666f722073746f6c60008201527f656e2076656869636c6500000000000000000000000000000000000000000000602082015250565b60006148e5602a83613f83565b91506148f082614889565b604082019050919050565b60006020820190508181036000830152614914816148d8565b9050919050565b7f4e487b7100000000000000000000000000000000000000000000000000000000600052602260045260246000fd5b6000600282049050600182168061496257607f821691505b6020821081036149755761497461491b565b5b50919050565b60008190508160005260206000209050919050565b6000815461499d8161494a565b6149a78186613f83565b945060018216600081146149c257600181146149d857614a0b565b60ff198316865281151560200286019350614a0b565b6149e18561497b565b60005b83811015614a03578154818901526001820191506020810190506149e4565b808801955050505b50505092915050565b6000608082019050614a296000830187613ba1565b8181036020830152614a3b8186614990565b9050614a4a6040830185613be2565b614a576060830184613be2565b95945050505050565b7f43757272656e74206f776e6572206d69736d6174636800000000000000000000600082015250565b6000614a96601683613f83565b9150614aa182614a60565b602082019050919050565b60006020820190508181036000830152614ac581614a89565b9050919050565b6000606082019050614ae16000830186613ba1565b614aee6020830185613be2565b614afb6040830184613be2565b949350505050565b7f496e76616c69642076656869636c652049440000000000000000000000000000600082015250565b6000614b39601283613f83565b9150614b4482614b03565b602082019050919050565b60006020820190508181036000830152614b6881614b2c565b9050919050565b7f56656869636c65206973206e6f74207265706f727465642061732073746f6c6560008201527f6e00000000000000000000000000000000000000000000000000000000000000602082015250565b6000614bcb602183613f83565b9150614bd682614b6f565b604082019050919050565b60006020820190508181036000830152614bfa81614bbe565b9050919050565b6000606082019050614c166000830186613ba1565b8181036020830152614c288185614990565b9050614c376040830184613be2565b949350505050565b7f4e487b7100000000000000000000000000000000000000000000000000000000600052603260045260246000fd5b7f4e487b7100000000000000000000000000000000000000000000000000000000600052601160045260246000fd5b6000614ca882613b3e565b91507fffffffffffffffffffffffffffffffffffffffffffffffffffffffffffffffff8203614cda57614cd9614c6e565b5b600182019050919050565b600081905092915050565b6000614cfb82613f78565b614d058185614ce5565b9350614d15818560208601613f94565b80840191505092915050565b6000614d2d8284614cf0565b915081905092915050565b7f4e6f2076656869636c6520666f756e6420666f7220746869732077616c6c657460008201527f2061646472657373000000000000000000000000000000000000000000000000602082015250565b6000614d94602883613f83565b9150614d9f82614d38565b604082019050919050565b60006020820190508181036000830152614dc381614d87565b9050919050565b7f56656869636c65206e6f7420666f756e64000000000000000000000000000000600082015250565b6000614e00601183613f83565b9150614e0b82614dca565b602082019050919050565b60006020820190508181036000830152614e2f81614df3565b9050919050565b7f56656869636c6520726567697374726174696f6e206d7573742062652061707060008201527f726f766564000000000000000000000000000000000000000000000000000000602082015250565b6000614e92602583613f83565b9150614e9d82614e36565b604082019050919050565b60006020820190508181036000830152614ec181614e85565b9050919050565b7f4f6e6c79207468652076656869636c65206f776e65722063616e20726571756560008201527f7374207472616e73666572000000000000000000000000000000000000000000602082015250565b6000614f24602b83613f83565b9150614f2f82614ec8565b604082019050919050565b60006020820190508181036000830152614f5381614f17565b9050919050565b7f4e6577206f776e6572206d75737420626520612072656769737465726564207560008201527f7365720000000000000000000000000000000000000000000000000000000000602082015250565b6000614fb6602383613f83565b9150614fc182614f5a565b604082019050919050565b60006020820190508181036000830152614fe581614fa9565b9050919050565b7f43616e6e6f74207472616e736665722073746f6c656e2076656869636c650000600082015250565b6000615022601e83613f83565b915061502d82614fec565b602082019050919050565b6000602082019050818103600083015261505181615015565b9050919050565b7f4e6577206f776e6572206d75737420626520617070726f76656420627920676f60008201527f7665726e6d656e74000000000000000000000000000000000000000000000000602082015250565b60006150b4602883613f83565b91506150bf82615058565b604082019050919050565b600060208201905081810360008301526150e3816150a7565b9050919050565b600060c0820190506150ff6000830189613ba1565b81810360208301526151118188613fbe565b905081810360408301526151258187614990565b90506151346060830186613ba1565b6151416080830185613be2565b61514e60a0830184613be2565b979650505050505050565b7f56656869636c6520616c72656164792072656769737465726564000000000000600082015250565b600061518f601a83613f83565b915061519a82615159565b602082019050919050565b600060208201905081810360008301526151be81615182565b9050919050565b7f4f776e6572206d75737420626520612072656769737465726564207573657200600082015250565b60006151fb601f83613f83565b9150615206826151c5565b602082019050919050565b6000602082019050818103600083015261522a816151ee565b9050919050565b7f526571756573746572206d75737420626520612072656769737465726564207560008201527f7365720000000000000000000000000000000000000000000000000000000000602082015250565b600061528d602383613f83565b915061529882615231565b604082019050919050565b600060208201905081810360008301526152bc81615280565b9050919050565b7f55736572206d75737420626520617070726f76656420627920676f7665726e6d60008201527f656e740000000000000000000000000000000000000000000000000000000000602082015250565b600061531f602383613f83565b915061532a826152c3565b604082019050919050565b6000602082019050818103600083015261534e81615312565b9050919050565b60006020601f8301049050919050565b600082821b905092915050565b6000600883026153a27fffffffffffffffffffffffffffffffffffffffffffffffffffffffffffffffff82615365565b6153ac8683615365565b95508019841693508086168417925050509392505050565b6000819050919050565b60006153e96153e46153df84613b3e565b6153c4565b613b3e565b9050919050565b6000819050919050565b615403836153ce565b61541761540f826153f0565b848454615372565b825550505050565b600090565b61542c61541f565b6154378184846153fa565b505050565b5b8181101561545b57615450600082615424565b60018101905061543d565b5050565b601f8211156154a0576154718161497b565b61547a84615355565b81016020851015615489578190505b61549d61549585615355565b83018261543c565b50505b505050565b600082821c905092915050565b60006154c3600019846008026154a5565b1980831691505092915050565b60006154dc83836154b2565b9150826002028217905092915050565b6154f582613f78565b67ffffffffffffffff81111561550e5761550d613d90565b5b615518825461494a565b61552382828561545f565b600060209050601f8311600181146155565760008415615544578287015190505b61554e85826154d0565b8655506155b6565b601f1984166155648661497b565b60005b8281101561558c57848901518255600182019150602085019450602081019050615567565b868310156155a957848901516155a5601f8916826154b2565b8355505b6001600288020188555050505b505050505050565b60006080820190506155d36000830187613ba1565b81810360208301526155e58186613fbe565b905081810360408301526155f98185613fbe565b90506156086060830184613be2565b95945050505050565b6000815461561e8161494a565b6156288186614ce5565b9450600182166000811461564357600181146156585761568b565b60ff198316865281151582028601935061568b565b6156618561497b565b60005b8381101561568357815481890152600182019150602081019050615664565b838801955050505b50505092915050565b60006156a08284615611565b915081905092915050565b7f4164647265737320616c72656164792072656769737465726564210000000000600082015250565b60006156e1601b83613f83565b91506156ec826156ab565b602082019050919050565b60006020820190508181036000830152615710816156d4565b9050919050565b600060608201905061572c6000830186613ba1565b818103602083015261573e8185613fbe565b905061574d6040830184613be2565b949350505050565b7f496e76616c696420726567697374726174696f6e204944000000000000000000600082015250565b600061578b601783613f83565b915061579682615755565b602082019050919050565b600060208201905081810360008301526157ba8161577e565b9050919050565b60006080820190506157d66000830187613ba1565b81810360208301526157e88186614990565b905081810360408301526157fc8185614990565b905061580b6060830184613be2565b95945050505050565b7f55736572206e6f7420666f756e64000000000000000000000000000000000000600082015250565b600061584a600e83613f83565b915061585582615814565b602082019050919050565b600060208201905081810360008301526158798161583d565b9050919050565b60006040820190506158956000830185613ba1565b6158a26020830184613be2565b9392505050565b7f4f6e6c792076656869636c65206f776e65722063616e20706572666f726d207460008201527f68697320616374696f6e00000000000000000000000000000000000000000000602082015250565b6000615905602a83613f83565b9150615910826158a9565b604082019050919050565b60006020820190508181036000830152615934816158f8565b9050919050565b7f56656869636c65206d75737420626520617070726f7665640000000000000000600082015250565b6000615971601883613f83565b915061597c8261593b565b602082019050919050565b600060208201905081810360008301526159a081615964565b9050919050565b7f56656869636c6520616c7265616479207265706f727465642061732073746f6c60008201527f656e000000000000000000000000000000000000000000000000000000000000602082015250565b6000615a03602283613f83565b9150615a0e826159a7565b604082019050919050565b60006020820190508181036000830152615a32816159f6565b905091905056fea26469706673582212204b308cfffc7a27644c8302c61cc16a7f418c57af89e4f4ad5c250eab8352b04464736f6c63430008130033",
  "immutableReferences": {},
  "source": "// SPDX-License-Identifier: MIT\r\npragma solidity ^0.8.0;\r\n\r\nimport \"./UserManagement.sol\";\r\n\r\ncontract VehicleManagement is UserManagement {\r\n    \r\n    struct VehicleRegistration {\r\n        uint id;\r\n        address ownerWallet;\r\n        string vehicleNo;\r\n        string vin;\r\n        string vehicleMake;\r\n        string vehicleModel;\r\n        string vehicleModelYear;\r\n        string vehicleRegistrationYear;\r\n        bool approved;\r\n        string documentHash;\r\n        string imageHash;\r\n        address[] ownershipHistory; // Array to store ALL owners in chronological order\r\n        uint[] ownershipDates;      // Array to store timestamps when each owner got the vehicle\r\n        bool isStolen;              // New field to track if vehicle is stolen\r\n    }\r\n\r\n    struct OwnershipTransferRequest {\r\n        uint registrationId;\r\n        address currentOwner;\r\n        address newOwner;\r\n        bool approved;\r\n        bool completed;\r\n    }\r\n\r\n    mapping(uint => VehicleRegistration) public vehicleRegistrations;\r\n    uint public registrationCount = 0;\r\n    mapping(string => bool) public registeredVehicles;\r\n    mapping(string => bool) public registeredVehiclesvin;\r\n\r\n    mapping(uint => OwnershipTransferRequest) public transferRequests;\r\n    uint public transferRequestCount = 0;\r\n\r\n    event VehicleRegistered(uint registerId, string vehicleNo, string vin, address ownerWallet);\r\n    event VehicleApproved(uint registerId, string vehicleNo, string vin, address ownerWallet);\r\n    event OwnershipTransferRequested(uint requestId, string vehicleNo, string vin, uint registrationId, address currentOwner, address newOwner);\r\n    event OwnershipTransferApproved(uint requestId, string vehicleNo, address oldOwner, address newOwner);\r\n    event OwnershipTransferred(uint registerId, address oldOwner, address newOwner);\r\n    event VehicleReportedStolen(uint vehicleId, string vehicleNo, address reportedBy);\r\n    event VehicleRecovered(uint vehicleId, string vehicleNo, address recoveredBy);\r\n\r\n    modifier onlyVehicleOwner(uint _vehicleId) {\r\n        require(_vehicleId > 0 && _vehicleId <= registrationCount, \"Invalid vehicle ID\");\r\n        require(vehicleRegistrations[_vehicleId].ownerWallet == msg.sender, \"Only vehicle owner can perform this action\");\r\n        _;\r\n    }\r\n\r\n    function registerVehicle(\r\n        address _ownerWallet,\r\n        string memory _vehicleNo,\r\n        string memory _vin,\r\n        string memory _vehicleMake,\r\n        string memory _vehicleModel,\r\n        string memory _vehicleModelYear,\r\n        string memory _vehicleRegistrationYear,\r\n        string memory _documentHash,\r\n        string memory _imageHash\r\n    ) public {\r\n        require(!registeredVehicles[_vehicleNo], \"Vehicle already registered\");\r\n        require(registeredAddresses[_ownerWallet], \"Owner must be a registered user\");\r\n        require(registeredAddresses[msg.sender], \"Requester must be a registered user\");\r\n        require(getUserIdByAddress(msg.sender) != 0, \"Requester must be a registered user\");\r\n        require(_isUserApproved(msg.sender), \"User must be approved by government\");\r\n\r\n        // Initialize empty arrays for tracking ownership history\r\n        address[] memory ownershipHistory = new address[](0);\r\n        uint[] memory ownershipDates = new uint[](0);\r\n\r\n        registrationCount++;\r\n        vehicleRegistrations[registrationCount] = VehicleRegistration(\r\n            registrationCount,\r\n            _ownerWallet,\r\n            _vehicleNo,\r\n            _vin,\r\n            _vehicleMake,\r\n            _vehicleModel,\r\n            _vehicleModelYear,\r\n            _vehicleRegistrationYear,\r\n            false,\r\n            _documentHash,\r\n            _imageHash,\r\n            ownershipHistory,  // Empty array for ownership history\r\n            ownershipDates,    // Empty array for ownership dates\r\n            false              // Initially not stolen\r\n        ); \r\n        registeredVehicles[_vehicleNo] = true;\r\n        registeredVehiclesvin[_vin] = true;\r\n        emit VehicleRegistered(registrationCount, _vehicleNo, _vin, _ownerWallet);\r\n    }\r\n\r\n    function approveVehicle(uint _registerId) public onlyGovernment {\r\n        require(_registerId > 0 && _registerId <= registrationCount, \"Invalid registration ID\");\r\n        vehicleRegistrations[_registerId].approved = true;\r\n      \r\n        // Add the initial owner to the ownership history when vehicle is approved\r\n        vehicleRegistrations[_registerId].ownershipHistory.push(vehicleRegistrations[_registerId].ownerWallet);\r\n        vehicleRegistrations[_registerId].ownershipDates.push(block.timestamp);\r\n\r\n        emit VehicleApproved(_registerId, vehicleRegistrations[_registerId].vehicleNo, vehicleRegistrations[_registerId].vin, vehicleRegistrations[_registerId].ownerWallet);\r\n    }\r\n\r\n    function vehicleExists(string memory _vehicleNo) public view returns (bool) {\r\n        return registeredVehicles[_vehicleNo];\r\n    }\r\n    \r\n    function vinExist(string memory _vin) public view returns (bool) {\r\n        return registeredVehiclesvin[_vin];\r\n    }\r\n\r\n    function requestOwnershipTransfer(string memory _vehicleNo, address _newOwnerWallet) public {\r\n        uint registerId = getVehicleId(_vehicleNo);\r\n        require(registerId != 0, \"Vehicle not found\");\r\n        require(vehicleRegistrations[registerId].approved, \"Vehicle registration must be approved\");\r\n        require(msg.sender == vehicleRegistrations[registerId].ownerWallet, \"Only the vehicle owner can request transfer\");\r\n        require(registeredAddresses[_newOwnerWallet], \"New owner must be a registered user\");\r\n        require(!vehicleRegistrations[registerId].isStolen, \"Cannot transfer stolen vehicle\");\r\n        \r\n        uint newOwnerId = getUserIdByAddress(_newOwnerWallet);\r\n        require(newOwnerId != 0, \"New owner must be a registered user\");\r\n        require(_isUserApproved(_newOwnerWallet), \"New owner must be approved by government\");\r\n        \r\n        transferRequestCount++;\r\n        transferRequests[transferRequestCount] = OwnershipTransferRequest(\r\n            registerId,\r\n            msg.sender,\r\n            _newOwnerWallet,\r\n            false,\r\n            false\r\n        );\r\n        \r\n        emit OwnershipTransferRequested(transferRequestCount, _vehicleNo, vehicleRegistrations[registerId].vin, registerId, msg.sender, _newOwnerWallet);\r\n    }\r\n    \r\n    function approveOwnershipTransfer(uint _requestId) public onlyGovernment {\r\n        require(_requestId > 0 && _requestId <= transferRequestCount, \"Invalid request ID\");\r\n        require(!transferRequests[_requestId].approved, \"Transfer already approved\");\r\n        require(!transferRequests[_requestId].completed, \"Transfer already completed\");\r\n        \r\n        uint registerId = transferRequests[_requestId].registrationId;\r\n        require(!vehicleRegistrations[registerId].isStolen, \"Cannot approve transfer for stolen vehicle\");\r\n        \r\n        transferRequests[_requestId].approved = true;\r\n        \r\n        // Complete the transfer\r\n        address oldOwner = transferRequests[_requestId].currentOwner;\r\n        address newOwner = transferRequests[_requestId].newOwner;\r\n\r\n        emit OwnershipTransferApproved(_requestId, vehicleRegistrations[registerId].vehicleNo, oldOwner, newOwner);\r\n        \r\n        require(oldOwner == vehicleRegistrations[registerId].ownerWallet, \"Current owner mismatch\");\r\n        \r\n        // Add the new owner to ownership history with transfer timestamp\r\n        vehicleRegistrations[registerId].ownershipHistory.push(newOwner);\r\n        vehicleRegistrations[registerId].ownershipDates.push(block.timestamp);\r\n        \r\n        // Update current owner\r\n        vehicleRegistrations[registerId].ownerWallet = newOwner;\r\n        transferRequests[_requestId].completed = true;\r\n        \r\n        emit OwnershipTransferred(registerId, oldOwner, newOwner);\r\n    }\r\n\r\n    // Function to report vehicle as stolen - only owner can report\r\n    function reportVehicleStolen(uint _vehicleId) public onlyVehicleOwner(_vehicleId) {\r\n        require(vehicleRegistrations[_vehicleId].approved, \"Vehicle must be approved\");\r\n        require(!vehicleRegistrations[_vehicleId].isStolen, \"Vehicle already reported as stolen\");\r\n        \r\n        vehicleRegistrations[_vehicleId].isStolen = true;\r\n        emit VehicleReportedStolen(_vehicleId, vehicleRegistrations[_vehicleId].vehicleNo, msg.sender);\r\n    }\r\n\r\n    // Function to mark vehicle as recovered - only government can recover\r\n    function markVehicleRecovered(uint _vehicleId) public onlyGovernment {\r\n        require(_vehicleId > 0 && _vehicleId <= registrationCount, \"Invalid vehicle ID\");\r\n        require(vehicleRegistrations[_vehicleId].isStolen, \"Vehicle is not reported as stolen\");\r\n        \r\n        vehicleRegistrations[_vehicleId].isStolen = false;\r\n        emit VehicleRecovered(_vehicleId, vehicleRegistrations[_vehicleId].vehicleNo, msg.sender);\r\n    }\r\n\r\n    // Function to check if vehicle is stolen\r\n    function isVehicleStolen(uint _vehicleId) public view returns (bool) {\r\n        require(_vehicleId > 0 && _vehicleId <= registrationCount, \"Invalid vehicle ID\");\r\n        return vehicleRegistrations[_vehicleId].isStolen;\r\n    }\r\n\r\n    // Function to get stolen vehicles (for government use)\r\n    function getStolenVehicles() public view returns (uint[] memory) {\r\n        uint[] memory stolenVehicleIds = new uint[](registrationCount);\r\n        uint count = 0;\r\n        \r\n        for (uint i = 1; i <= registrationCount; i++) {\r\n            if (vehicleRegistrations[i].isStolen && vehicleRegistrations[i].approved) {\r\n                stolenVehicleIds[count] = i;\r\n                count++;\r\n            }\r\n        }\r\n        \r\n        // Create a new array with the exact size\r\n        uint[] memory result = new uint[](count);\r\n        for (uint i = 0; i < count; i++) {\r\n            result[i] = stolenVehicleIds[i];\r\n        }\r\n        \r\n        return result;\r\n    }\r\n\r\n    function getVehicleId(string memory _vehicleNo) public view returns (uint) {\r\n        for (uint i = 1; i <= registrationCount; i++) {\r\n            if (keccak256(abi.encodePacked(vehicleRegistrations[i].vehicleNo)) == keccak256(abi.encodePacked(_vehicleNo))) {\r\n                return i;\r\n            }\r\n        }\r\n        return 0;\r\n    }\r\n\r\n    function getVehicleByWallet(address _ownerWallet) public view returns (\r\n        uint id, string memory vehicleNo, string memory vin, string memory vehicleMake,\r\n        string memory vehicleModel, string memory vehicleModelYear, string memory vehicleRegistrationYear,\r\n        bool approved, string memory documentHash, string memory imageHash, bool isStolen\r\n    ) {\r\n        for (uint i = 1; i <= registrationCount; i++) {\r\n            if (vehicleRegistrations[i].ownerWallet == _ownerWallet) {\r\n                VehicleRegistration memory reg = vehicleRegistrations[i];\r\n                return (\r\n                    reg.id, reg.vehicleNo, reg.vin, reg.vehicleMake,\r\n                    reg.vehicleModel, reg.vehicleModelYear, reg.vehicleRegistrationYear,\r\n                    reg.approved, reg.documentHash, reg.imageHash, reg.isStolen\r\n                );\r\n            }\r\n        }\r\n        revert(\"No vehicle found for this wallet address\");\r\n    }\r\n    \r\n    function getTransferRequest(uint _requestId) public view returns (\r\n        uint registrationId,\r\n        address currentOwner,\r\n        address newOwner,\r\n        bool approved,\r\n        bool completed\r\n    ) {\r\n        require(_requestId > 0 && _requestId <= transferRequestCount, \"Invalid request ID\");\r\n        OwnershipTransferRequest memory req = transferRequests[_requestId];\r\n        return (\r\n            req.registrationId,\r\n            req.currentOwner,\r\n            req.newOwner,\r\n            req.approved,\r\n            req.completed\r\n        );\r\n    }\r\n    \r\n    // Updated function to get ownership history of a vehicle\r\n    function getVehicleOwnershipHistory(uint _vehicleId) public view returns (\r\n        address[] memory owners,\r\n        uint[] memory dates\r\n    ) {\r\n        require(_vehicleId > 0 && _vehicleId <= registrationCount, \"Invalid vehicle ID\");\r\n        VehicleRegistration storage vehicle = vehicleRegistrations[_vehicleId];\r\n        \r\n        // Return the complete ownership history in chronological order\r\n        return (vehicle.ownershipHistory, vehicle.ownershipDates);\r\n    }\r\n}",
  "sourcePath": "C:\\Users\\smume\\OneDrive\\Desktop\\New folder\\Vehicle-Registration-Blockchain-main\\Vehicle-Registration-Blockchain-main\\contracts\\VehicleManagement.sol",
  "compiler": {
    "name": "solc",
    "version": "0.8.19+commit.7dd6d404.Emscripten.clang"
  },
  "schemaVersion": "3.4.16",
  "updatedAt": "2025-05-23T06:39:44.043Z",
  "devdoc": {
    "kind": "dev",
    "methods": {},
    "version": 1
  },
  "userdoc": {
    "kind": "user",
    "methods": {},
    "version": 1
  }
}