{
  "contractName": "VehicleRegistration",
  "abi": [
    {
      "inputs": [],
      "stateMutability": "nonpayable",
      "type": "constructor"
    },
    {
      "anonymous": false,
      "inputs": [
        {
          "indexed": false,
          "internalType": "string",
          "name": "vehicleNo",
          "type": "string"
        },
        {
          "indexed": true,
          "internalType": "address",
          "name": "oldOwner",
          "type": "address"
        },
        {
          "indexed": true,
          "internalType": "address",
          "name": "newOwner",
          "type": "address"
        }
      ],
      "name": "OwnershipTransferred",
      "type": "event"
    },
    {
      "anonymous": false,
      "inputs": [
        {
          "indexed": false,
          "internalType": "string",
          "name": "vehicleNo",
          "type": "string"
        }
      ],
      "name": "RegistrationApproved",
      "type": "event"
    },
    {
      "anonymous": false,
      "inputs": [
        {
          "indexed": true,
          "internalType": "address",
          "name": "userAddress",
          "type": "address"
        },
        {
          "indexed": false,
          "internalType": "string",
          "name": "username",
          "type": "string"
        }
      ],
      "name": "UserCreated",
      "type": "event"
    },
    {
      "anonymous": false,
      "inputs": [
        {
          "indexed": true,
          "internalType": "address",
          "name": "owner",
          "type": "address"
        },
        {
          "indexed": false,
          "internalType": "string",
          "name": "vehicleNo",
          "type": "string"
        }
      ],
      "name": "VehicleRegistered",
      "type": "event"
    },
    {
      "inputs": [],
      "name": "owner",
      "outputs": [
        {
          "internalType": "address",
          "name": "",
          "type": "address"
        }
      ],
      "stateMutability": "view",
      "type": "function"
    },
    {
      "inputs": [],
      "name": "registrationCount",
      "outputs": [
        {
          "internalType": "uint256",
          "name": "",
          "type": "uint256"
        }
      ],
      "stateMutability": "view",
      "type": "function"
    },
    {
      "inputs": [
        {
          "internalType": "address",
          "name": "",
          "type": "address"
        }
      ],
      "name": "users",
      "outputs": [
        {
          "internalType": "address",
          "name": "userAddress",
          "type": "address"
        },
        {
          "internalType": "string",
          "name": "username",
          "type": "string"
        },
        {
          "internalType": "bytes32",
          "name": "passwordHash",
          "type": "bytes32"
        }
      ],
      "stateMutability": "view",
      "type": "function"
    },
    {
      "inputs": [
        {
          "internalType": "string",
          "name": "",
          "type": "string"
        }
      ],
      "name": "vehicleRegistry",
      "outputs": [
        {
          "internalType": "uint256",
          "name": "registerId",
          "type": "uint256"
        },
        {
          "internalType": "address",
          "name": "ownerAddress",
          "type": "address"
        },
        {
          "internalType": "string",
          "name": "vehicleNo",
          "type": "string"
        },
        {
          "internalType": "string",
          "name": "vehicleType",
          "type": "string"
        },
        {
          "internalType": "string",
          "name": "vehicleModel",
          "type": "string"
        },
        {
          "internalType": "string",
          "name": "vehicleCompany",
          "type": "string"
        },
        {
          "internalType": "string",
          "name": "vehicleColor",
          "type": "string"
        },
        {
          "internalType": "bool",
          "name": "approved",
          "type": "bool"
        },
        {
          "internalType": "string",
          "name": "documentHash1",
          "type": "string"
        },
        {
          "internalType": "string",
          "name": "documentHash2",
          "type": "string"
        },
        {
          "internalType": "string",
          "name": "imageHash",
          "type": "string"
        }
      ],
      "stateMutability": "view",
      "type": "function"
    },
    {
      "inputs": [
        {
          "internalType": "string",
          "name": "_username",
          "type": "string"
        },
        {
          "internalType": "bytes32",
          "name": "_passwordHash",
          "type": "bytes32"
        }
      ],
      "name": "createUser",
      "outputs": [],
      "stateMutability": "nonpayable",
      "type": "function"
    },
    {
      "inputs": [
        {
          "internalType": "string",
          "name": "_vehicleNo",
          "type": "string"
        },
        {
          "internalType": "string",
          "name": "_vehicleType",
          "type": "string"
        },
        {
          "internalType": "string",
          "name": "_vehicleModel",
          "type": "string"
        },
        {
          "internalType": "string",
          "name": "_vehicleCompany",
          "type": "string"
        },
        {
          "internalType": "string",
          "name": "_vehicleColor",
          "type": "string"
        },
        {
          "internalType": "string",
          "name": "_documentHash1",
          "type": "string"
        },
        {
          "internalType": "string",
          "name": "_documentHash2",
          "type": "string"
        },
        {
          "internalType": "string",
          "name": "_imageHash",
          "type": "string"
        }
      ],
      "name": "registerVehicle",
      "outputs": [],
      "stateMutability": "nonpayable",
      "type": "function"
    },
    {
      "inputs": [
        {
          "internalType": "string",
          "name": "_vehicleNo",
          "type": "string"
        }
      ],
      "name": "approveRegistration",
      "outputs": [],
      "stateMutability": "nonpayable",
      "type": "function"
    },
    {
      "inputs": [
        {
          "internalType": "string",
          "name": "_vehicleNo",
          "type": "string"
        },
        {
          "internalType": "address",
          "name": "_newOwner",
          "type": "address"
        }
      ],
      "name": "transferOwnership",
      "outputs": [],
      "stateMutability": "nonpayable",
      "type": "function"
    },
    {
      "inputs": [
        {
          "internalType": "string",
          "name": "_vehicleNo",
          "type": "string"
        }
      ],
      "name": "getVehicleOwner",
      "outputs": [
        {
          "internalType": "address",
          "name": "",
          "type": "address"
        }
      ],
      "stateMutability": "view",
      "type": "function"
    }
  ],
  "bytecode": "0x6080604052600060035534801561001557600080fd5b50336000806101000a81548173ffffffffffffffffffffffffffffffffffffffff021916908373ffffffffffffffffffffffffffffffffffffffff160217905550611f9a806100656000396000f3fe608060405234801561001057600080fd5b50600436106100935760003560e01c80638da5cb5b116100665780638da5cb5b1461011e578063a87430ba1461013c578063c0e793c21461016e578063d94529351461018a578063fe3d0db7146101a657610093565b8063084921951461009857806309becdc4146100b45780630d3eafd6146100e457806332f0a8e314610102575b600080fd5b6100b260048036038101906100ad91906112da565b6101e0565b005b6100ce60048036038101906100c99190611470565b6104ac565b6040516100db91906114fa565b60405180910390f35b6100ec6104f7565b6040516100f9919061152e565b60405180910390f35b61011c60048036038101906101179190611470565b6104fd565b005b61012661071e565b60405161013391906114fa565b60405180910390f35b61015660048036038101906101519190611575565b610742565b6040516101659392919061163a565b60405180910390f35b61018860048036038101906101839190611678565b610814565b005b6101a4600480360381019061019f9190611700565b610aa6565b005b6101c060048036038101906101bb9190611470565b610ca3565b6040516101d79b9a99989796959493929190611777565b60405180910390f35b600073ffffffffffffffffffffffffffffffffffffffff166002896040516102089190611896565b908152602001604051809103902060010160009054906101000a900473ffffffffffffffffffffffffffffffffffffffff1673ffffffffffffffffffffffffffffffffffffffff1614610290576040517f08c379a0000000000000000000000000000000000000000000000000000000008152600401610287906118f9565b60405180910390fd5b600360008154809291906102a390611948565b919050555060405180610160016040528060035481526020013373ffffffffffffffffffffffffffffffffffffffff1681526020018981526020018881526020018781526020018681526020018581526020016000151581526020018481526020018381526020018281525060028960405161031f9190611896565b90815260200160405180910390206000820151816000015560208201518160010160006101000a81548173ffffffffffffffffffffffffffffffffffffffff021916908373ffffffffffffffffffffffffffffffffffffffff16021790555060408201518160020190816103939190611b9c565b5060608201518160030190816103a99190611b9c565b5060808201518160040190816103bf9190611b9c565b5060a08201518160050190816103d59190611b9c565b5060c08201518160060190816103eb9190611b9c565b5060e08201518160070160006101000a81548160ff0219169083151502179055506101008201518160080190816104229190611b9c565b506101208201518160090190816104399190611b9c565b5061014082015181600a0190816104509190611b9c565b509050503373ffffffffffffffffffffffffffffffffffffffff167f1abc38f2662d73192c9755497553b2e9c0e4379ed883770bf38db4e85111c1468960405161049a9190611c6e565b60405180910390a25050505050505050565b60006002826040516104be9190611896565b908152602001604051809103902060010160009054906101000a900473ffffffffffffffffffffffffffffffffffffffff169050919050565b60035481565b60008054906101000a900473ffffffffffffffffffffffffffffffffffffffff1673ffffffffffffffffffffffffffffffffffffffff163373ffffffffffffffffffffffffffffffffffffffff161461058b576040517f08c379a000000000000000000000000000000000000000000000000000000000815260040161058290611d02565b60405180910390fd5b600073ffffffffffffffffffffffffffffffffffffffff166002826040516105b39190611896565b908152602001604051809103902060010160009054906101000a900473ffffffffffffffffffffffffffffffffffffffff1673ffffffffffffffffffffffffffffffffffffffff160361063b576040517f08c379a000000000000000000000000000000000000000000000000000000000815260040161063290611d6e565b60405180910390fd5b60028160405161064b9190611896565b908152602001604051809103902060070160009054906101000a900460ff16156106aa576040517f08c379a00000000000000000000000000000000000000000000000000000000081526004016106a190611dda565b60405180910390fd5b60016002826040516106bc9190611896565b908152602001604051809103902060070160006101000a81548160ff0219169083151502179055507fb054000092b6f551e83258d4f2d4c735f0728e174a2c6d8687ce98982035ed10816040516107139190611c6e565b60405180910390a150565b60008054906101000a900473ffffffffffffffffffffffffffffffffffffffff1681565b60016020528060005260406000206000915090508060000160009054906101000a900473ffffffffffffffffffffffffffffffffffffffff169080600101805461078b906119bf565b80601f01602080910402602001604051908101604052809291908181526020018280546107b7906119bf565b80156108045780601f106107d957610100808354040283529160200191610804565b820191906000526020600020905b8154815290600101906020018083116107e757829003601f168201915b5050505050908060020154905083565b813373ffffffffffffffffffffffffffffffffffffffff1660028260405161083c9190611896565b908152602001604051809103902060010160009054906101000a900473ffffffffffffffffffffffffffffffffffffffff1673ffffffffffffffffffffffffffffffffffffffff16146108c4576040517f08c379a00000000000000000000000000000000000000000000000000000000081526004016108bb90611e46565b60405180910390fd5b600073ffffffffffffffffffffffffffffffffffffffff16600160008473ffffffffffffffffffffffffffffffffffffffff1673ffffffffffffffffffffffffffffffffffffffff16815260200190815260200160002060000160009054906101000a900473ffffffffffffffffffffffffffffffffffffffff1673ffffffffffffffffffffffffffffffffffffffff1603610995576040517f08c379a000000000000000000000000000000000000000000000000000000000815260040161098c90611ed8565b60405180910390fd5b60006002846040516109a79190611896565b908152602001604051809103902060010160009054906101000a900473ffffffffffffffffffffffffffffffffffffffff169050826002856040516109ec9190611896565b908152602001604051809103902060010160006101000a81548173ffffffffffffffffffffffffffffffffffffffff021916908373ffffffffffffffffffffffffffffffffffffffff1602179055508273ffffffffffffffffffffffffffffffffffffffff168173ffffffffffffffffffffffffffffffffffffffff167f6840904f5b31827f74e1497360da245f56e530c8c3de3163a2d31f11493273c686604051610a989190611c6e565b60405180910390a350505050565b600073ffffffffffffffffffffffffffffffffffffffff16600160003373ffffffffffffffffffffffffffffffffffffffff1673ffffffffffffffffffffffffffffffffffffffff16815260200190815260200160002060000160009054906101000a900473ffffffffffffffffffffffffffffffffffffffff1673ffffffffffffffffffffffffffffffffffffffff1614610b77576040517f08c379a0000000000000000000000000000000000000000000000000000000008152600401610b6e90611f44565b60405180910390fd5b60405180606001604052803373ffffffffffffffffffffffffffffffffffffffff16815260200183815260200182815250600160003373ffffffffffffffffffffffffffffffffffffffff1673ffffffffffffffffffffffffffffffffffffffff16815260200190815260200160002060008201518160000160006101000a81548173ffffffffffffffffffffffffffffffffffffffff021916908373ffffffffffffffffffffffffffffffffffffffff1602179055506020820151816001019081610c439190611b9c565b50604082015181600201559050503373ffffffffffffffffffffffffffffffffffffffff167f9954bce02f72fbdef0fa668ac6f42e434b5829615dac2fb22448054d2359d4f683604051610c979190611c6e565b60405180910390a25050565b6002818051602081018201805184825260208301602085012081835280955050505050506000915090508060000154908060010160009054906101000a900473ffffffffffffffffffffffffffffffffffffffff1690806002018054610d08906119bf565b80601f0160208091040260200160405190810160405280929190818152602001828054610d34906119bf565b8015610d815780601f10610d5657610100808354040283529160200191610d81565b820191906000526020600020905b815481529060010190602001808311610d6457829003601f168201915b505050505090806003018054610d96906119bf565b80601f0160208091040260200160405190810160405280929190818152602001828054610dc2906119bf565b8015610e0f5780601f10610de457610100808354040283529160200191610e0f565b820191906000526020600020905b815481529060010190602001808311610df257829003601f168201915b505050505090806004018054610e24906119bf565b80601f0160208091040260200160405190810160405280929190818152602001828054610e50906119bf565b8015610e9d5780601f10610e7257610100808354040283529160200191610e9d565b820191906000526020600020905b815481529060010190602001808311610e8057829003601f168201915b505050505090806005018054610eb2906119bf565b80601f0160208091040260200160405190810160405280929190818152602001828054610ede906119bf565b8015610f2b5780601f10610f0057610100808354040283529160200191610f2b565b820191906000526020600020905b815481529060010190602001808311610f0e57829003601f168201915b505050505090806006018054610f40906119bf565b80601f0160208091040260200160405190810160405280929190818152602001828054610f6c906119bf565b8015610fb95780601f10610f8e57610100808354040283529160200191610fb9565b820191906000526020600020905b815481529060010190602001808311610f9c57829003601f168201915b5050505050908060070160009054906101000a900460ff1690806008018054610fe1906119bf565b80601f016020809104026020016040519081016040528092919081815260200182805461100d906119bf565b801561105a5780601f1061102f5761010080835404028352916020019161105a565b820191906000526020600020905b81548152906001019060200180831161103d57829003601f168201915b50505050509080600901805461106f906119bf565b80601f016020809104026020016040519081016040528092919081815260200182805461109b906119bf565b80156110e85780601f106110bd576101008083540402835291602001916110e8565b820191906000526020600020905b8154815290600101906020018083116110cb57829003601f168201915b50505050509080600a0180546110fd906119bf565b80601f0160208091040260200160405190810160405280929190818152602001828054611129906119bf565b80156111765780601f1061114b57610100808354040283529160200191611176565b820191906000526020600020905b81548152906001019060200180831161115957829003601f168201915b505050505090508b565b6000604051905090565b600080fd5b600080fd5b600080fd5b600080fd5b6000601f19601f8301169050919050565b7f4e487b7100000000000000000000000000000000000000000000000000000000600052604160045260246000fd5b6111e78261119e565b810181811067ffffffffffffffff82111715611206576112056111af565b5b80604052505050565b6000611219611180565b905061122582826111de565b919050565b600067ffffffffffffffff821115611245576112446111af565b5b61124e8261119e565b9050602081019050919050565b82818337600083830152505050565b600061127d6112788461122a565b61120f565b90508281526020810184848401111561129957611298611199565b5b6112a484828561125b565b509392505050565b600082601f8301126112c1576112c0611194565b5b81356112d184826020860161126a565b91505092915050565b600080600080600080600080610100898b0312156112fb576112fa61118a565b5b600089013567ffffffffffffffff8111156113195761131861118f565b5b6113258b828c016112ac565b985050602089013567ffffffffffffffff8111156113465761134561118f565b5b6113528b828c016112ac565b975050604089013567ffffffffffffffff8111156113735761137261118f565b5b61137f8b828c016112ac565b965050606089013567ffffffffffffffff8111156113a05761139f61118f565b5b6113ac8b828c016112ac565b955050608089013567ffffffffffffffff8111156113cd576113cc61118f565b5b6113d98b828c016112ac565b94505060a089013567ffffffffffffffff8111156113fa576113f961118f565b5b6114068b828c016112ac565b93505060c089013567ffffffffffffffff8111156114275761142661118f565b5b6114338b828c016112ac565b92505060e089013567ffffffffffffffff8111156114545761145361118f565b5b6114608b828c016112ac565b9150509295985092959890939650565b6000602082840312156114865761148561118a565b5b600082013567ffffffffffffffff8111156114a4576114a361118f565b5b6114b0848285016112ac565b91505092915050565b600073ffffffffffffffffffffffffffffffffffffffff82169050919050565b60006114e4826114b9565b9050919050565b6114f4816114d9565b82525050565b600060208201905061150f60008301846114eb565b92915050565b6000819050919050565b61152881611515565b82525050565b6000602082019050611543600083018461151f565b92915050565b611552816114d9565b811461155d57600080fd5b50565b60008135905061156f81611549565b92915050565b60006020828403121561158b5761158a61118a565b5b600061159984828501611560565b91505092915050565b600081519050919050565b600082825260208201905092915050565b60005b838110156115dc5780820151818401526020810190506115c1565b60008484015250505050565b60006115f3826115a2565b6115fd81856115ad565b935061160d8185602086016115be565b6116168161119e565b840191505092915050565b6000819050919050565b61163481611621565b82525050565b600060608201905061164f60008301866114eb565b818103602083015261166181856115e8565b9050611670604083018461162b565b949350505050565b6000806040838503121561168f5761168e61118a565b5b600083013567ffffffffffffffff8111156116ad576116ac61118f565b5b6116b9858286016112ac565b92505060206116ca85828601611560565b9150509250929050565b6116dd81611621565b81146116e857600080fd5b50565b6000813590506116fa816116d4565b92915050565b600080604083850312156117175761171661118a565b5b600083013567ffffffffffffffff8111156117355761173461118f565b5b611741858286016112ac565b9250506020611752858286016116eb565b9150509250929050565b60008115159050919050565b6117718161175c565b82525050565b60006101608201905061178d600083018e61151f565b61179a602083018d6114eb565b81810360408301526117ac818c6115e8565b905081810360608301526117c0818b6115e8565b905081810360808301526117d4818a6115e8565b905081810360a08301526117e881896115e8565b905081810360c08301526117fc81886115e8565b905061180b60e0830187611768565b81810361010083015261181e81866115e8565b905081810361012083015261183381856115e8565b905081810361014083015261184881846115e8565b90509c9b505050505050505050505050565b600081905092915050565b6000611870826115a2565b61187a818561185a565b935061188a8185602086016115be565b80840191505092915050565b60006118a28284611865565b915081905092915050565b7f56656869636c6520616c72656164792072656769737465726564000000000000600082015250565b60006118e3601a836115ad565b91506118ee826118ad565b602082019050919050565b60006020820190508181036000830152611912816118d6565b9050919050565b7f4e487b7100000000000000000000000000000000000000000000000000000000600052601160045260246000fd5b600061195382611515565b91507fffffffffffffffffffffffffffffffffffffffffffffffffffffffffffffffff820361198557611984611919565b5b600182019050919050565b7f4e487b7100000000000000000000000000000000000000000000000000000000600052602260045260246000fd5b600060028204905060018216806119d757607f821691505b6020821081036119ea576119e9611990565b5b50919050565b60008190508160005260206000209050919050565b60006020601f8301049050919050565b600082821b905092915050565b600060088302611a527fffffffffffffffffffffffffffffffffffffffffffffffffffffffffffffffff82611a15565b611a5c8683611a15565b95508019841693508086168417925050509392505050565b6000819050919050565b6000611a99611a94611a8f84611515565b611a74565b611515565b9050919050565b6000819050919050565b611ab383611a7e565b611ac7611abf82611aa0565b848454611a22565b825550505050565b600090565b611adc611acf565b611ae7818484611aaa565b505050565b5b81811015611b0b57611b00600082611ad4565b600181019050611aed565b5050565b601f821115611b5057611b21816119f0565b611b2a84611a05565b81016020851015611b39578190505b611b4d611b4585611a05565b830182611aec565b50505b505050565b600082821c905092915050565b6000611b7360001984600802611b55565b1980831691505092915050565b6000611b8c8383611b62565b9150826002028217905092915050565b611ba5826115a2565b67ffffffffffffffff811115611bbe57611bbd6111af565b5b611bc882546119bf565b611bd3828285611b0f565b600060209050601f831160018114611c065760008415611bf4578287015190505b611bfe8582611b80565b865550611c66565b601f198416611c14866119f0565b60005b82811015611c3c57848901518255600182019150602085019450602081019050611c17565b86831015611c595784890151611c55601f891682611b62565b8355505b6001600288020188555050505b505050505050565b60006020820190508181036000830152611c8881846115e8565b905092915050565b7f4f6e6c7920636f6e7472616374206f776e65722063616e20706572666f726d2060008201527f7468697320616374696f6e000000000000000000000000000000000000000000602082015250565b6000611cec602b836115ad565b9150611cf782611c90565b604082019050919050565b60006020820190508181036000830152611d1b81611cdf565b9050919050565b7f56656869636c65206e6f7420666f756e64000000000000000000000000000000600082015250565b6000611d586011836115ad565b9150611d6382611d22565b602082019050919050565b60006020820190508181036000830152611d8781611d4b565b9050919050565b7f416c726561647920617070726f76656400000000000000000000000000000000600082015250565b6000611dc46010836115ad565b9150611dcf82611d8e565b602082019050919050565b60006020820190508181036000830152611df381611db7565b9050919050565b7f596f7520617265206e6f74207468652076656869636c65206f776e6572000000600082015250565b6000611e30601d836115ad565b9150611e3b82611dfa565b602082019050919050565b60006020820190508181036000830152611e5f81611e23565b9050919050565b7f4e6577206f776e6572206d75737420626520612072656769737465726564207560008201527f7365720000000000000000000000000000000000000000000000000000000000602082015250565b6000611ec26023836115ad565b9150611ecd82611e66565b604082019050919050565b60006020820190508181036000830152611ef181611eb5565b9050919050565b7f5573657220616c72656164792065786973747300000000000000000000000000600082015250565b6000611f2e6013836115ad565b9150611f3982611ef8565b602082019050919050565b60006020820190508181036000830152611f5d81611f21565b905091905056fea26469706673582212207bfe8dc905e0d2f52030ff57837ca4037c9a0d0926417e569413f15490e8b84064736f6c63430008130033",
  "immutableReferences": {},
  "source": "// pragma solidity >=0.4.21 <0.9.0;\n\n// contract Registration {\n//   address public owner;\n//   uint public last_completed_migration;\n\n//   constructor() public {\n//     owner = msg.sender;\n//   }\n\n//    struct User {\n//         uint id;\n//         string username;\n//         string password;\n//     }\n\n//     struct RegistrationData {\n//         uint registerId;\n//         string username;\n//         string vehicleNo;\n//         string vehicleType;\n//         string vehicleModel;\n//         string vehicleCompany;\n//         string vehicleColor;\n//         bool approved;\n//         string documentHash1;\n//         string documentHash2;\n//         string imageHash;\n//     }\n\n\n//   modifier restricted() {\n//     if (msg.sender == owner) _;\n//   }\n\n//     mapping(uint => User) public users;\n//     uint public userCount = 0;\n\n//     mapping(uint => RegistrationData) public registrationData;\n//     uint public registrationCount = 0;\n\n//     function createUser(string memory _username, string memory _password) public {\n//         userCount++;\n//         users[userCount] = User(userCount, _username, _password);\n//     }\n\n \n\n//     function createRegistrationData(string memory _username, string memory _vehicleNo, string memory _vehicleType, string memory _vehicleModel, string memory _vehicleCompany, string memory _vehicleColor, string memory _documentHashe1,string memory _documentHashe2, string memory _imageHash) public {\n//         registrationCount++;\n//         registrationData[registrationCount] = RegistrationData(registrationCount, _username, _vehicleNo, _vehicleType, _vehicleModel, _vehicleCompany, _vehicleColor, false, _documentHashe1, _documentHashe2, _imageHash);\n//     }\n\n    \n//     function approveRegistration(uint _registerId) public {\n//         require(msg.sender == owner, \"Only owner can approve registration\");\n//         require(_registerId > 0 && _registerId <= registrationCount, \"Invalid registration ID\");\n//         registrationData[_registerId].approved = true;\n//     }\n\n//     function getUserId(string memory _username) public view returns(uint) {\n//         for(uint i = 1; i <= userCount; i++) {\n//             if(keccak256(abi.encodePacked(users[i].username)) == keccak256(abi.encodePacked(_username))) {\n//                 return i;\n//             }\n//         }\n//         return 0;\n//     }\n//     function getRegistrationId(string memory _vehicleNo) public view returns(uint) {\n//         for(uint i = 1; i <= registrationCount; i++) {\n//             if(keccak256(abi.encodePacked(registrationData[i].vehicleNo)) == keccak256(abi.encodePacked(_vehicleNo))) {\n//                 return i;\n//             }\n//         }\n//         return 0;\n//     }\n\n//     function transferOwnership(string memory _vehicleNo, string memory _username) public{\n//         uint registerId = getRegistrationId(_vehicleNo);\n//         registrationData[registerId].username = _username;\n//     }\n \n\n// }\n\n\n// SPDX-License-Identifier: MIT\npragma solidity ^0.8.0;\n\ncontract VehicleRegistration {\n    address public owner;\n\n    constructor() {\n        owner = msg.sender;\n    }\n\n    struct User {\n        address userAddress;\n        string username;\n        bytes32 passwordHash; // Store hashed passwords\n    }\n\n    struct RegistrationData {\n        uint registerId;\n        address ownerAddress; // Store owner's address\n        string vehicleNo;\n        string vehicleType;\n        string vehicleModel;\n        string vehicleCompany;\n        string vehicleColor;\n        bool approved;\n        string documentHash1;\n        string documentHash2;\n        string imageHash;\n    }\n\n    mapping(address => User) public users;\n    mapping(string => RegistrationData) public vehicleRegistry; // Mapping by vehicleNo\n    uint public registrationCount = 0;\n\n    // Events for tracking actions\n    event UserCreated(address indexed userAddress, string username);\n    event VehicleRegistered(address indexed owner, string vehicleNo);\n    event OwnershipTransferred(string vehicleNo, address indexed oldOwner, address indexed newOwner);\n    event RegistrationApproved(string vehicleNo);\n\n    modifier onlyOwner() {\n        require(msg.sender == owner, \"Only contract owner can perform this action\");\n        _;\n    }\n\n    modifier onlyVehicleOwner(string memory _vehicleNo) {\n        require(vehicleRegistry[_vehicleNo].ownerAddress == msg.sender, \"You are not the vehicle owner\");\n        _;\n    }\n\n    function createUser(string memory _username, bytes32 _passwordHash) public {\n        require(users[msg.sender].userAddress == address(0), \"User already exists\");\n        users[msg.sender] = User(msg.sender, _username, _passwordHash);\n        emit UserCreated(msg.sender, _username);\n    }\n\n    function registerVehicle(\n        string memory _vehicleNo,\n        string memory _vehicleType,\n        string memory _vehicleModel,\n        string memory _vehicleCompany,\n        string memory _vehicleColor,\n        string memory _documentHash1,\n        string memory _documentHash2,\n        string memory _imageHash\n    ) public {\n        require(vehicleRegistry[_vehicleNo].ownerAddress == address(0), \"Vehicle already registered\");\n        registrationCount++;\n        vehicleRegistry[_vehicleNo] = RegistrationData(\n            registrationCount,\n            msg.sender,\n            _vehicleNo,\n            _vehicleType,\n            _vehicleModel,\n            _vehicleCompany,\n            _vehicleColor,\n            false,\n            _documentHash1,\n            _documentHash2,\n            _imageHash\n        );\n        emit VehicleRegistered(msg.sender, _vehicleNo);\n    }\n\n    function approveRegistration(string memory _vehicleNo) public onlyOwner {\n        require(vehicleRegistry[_vehicleNo].ownerAddress != address(0), \"Vehicle not found\");\n        require(!vehicleRegistry[_vehicleNo].approved, \"Already approved\");\n        vehicleRegistry[_vehicleNo].approved = true;\n        emit RegistrationApproved(_vehicleNo);\n    }\n\n    function transferOwnership(string memory _vehicleNo, address _newOwner) public onlyVehicleOwner(_vehicleNo) {\n        require(users[_newOwner].userAddress != address(0), \"New owner must be a registered user\");\n        address oldOwner = vehicleRegistry[_vehicleNo].ownerAddress;\n        vehicleRegistry[_vehicleNo].ownerAddress = _newOwner;\n        emit OwnershipTransferred(_vehicleNo, oldOwner, _newOwner);\n    }\n\n    function getVehicleOwner(string memory _vehicleNo) public view returns (address) {\n        return vehicleRegistry[_vehicleNo].ownerAddress;\n    }\n}\n",
  "sourcePath": "C:\\Users\\smume\\OneDrive\\Desktop\\New folder\\Vehicle-Registration-Blockchain-main\\Vehicle-Registration-Blockchain-main\\contracts\\Registration.sol",
  "compiler": {
    "name": "solc",
    "version": "0.8.19+commit.7dd6d404.Emscripten.clang"
  },
  "schemaVersion": "3.4.16",
  "updatedAt": "2025-04-04T13:31:00.398Z",
  "devdoc": {
    "kind": "dev",
    "methods": {},
    "version": 1
  },
  "userdoc": {
    "kind": "user",
    "methods": {},
    "version": 1
  }
}